:020000040000FA
:0400000007EF00F016
:0A0008004A82F3EDB5F036EFBDF0CB
:10FEF6000000000000DCCFD1350000000000C01576
:10FF06003F6042A20D70A5EC363BAAB83F4F38764B
:10FF16003F3CAA38338CBEBF350072313F18723170
:10FF26003F4CBB31330EEADDB555B38A38610B362B
:10FF3600BBABAA2A3E42F1533E55326C3E05A38B1B
:10FF46003EABAAAA3EB76DDB3E9A99193F6042A224
:10FF56000DCAF249710000804B3C6C3636CF075013
:10FF6600B98488083CABAA2ABEA3858832DA0FC9B1
:10FF76003F83F9223F0000003F0000404B179ACC18
:10FF8600373F04B6BA9FAA2A3D000000BFDB0FC95F
:10FF960040E4CB9640DB0F4940DB0FC93F000080B1
:10FFA6003F0000C03F00AAB83FC623F6B80040761F
:10FFB6003F4449474954414C204F5343494C4C41D7
:10FFC600544F520053616D706C696E672531302E47
:10FFD6003066487A004672657175656E63792539B3
:10FFE6002E3066487A00494E46004E414E00696EF4
:0AFFF60066006E616E006C6600008C
:020000040001F9
:10000000C7C0B8F1C8C0B9F1C9C0BAF1CAC0BBF124
:10001000B8C160F1B9C161F1BAC162F1BBC163F1AC
:10002000CBC0B8F1CCC0B9F1CDC0BAF1CEC0BBF1F4
:10003000B8C17CF1B9C17DF1BAC17EF1BBC17FF11C
:10004000FF0E01016015A86FFF0E6115A96FFF0E6D
:100050006215AA6F7F0E6315AB6FFF0E7C15906F54
:10006000FF0E7D15916FFF0E7E15926F7F0E7F152F
:10007000936F9051911192119311D8A442EF80F097
:1000800044EF80F04FEF80F0000E0001C76F000ECC
:10009000C86F800EC96F3F0ECA6F37EF95F0800EA4
:1000A000621909E13F0E631960116111D8A45BEF79
:1000B00080F05DEF80F068EF80F0000E0001C76F08
:1000C000000EC86F800EC96F3F0ECA6F37EF95F0F4
:1000D000ABBF79EF80F0A805000EA959800EAA5990
:1000E0007F0EAB59D8B077EF80F079EF80F08AEFD0
:1000F00080F093BF88EF80F09005000E9159800E3C
:1001000092597F0E9359D8A088EF80F08AEF80F043
:10011000A6EF80F0C7C016F0C8C017F0C9C018F02D
:10012000CAC019F0CBC01AF0CCC01BF0CDC01CF077
:10013000CEC01DF003ECA4F016C0C7F017C0C8F085
:1001400018C0C9F019C0CAF037EF95F0000E506F13
:10015000000E516F000E526F000E536F63BFB5EF6C
:1001600080F0B3EF80F081EF81F093BFC1EF80F0BA
:10017000800E925D4B0E9359D8A0C1EF80F0C3EF73
:1001800080F0CDEF80F0020E506F000E516F000E28
:10019000526F000E536F81EF81F093BFD9EF80F063
:1001A000800E925D3F0E9359D8A0D9EF80F0DBEF1F
:1001B00080F081EF81F0170E0001CF6F90C1D0F079
:1001C00091C1D1F092C1D2F093C1D3F0CF67EBEFE0
:1001D00080F0F3EF80F0D335D333D233D133D03343
:1001E000CF2FE6EF80F0810E0001D0250101A06F36
:1001F000FF0E0001D1210101A16FFF0E0001D221EC
:100200000101A26FFF0E0001D3210101A36FA051D4
:1002100017080001CF6F90C1D0F091C1D1F092C109
:10022000D2F093C1D3F0CF6718EF81F020EF81F0C7
:10023000D335D333D233D133D033CF2F13EF81F033
:10024000D0C0ACF1D1C0ADF1D2C0AEF1D3C0AFF1EE
:100250000101A05117080001CF6FACC1D0F0ADC1B2
:10026000D1F0AEC1D2F0AFC1D3F0CF2B3DEF81F0D2
:10027000D890D037D137D237D337CF2F38EF81F05E
:10028000010190510001D01913E1010191510001C8
:10029000D1190EE1010192510001D21909E10101C8
:1002A00093510001D319D8A458EF81F05AEF81F08F
:1002B00081EF81F0010E0101AC150001CF6F000E3E
:1002C0000101AD150001D06F000E0101AE15000156
:1002D000D16F000E0101AF150001D26FCF5102089E
:1002E0000101506F000E0001D0550101516F000E49
:1002F0000001D1550101526F000E0001D2550101DC
:10030000536F800E0101921909E17F0E931990112C
:100310009111D8A48EEF81F090EF81F0FCEF81F085
:10032000800EAA1909E13F0EAB19A811A911D8A492
:100330009CEF81F09EEF81F0A9EF81F0000E0001AB
:10034000C76F000EC86F800EC96F3F0ECA6F37EFC0
:1003500095F0ABBFB8EF81F0A805000EA959800E4B
:10036000AA593F0EAB59D8A0B8EF81F0BAEF81F08F
:10037000D6EF81F07FBFC1EF81F0BFEF81F0CCEF0E
:1003800081F0000E0001C76F000EC86F000EC96F2C
:10039000000ECA6F37EF95F0CBC0C7F0CCC0C8F0E5
:1003A000CDC0C9F0CEC0CAF037EF95F07FBFDDEF0A
:1003B00081F0DBEF81F0F1EF81F0CBC09EF0CCC09B
:1003C0009FF0CDC0A0F0CEC0A1F092ECBCF09EC0DA
:1003D000C7F09FC0C8F0A0C0C9F0A1C0CAF037EFF5
:1003E00095F0000E0001C76F000EC86F000EC96FB8
:1003F000000ECA6F37EF95F0800E921909E13F0E9B
:10040000931990119111D8A408EF82F00AEF82F0AD
:1004100037EF82F07FBF11EF82F00FEF82F02DEF08
:1004200082F0000E266E000E276E800E286E3F0EA4
:10043000296EC7C02AF0C8C02BF0C9C02CF0CAC0B2
:100440002DF027ECADF026C0C7F027C0C8F028C0BB
:10045000C9F029C0CAF037EF95F0C7C0C7F0C8C0CF
:10046000C8F0C9C0C9F0CAC0CAF037EF95F0400E55
:100470007F197C117D117E11D8A441EF82F043EFEA
:1004800082F05FEF82F0C7C06DF0C8C06EF0C9C0E7
:100490006FF0CAC070F0C7C071F0C8C072F0C9C0B8
:1004A00073F0CAC074F011ECABF06DC0C7F06EC051
:1004B000C8F06FC0C9F070C0CAF037EF95F03F0EBA
:1004C0007F197C117D117E11D8A469EF82F06BEF4A
:1004D00082F086EF82F063BF70EF82F072EF82F0FD
:1004E00086EF82F0C7C096F0C8C097F0C9C098F0F8
:1004F000CAC099F063ECA6F096C0C7F097C0C8F0E8
:1005000098C0C9F099C0CAF037EF95F0C7C016F08F
:10051000C8C017F0C9C018F0CAC019F01CECBDF073
:1005200016C070F117C071F118C072F119C073F1E3
:10053000800E0101AA190BE17F0EAB19A811A911B8
:10054000D8B4A5EF82F0A7EF82F0C0EF82F0A851F7
:10055000A911AA11AB11D8B4B0EF82F0B2EF82F0BA
:10056000C0EF82F0800EAA1909E13F0EAB19A81165
:10057000A911D8A4BEEF82F0C0EF82F08BEF83F018
:1005800070C1B4F171C1B5F172C1B6F173C1B7F107
:100590007FBFCFEF82F0CDEF82F0E9EF82F0000E67
:1005A000266E000E276E800E286E3F0E296EB4C197
:1005B0002AF0B5C12BF0B6C12CF0B7C12DF027EC55
:1005C000ADF026C0B4F127C0B5F128C0B6F129C0FE
:1005D000B7F1010163BFF1EF82F0EFEF82F081EF3D
:1005E00083F0000EA8250001CF6F000E0101A921A4
:1005F0000001D06F800E0101AA210001D16FC00E51
:100600000101AB210001D26F010150510001CF1156
:10061000D36F010151510001D011D46F010152512A
:100620000001D111D56F010153510001D211D66FD4
:10063000D351D411D511D611D8A421EF83F023EFD3
:1006400083F063EF83F0B4C186F0B5C187F0B6C123
:1006500088F0B7C189F0B4C182F0B5C183F0B6C1EA
:1006600084F0B7C185F00DECBCF082C026F083C0E9
:1006700027F084C028F085C029F0B4C186F0B5C148
:1006800087F0B6C188F0B7C189F0B4C182F0B5C1B6
:1006900083F0B6C184F0B7C185F00DECBCF082C028
:1006A0002AF083C02BF084C02CF085C02DF027ECFD
:1006B000ADF026C0B4F127C0B5F128C0B6F129C00D
:1006C000B7F181EF83F0010150055111521153111F
:1006D000D8A46DEF83F06FEF83F081EF83F0B4C1A6
:1006E0009EF0B5C19FF0B6C1A0F0B7C1A1F092ECE9
:1006F000BCF09EC0B4F19FC0B5F1A0C0B6F1A1C0DE
:10070000B7F1B4C1C7F0B5C1C8F0B6C1C9F0B7C13F
:10071000CAF037EF95F0000E886F000E896F800EDB
:100720008A6F3F0E8B6F63BF9AEF83F098EF83F071
:10073000F8EF83F05051511152115311D8A4A3EF87
:1007400083F0A5EF83F0E5EF83F0C7C086F0C8C063
:1007500087F0C9C088F0CAC089F0C7C082F0C8C09D
:1007600083F0C9C084F0CAC085F00DECBCF082C033
:1007700026F083C027F084C028F085C029F0C7C0C8
:1007800086F0C8C087F0C9C088F0CAC089F0C7C069
:1007900082F0C8C083F0C9C084F0CAC085F00DECF7
:1007A000BCF082C02AF083C02BF084C02CF085C03E
:1007B0002DF027ECADF026C0C7F027C0C8F028C048
:1007C000C9F029C0CAF037EF95F050055111521108
:1007D0005311D8A4EEEF83F0F0EF83F0F8EF83F03D
:1007E000000E886F000E896F800E8A6FBF0E8B6FB0
:1007F00093BF07EF84F09005000E9159000E9259B7
:100800004D0E9359D8A007EF84F009EF84F09CEFC8
:1008100086F0ABBF1BEF84F0F80EA85DFF0EA95960
:100820007F0EAA593F0EAB59D8B019EF84F01BEFD9
:1008300084F092EF84F07FBF20EF84F022EF84F009
:100840005AEF84F0600E0001716F420E726FA20EBB
:10085000736F0D0E746F88C16DF089C16EF08AC11F
:100860006FF08BC170F011ECABF06DC0A4F16EC0F5
:10087000A5F16FC0A6F170C0A7F1A4C16DF0A5C12C
:100880006EF0A6C16FF0A7C170F0600E0001716F2D
:10089000420E726FA20E736F0D0E746F11ECABF0FF
:1008A0006DC0C7F06EC0C8F06FC0C9F070C0CAF0AC
:1008B00037EF95F0CA0E0001716FF20E726F490E9C
:1008C000736F710E746F88C16DF089C16EF08AC14B
:1008D0006FF08BC170F011ECABF06DC0A4F16EC085
:1008E000A5F16FC0A6F170C0A7F1A4C16DF0A5C1BC
:1008F0006EF0A6C16FF0A7C170F0CA0E0001716F53
:10090000F20E726F490E736F710E746F11ECABF0D3
:100910006DC0C7F06EC0C8F06FC0C9F070C0CAF03B
:1009200037EF95F0ABBFA2EF84F0080EA85D000E84
:10093000A959800EAA593F0EAB59D8A0A2EF84F056
:10094000A4EF84F023EF85F07FBFB3EF84F07F51F5
:100950007E117D1106E17C05D8B0B1EF84F0B3EFD4
:1009600084F0EBEF84F0600E0001716F420E726F45
:10097000A20E736F0D0E746F88C16DF089C16EF099
:100980008AC16FF08BC170F011ECABF06DC0A4F1B7
:100990006EC0A5F16FC0A6F170C0A7F1A4C16DF043
:1009A000A5C16EF0A6C16FF0A7C170F0600E000186
:1009B000716F420E726FA20E736F0D0E746F11EC99
:1009C000ABF06DC0C7F06EC0C8F06FC0C9F070C0AA
:1009D000CAF037EF95F0CA0E0001716FF20E726F18
:1009E000490E736F710E746F88C16DF089C16EF01E
:1009F0008AC16FF08BC170F011ECABF06DC0A4F147
:100A00006EC0A5F16FC0A6F170C0A7F1A4C16DF0D2
:100A1000A5C16EF0A6C16FF0A7C170F0CA0E0001AB
:100A2000716FF20E726F490E736F710E746F11EC6D
:100A3000ABF06DC0C7F06EC0C8F06FC0C9F070C039
:100A4000CAF037EF95F070C116F071C117F072C19E
:100A500018F073C119F0000E1A6E000E1B6E800E96
:100A60001C6EBF0E1D6E03ECA4F016C0B0F117C0D3
:100A7000B1F118C0B2F119C0B3F1000E0001716FED
:100A8000000E726F800E736F3E0E746FB0C16DF00A
:100A9000B1C16EF0B2C16FF0B3C170F011ECABF048
:100AA0006DC086F06EC087F06FC088F070C089F0AE
:100AB000AB0E0001826FAA0E836FAA0E846F3E0EEA
:100AC000856F0DECBCF082C0A4F183C0A5F184C099
:100AD000A6F185C0A7F1B0C171F0B1C172F0B2C189
:100AE00073F0B3C174F0B0C16DF0B1C16EF0B2C1BA
:100AF0006FF0B3C170F011ECABF06DC054F16EC08B
:100B000055F16FC056F170C057F1B0C171F0B1C16D
:100B100072F0B2C173F0B3C174F0A4C16DF0A5C19D
:100B20006EF0A6C16FF0A7C170F011ECABF06DC014
:100B300086F06EC087F06FC088F070C089F0000E3C
:100B40000001826F000E836F000E846F3F0E856F71
:100B50000DECBCF082C048F183C049F184C04AF179
:100B600085C04BF154C16DF055C16EF056C16FF0A8
:100B700057C170F048C171F049C172F04AC173F0B9
:100B80004BC174F011ECABF06DC044F16EC045F197
:100B90006FC046F170C047F1B0C16DF0B1C16EF0E9
:100BA000B2C16FF0B3C170F0000E0001716FAA0EF8
:100BB000726FB80E736F3F0E746F11ECABF06DC0B7
:100BC00074F16EC075F16FC076F170C077F1700E80
:100BD0000001716FA50E726FEC0E736F360E746F9D
:100BE000B0C16DF0B1C16EF0B2C16FF0B3C170F0C1
:100BF00011ECABF06DC082F06EC083F06FC084F07A
:100C000070C085F03B0E0001716FAA0E726FB80EB6
:100C1000736F3F0E746F44C16DF045C16EF046C1F5
:100C20006FF047C170F011ECABF06DC086F06EC094
:100C300087F06FC088F070C089F00DECBCF082C006
:100C400078F183C079F184C07AF185C07BF174C1F9
:100C500016F075C117F076C118F077C119F078C198
:100C60001AF079C11BF07AC11CF07BC11DF003ECB6
:100C7000A4F016C084F117C085F118C086F119C020
:100C800087F184C1B8F185C1B9F186C1BAF187C1D4
:100C9000BBF1B8C194F1B9C195F1BAC196F1BBC12C
:100CA00097F1000E01019415B86FF00E9515B96F0C
:100CB000FF0E9615BA6FFF0E9715BB6FB8C184F182
:100CC000B9C185F1BAC186F1BBC187F174C186F0A3
:100CD00075C187F076C188F077C189F084C182F050
:100CE00085C183F086C184F087C185F00DECBCF02E
:100CF00082C098F183C099F184C09AF185C09BF1BC
:100D000078C182F079C183F07AC184F07BC185F02B
:100D100098C186F099C187F09AC188F09BC189F08B
:100D20000DECBCF082C01CF183C01DF184C01EF12B
:100D300085C01FF121EF8EF0000E806F000E816FD5
:100D4000000E826F000E836FABBFB2EF86F0AB5127
:100D500007E1800EAA5DD8B0B0EF86F0B2EF86F062
:100D6000E6EF86F070C16DF071C16EF072C16FF088
:100D700073C170F0000E0001716F000E726F800E73
:100D8000736F4B0E746F11ECABF06DC070F16EC0F1
:100D900071F16FC072F170C073F1E80E010180272C
:100DA000FF0E8123FF0E8223FF0E832370C1B8F153
:100DB00071C1B9F172C1BAF173C1BBF1B8C1A8F187
:100DC000B9C1A9F1BAC1AAF1BBC1ABF1170E0001BB
:100DD000CF6FA8C1D0F0A9C1D1F0AAC1D2F0ABC1E8
:100DE000D3F0CF67F6EF86F0FEEF86F0D335D3333E
:100DF000D233D133D033CF2FF1EF86F0810E000103
:100E0000D025D46FFF0ED121D56FFF0ED221D66F22
:100E1000FF0ED321D76FD451010180270001D55196
:100E2000010181230001D651010182230001D75124
:100E300001018323FF0EA815AC6FFF0EA915AD6F3E
:100E40007F0EAA15AE6F000EAB15AF6F000EAC1182
:100E5000A86F000EAD11A96F800EAE11AA6F3F0EE4
:100E6000AF11AB6FAFBF44EF87F0AF510BE1720E24
:100E7000AC5DC40EAD591C0EAE59D8B042EF87F030
:100E800044EF87F04EEF87F0000EA06F000EA16FC9
:100E9000000EA26F000EA36F80EF87F0AFBF60EF70
:100EA00087F0AF510BE1D70EAC5DB30EAD595D0EBF
:100EB000AE59D8B05EEF87F060EF87F06AEF87F049
:100EC000010EA06F000EA16F000EA26F000EA36FA7
:100ED00080EF87F0000EA06F000EA16F000EA26FD2
:100EE000000EA36F010E8027000E8123822383232F
:100EF000000EA827000EA923800EAA23FF0EAB2305
:100F0000A8C1B8F1A9C1B9F1AAC1BAF1ABC1BBF18D
:100F1000B8C170F1B9C171F1BAC172F1BBC173F15D
:100F200070C182F071C183F072C184F073C185F029
:100F3000A0C1CFF0A1C1D0F00001D890CF37D037F9
:100F4000D890CF37D037A30ECF25F66EFF0ED02125
:100F5000F76EF86A000EF8220900F5CF86F0090056
:100F6000F5CF87F00900F5CF88F00A00F5CF89F0BA
:100F70000DECBCF082C074F183C075F184C076F1D1
:100F800085C077F1000E266E000E276E800E286E4B
:100F90003F0E296E70C11AF071C11BF072C11CF0B6
:100FA00073C11DF0A0C1CFF0A1C1D0F00001D89055
:100FB000CF37D037D890CF37D037A30ECF25F66EA6
:100FC000FF0ED021F76EF86A000EF8220900F5CF67
:100FD00016F00900F5CF17F00900F5CF18F00A0058
:100FE000F5CF19F003ECA4F016C02AF017C02BF0CF
:100FF00018C02CF019C02DF027ECADF026C078F108
:1010000027C079F128C07AF129C07BF174C16DF055
:1010100075C16EF076C16FF077C170F078C171F074
:1010200079C172F07AC173F07BC174F011ECABF04E
:101030006DC05CF16EC05DF16FC05EF170C05FF1BC
:101040005CC16CF15DC16DF15EC16EF15FC16FF1AC
:101050006CC1B8F16DC1B9F16EC1BAF16FC1BBF12C
:10106000B8C194F1B9C195F1BAC196F1BBC197F17C
:10107000000E01019415B86FF00E9515B96FFF0EB3
:101080009615BA6FFF0E9715BB6FB8C16CF1B9C159
:101090006DF1BAC16EF1BBC16FF1A8C1CFF0A9C1AA
:1010A000D0F0AAC1D1F0ABC1D2F00001D235D23319
:1010B000D133D033CF33000ECF15D36FF00ED01510
:1010C000D46FFF0ED115D56FFF0ED215D66F000E5F
:1010D000D3110101946F000E0001D4110101956F2D
:1010E000000E0001D5110101966F200E0001D611EE
:1010F0000101976FA0C1CFF0A1C1D0F0A2C1D1F082
:10110000A3C1D2F0150ED8900001CF37D037D13718
:10111000D237E82E83EF88F0010194510001CF25EA
:10112000D36F010195510001D021D46F0101965177
:101130000001D121D56F010197510001D221D66F55
:10114000000ED3250101B86F000E0001D42101016A
:10115000B96F400E0001D5210101BA6F000E0001E8
:10116000D6210101BB6FB8C168F1B9C169F1BAC13B
:101170006AF1BBC16BF1A0C1CFF0A1C1D0F00001F9
:10118000D890CF37D037D890CF37D037A30ECF25D0
:10119000F66EFF0ED021F76EF86A000EF8220900F5
:1011A000F5CF86F00900F5CF87F00900F5CF88F07C
:1011B0000A00F5CF89F068C182F069C183F06AC185
:1011C00084F06BC185F00DECBCF082C098F183C057
:1011D00099F184C09AF185C09BF170C182F071C110
:1011E00083F072C184F073C185F098C186F099C113
:1011F00087F09AC188F09BC189F00DECBCF082C0E9
:1012000034F183C035F184C036F185C037F168C14F
:1012100071F069C172F06AC173F06BC174F06CC196
:101220006DF06DC16EF06EC16FF06FC170F011ECBA
:10123000ABF06DC086F06EC087F06FC088F070C0F4
:1012400089F074C182F075C183F076C184F077C1F2
:1012500085F00DECBCF082C098F183C099F184C098
:101260009AF185C09BF134C171F035C172F036C17D
:1012700073F037C174F06CC16DF06DC16EF06EC16A
:101280006FF06FC170F011ECABF06DC086F06EC006
:1012900087F06FC088F070C089F098C182F099C162
:1012A00083F09AC184F09BC185F00DECBCF082C044
:1012B00054F183C055F184C056F185C057F154C133
:1012C0006DF055C16EF056C16FF057C170F078C126
:1012D00071F079C172F07AC173F07BC174F011ECD6
:1012E000ABF06DC030F16EC031F16FC032F170C043
:1012F00033F15CC16DF05DC16EF05EC16FF05FC136
:1013000070F05CC171F05DC172F05EC173F05FC1DD
:1013100074F011ECABF06DC08CF16EC08DF16FC04C
:101320008EF170C08FF1550E1A6E320E1B6E6C0E60
:101330001C6E3E0E1D6E420E0001716FF10E726F3B
:10134000530E736F3E0E746F8CC16DF08DC16EF0D5
:101350008EC16FF08FC170F011ECABF06DC016F064
:101360006EC017F06FC018F070C019F003ECA4F055
:1013700016C0A4F117C0A5F118C0A6F119C0A7F1B5
:10138000050E1A6EA30E1B6E8B0E1C6E3E0E1D6E8E
:101390008CC171F08DC172F08EC173F08FC174F089
:1013A000A4C16DF0A5C16EF0A6C16FF0A7C170F029
:1013B00011ECABF06DC016F06EC017F06FC018F0F6
:1013C00070C019F003ECA4F016C054F117C055F129
:1013D00018C056F119C057F1AB0E1A6EAA0E1B6E4B
:1013E000AA0E1C6E3E0E1D6E8CC171F08DC172F086
:1013F0008EC173F08FC174F054C16DF055C16EF0A1
:1014000056C16FF057C170F011ECABF06DC016F023
:101410006EC017F06FC018F070C019F003ECA4F0A4
:1014200016C048F117C049F118C04AF119C04BF174
:10143000B70E1A6E6D0E1B6EDB0E1C6E3E0E1D6E11
:101440008CC171F08DC172F08EC173F08FC174F0D8
:1014500048C16DF049C16EF04AC16FF04BC170F0E8
:1014600011ECABF06DC016F06EC017F06FC018F045
:1014700070C019F003ECA4F016C038F117C039F1B0
:1014800018C03AF119C03BF19A0E1A6E990E1B6EF4
:10149000190E1C6E3F0E1D6E8CC171F08DC172F065
:1014A0008EC173F08FC174F038C16DF039C16EF028
:1014B0003AC16FF03BC170F011ECABF06DC016F0AB
:1014C0006EC017F06FC018F070C019F003ECA4F0F4
:1014D00016C000F117C001F118C002F119C003F1E4
:1014E0008CC171F08DC172F08EC173F08FC174F038
:1014F0008CC16DF08DC16EF08EC16FF08FC170F038
:1015000011ECABF06DC004F16EC005F16FC006F1D7
:1015100070C007F100C16DF001C16EF002C16FF043
:1015200003C170F004C171F005C172F006C173F01F
:1015300007C174F011ECABF06DC04CF16EC04DF111
:101540006FC04EF170C04FF130C171F031C172F017
:1015500032C173F033C174F05CC11AF05DC11BF08D
:101560005EC11CF05FC11DF06CC116F06DC117F0BB
:101570006EC118F06FC119F003ECA4F016C06DF045
:1015800017C06EF018C06FF019C070F011ECABF01E
:101590006DC058F16EC059F16FC05AF170C05BF167
:1015A0004CC116F04DC117F04EC118F04FC119F0E3
:1015B00058C11AF059C11BF05AC11CF05BC11DF093
:1015C00003ECA4F016C04CF117C04DF118C04EF159
:1015D00019C04FF16CC16DF06DC16EF06EC16FF04E
:1015E0006FC170F06CC171F06DC172F06EC173F0BB
:1015F0006FC174F011ECABF06DC08CF16EC08DF169
:101600006FC08EF170C08FF1000E1A6E000E1B6E4F
:10161000400E1C6E400E1D6E8CC116F08DC117F071
:101620008EC118F08FC119F003ECA4F016C058F168
:1016300017C059F118C05AF119C05BF158C116F022
:1016400059C117F05AC118F05BC119F04CC11AF01A
:101650004DC11BF04EC11CF04FC11DF003ECA4F0B6
:1016600016C068F117C069F118C06AF119C06BF1B2
:1016700068C1B8F169C1B9F16AC1BAF16BC1BBF116
:10168000B8C194F1B9C195F1BAC196F1BBC197F156
:10169000000E01019415B86FF00E9515B96FFF0E8D
:1016A0009615BA6FFF0E9715BB6FB8C168F1B9C137
:1016B00069F1BAC16AF1BBC16BF1000E1A6E000E7E
:1016C0001B6E400E1C6EC00E1D6E68C116F069C107
:1016D00017F06AC118F06BC119F003ECA4F016C042
:1016E0003CF117C03DF118C03EF119C03FF18CC16B
:1016F00086F08DC187F08EC188F08FC189F03CC122
:1017000082F03DC183F03EC184F03FC185F00DEC15
:10171000BCF082C040F183C041F184C042F185C079
:1017200043F14CC182F04DC183F04EC184F04FC1F2
:1017300085F040C186F041C187F042C188F043C1C5
:1017400089F00DECBCF082C034F183C035F184C067
:1017500036F185C037F16CC16DF06DC16EF06EC1B0
:101760006FF06FC170F068C171F069C172F06AC149
:1017700073F06BC174F011ECABF06DC074F16EC01E
:1017800075F16FC076F170C077F168C171F069C111
:1017900072F06AC173F06BC174F030C16DF031C189
:1017A0006EF032C16FF033C170F011ECABF06DC070
:1017B00016F06EC017F06FC018F070C019F05CC161
:1017C00071F05DC172F05EC173F05FC174F034C13D
:1017D0006DF035C16EF036C16FF037C170F011ECAD
:1017E000ABF06DC01AF06EC01BF06FC01CF070C083
:1017F0001DF003ECA4F016C078F117C079F118C001
:101800007AF119C07BF174C116F075C117F076C179
:1018100018F077C119F078C11AF079C11BF07AC1BC
:101820001CF07BC11DF003ECA4F016C09CF117C0A6
:101830009DF118C09EF119C09FF19CC1B8F19DC1E6
:10184000B9F19EC1BAF19FC1BBF1B8C194F1B9C160
:1018500095F1BAC196F1BBC197F1000E0101941543
:10186000B86FF00E9515B96FFF0E9615BA6FFF0E93
:101870009715BB6FB8C19CF1B9C19DF1BAC19EF17A
:10188000BBC19FF174C186F075C187F076C188F045
:1018900077C189F09CC182F09DC183F09EC184F024
:1018A0009FC185F00DECBCF082C098F183C099F126
:1018B00084C09AF185C09BF178C182F079C183F030
:1018C0007AC184F07BC185F098C186F099C187F018
:1018D0009AC188F09BC189F00DECBCF082C064F124
:1018E00083C065F184C066F185C067F19CC16DF06D
:1018F0009DC16EF09EC16FF09FC170F0000E00019F
:10190000716F400E726F760E736F3F0E746F11EC35
:10191000ABF06DC020F16EC021F16FC022F170C03C
:1019200023F14F0E0001716F380E726F760E736FD8
:101930003F0E746F64C16DF065C16EF066C16FF0EB
:1019400067C170F011ECABF06DC01AF06EC01BF007
:101950006FC01CF070C01DF0C60E0001716F230E29
:10196000726FF60E736FB80E746F9CC16DF09DC1EF
:101970006EF09EC16FF09FC170F011ECABF06DC0C6
:1019800016F06EC017F06FC018F070C019F003ECBD
:10199000A4F016C058F117C059F118C05AF119C077
:1019A0005BF158C116F059C117F05AC118F05BC16C
:1019B00019F0A0C1CFF0A1C1D0F00001D890CF376D
:1019C000D037D890CF37D037F70ECF25F66EFE0E32
:1019D000D021F76EF86A000EF8220900F5CF1AF050
:1019E0000900F5CF1BF00900F5CF1CF00A00F5CF78
:1019F0001DF003ECA4F016C024F117C025F118C0A7
:101A000026F119C027F180C116F081C117F082C1FB
:101A100018F083C119F0010E47ECB4F016C0B0F114
:101A200017C0B1F118C0B2F119C0B3F124C11AF056
:101A300025C11BF026C11CF027C11DF020C116F0E6
:101A400021C117F022C118F023C119F003ECA4F052
:101A500016C058F117C059F118C05AF119C05BF1FE
:101A6000A0C1CFF0A1C1D0F00001D890CF37D037BE
:101A7000D890CF37D037FF0ECF25F66EFE0ED0218F
:101A8000F76EF86A000EF8220900F5CF1AF0090087
:101A9000F5CF1BF00900F5CF1CF00A00F5CF1DF0C3
:101AA00058C116F059C117F05AC118F05BC119F0AE
:101AB00003ECA4F016C008F117C009F118C00AF130
:101AC00019C00BF108C116F009C117F00AC118F0CE
:101AD0000BC119F0B0C11AF0B1C11BF0B2C11CF0BA
:101AE000B3C11DF003ECA4F016C084F117C085F15A
:101AF00018C086F119C087F184C1B8F185C1B9F168
:101B000086C1BAF187C1BBF1B8C194F1B9C195F1F1
:101B1000BAC196F1BBC197F1000E01019415B86FDF
:101B2000F00E9515B96FFF0E9615BA6FFF0E97154B
:101B3000BB6FB8C184F1B9C185F1BAC186F1BBC12F
:101B400087F1B0C186F0B1C187F0B2C188F0B3C1EE
:101B500089F084C182F085C183F086C184F087C199
:101B600085F00DECBCF082C098F183C099F184C07F
:101B70009AF185C09BF1A0C1CFF0A1C1D0F00001C6
:101B8000D890CF37D037D890CF37D037FF0ECF256A
:101B9000F66EFE0ED021F76EF86A000EF8220900EC
:101BA000F5CF86F00900F5CF87F00900F5CF88F072
:101BB0000A00F5CF89F098C182F099C183F09AC1EB
:101BC00084F09BC185F00DECBCF082C040F183C075
:101BD00041F184C042F185C043F120C186F021C1AA
:101BE00087F022C188F023C189F040C182F041C151
:101BF00083F042C184F043C185F00DECBCF082C09B
:101C00000CF183C00DF184C00EF185C00FF124C129
:101C100082F025C183F026C184F027C185F00CC174
:101C200086F00DC187F00EC188F00FC189F00DEC70
:101C3000BCF082C01CF183C01DF184C01EF185C0C0
:101C40001FF1CBC0B8F1CCC0B9F1CDC0BAF1CEC054
:101C5000BBF1B8C194F1B9C195F1BAC196F1BBC15C
:101C600097F1000E01019415B86FF00E9515B96F3C
:101C7000FF0E9615BA6FFF0E9715BB6FB8C128F10E
:101C8000B9C129F1BAC12AF1BBC12BF184C171F0EC
:101C900085C172F086C173F087C174F028C186F0E7
:101CA00029C187F02AC188F02BC189F0CBC082F00E
:101CB000CCC083F0CDC084F0CEC085F00DECBCF07C
:101CC00082C06DF083C06EF084C06FF085C070F08C
:101CD00011ECABF06DC010F16EC011F16FC012F1DC
:101CE00070C013F110C116F011C117F012C118F035
:101CF00013C119F01CC171F01DC172F01EC173F047
:101D00001FC174F0CBC06DF0CCC06EF0CDC06FF0D1
:101D1000CEC070F011ECABF06DC01AF06EC01BF0CD
:101D20006FC01CF070C01DF003ECA4F016C064F18D
:101D300017C065F118C066F119C067F128C16DF0D0
:101D400029C16EF02AC16FF02BC170F084C171F00F
:101D500085C172F086C173F087C174F011ECABF0ED
:101D60006DC09CF16EC09DF16FC09EF170C09FF17F
:101D700064C116F065C117F066C118F067C119F0AB
:101D80009CC11AF09DC11BF09EC11CF09FC11DF0AB
:101D900003ECA4F016C0B4F117C0B5F118C0B6F149
:101DA00019C0B7F1B4C1B8F1B5C1B9F1B6C1BAF152
:101DB000B7C1BBF1B8C1ACF1B9C1ADF1BAC1AEF1B7
:101DC000BBC1AFF10101AFBFF2EF8EF0AC05000E69
:101DD000AD59000EAE59430EAF59D8A0F2EF8EF0B8
:101DE000F4EF8EF02CEF8FF0CA0E0001716FF20E3F
:101DF000726F490E736F710E746F88C16DF089C177
:101E00006EF08AC16FF08BC170F011ECABF06DC059
:101E1000A4F16EC0A5F16FC0A6F170C0A7F1A4C176
:101E20006DF0A5C16EF0A6C16FF0A7C170F0CA0E2B
:101E30000001716FF20E726F490E736F710E746F45
:101E400011ECABF06DC0C7F06EC0C8F06FC0C9F048
:101E500070C0CAF037EF95F0430EAF19AC11AD1159
:101E6000AE11D8A436EF8FF038EF8FF0ADEF8FF0D2
:101E70009CC186F09DC187F09EC188F09FC189F00A
:101E8000B4C182F0B5C183F0B6C184F0B7C185F0AA
:101E90000DECBCF082C08AF083C08BF084C08CF063
:101EA00085C08DF03C0E1A6EAA0E1B6E380E1C6E8D
:101EB000330E1D6E64C116F065C117F066C118F0CF
:101EC00067C119F003ECA4F016C08EF017C08FF0B4
:101ED00018C090F019C091F006ECB7F00001D8B02E
:101EE00074EF8FF076EF8FF07AEF90F0CA0E716F8B
:101EF000F20E726F490E736F710E746F88C16DF0C0
:101F000089C16EF08AC16FF08BC170F011ECABF03B
:101F10006DC0A4F16EC0A5F16FC0A6F170C0A7F1AD
:101F2000A4C16DF0A5C16EF0A6C16FF0A7C170F09D
:101F3000CA0E0001716FF20E726F490E736F710E4F
:101F4000746F11ECABF06DC0C7F06EC0C8F06FC01D
:101F5000C9F070C0CAF037EF95F0FF0EAC15000164
:101F6000CF6FFF0E0101AD150001D06FFF0E010113
:101F7000AE150001D16F7F0E0101AF150001D26FC8
:101F8000D2BFCFEF8FF0CF05000ED059160ED1592A
:101F9000430ED259D8A0CFEF8FF0D1EF8FF008EFDA
:101FA00090F0600E716F420E726FA20E736F0D0E85
:101FB000746F88C16DF089C16EF08AC16FF08BC1FA
:101FC00070F011ECABF06DC0A4F16EC0A5F16FC064
:101FD000A6F170C0A7F1A4C16DF0A5C16EF0A6C1B5
:101FE0006FF0A7C170F0600E0001716F420E726F4A
:101FF000A20E736F0D0E746F11ECABF06DC0C7F0D5
:102000006EC0C8F06FC0C9F070C0CAF037EF95F06D
:10201000160E0101AE1909E1C30EAF19AC11AD11D5
:10202000D8A415EF90F017EF90F07AEF90F09CC1E4
:1020300086F09DC187F09EC188F09FC189F0B4C130
:1020400082F0B5C183F0B6C184F0B7C185F00DEC64
:10205000BCF082C08AF083C08BF084C08CF085C055
:102060008DF064C18EF065C18FF066C190F067C1DC
:1020700091F006ECB7F00001D8A041EF90F043EFEB
:1020800090F07AEF90F0600E716F420E726FA20EB8
:10209000736F0D0E746F88C16DF089C16EF08AC1C7
:1020A0006FF08BC170F011ECABF06DC0A4F16EC09D
:1020B000A5F16FC0A6F170C0A7F1A4C16DF0A5C1D4
:1020C0006EF0A6C16FF0A7C170F0600E0001716FD5
:1020D000420E726FA20E736F0D0E746F11ECABF0A7
:1020E0006DC0C7F06EC0C8F06FC0C9F070C0CAF054
:1020F00037EF95F0FF0E0101AC152C6FFF0EAD15FB
:102100002D6FFF0EAE152E6F7F0EAF152F6F170EB2
:102110000001CF6F2CC1D0F02DC1D1F02EC1D2F073
:102120002FC1D3F0CF6797EF90F09FEF90F0D335AA
:10213000D333D233D133D033CF2F92EF90F0810EFF
:102140000001D0250101A06FFF0E0001D121010186
:10215000A16FFF0E0001D2210101A26FFF0E00014D
:10216000D3210101A36F000E806F000E816F000E5E
:10217000826F000E836F2FBFCAEF90F02C05000E08
:102180002D59000E2E593F0E2F59D8A0CAEF90F0AE
:10219000CCEF90F0D0EF91F0A0C1CFF0010E000194
:1021A000CF27000ED06F000ED16F800ED26F000EC1
:1021B000D36FCF67DEEF90F0E6EF90F0D335D333F7
:1021C000D233D133D033CF2FD9EF90F00101AC51BE
:1021D0000001D0250101806FAD510001D121010125
:1021E000816FAE510001D2210101826FAF51000118
:1021F000D3210101836F810E0001CF6FFF0ED06FDD
:10220000FF0ED16FFF0ED26F170ED36F80C1D4F0C7
:1022100081C1D5F082C1D6F083C1D7F0D36713EF67
:1022200091F01BEF91F0D735D733D633D533D43374
:10223000D32F0EEF91F00001D451CF250101A06FF3
:10224000000E0001D0210101A16F000E0001D1217B
:102250000101A26F000E0001D2210101A36FA0C1F4
:10226000CFF0FF0E0001D06FFF0ED16F7F0ED26F47
:10227000000ED36FCF673FEF91F047EF91F0D3356A
:10228000D333D233D133D033CF2F3AEF91F0000193
:10229000D01DD46FD11DD56FD21DD66FD31DD76F72
:1022A000010180510001D4150101B86F8151000175
:1022B000D5150101B96F82510001D6150101BA6F20
:1022C00083510001D7150101BB6FB8C1B0F1B9C18D
:1022D000B1F1BAC1B2F1BBC1B3F1A051170800010D
:1022E000CF6FFF0E010180150001D06FFF0E0101BD
:1022F00081150001D16F7F0E010182150001D26F9F
:10230000000E010183150001D36F000ED011D46FB0
:10231000000ED111D56F800ED211D66F000ED311E1
:10232000D76FCF6796EF91F09EEF91F0D735D73307
:10233000D633D533D433CF2F91EF91F0D4C080F181
:10234000D5C081F1D6C082F1D7C083F10101AFBF02
:10235000AEEF91F0ACEF91F0B6EF91F0831F821FDA
:10236000811F806D000E8123822383239CC182F014
:102370009DC183F09EC184F09FC185F0B0C186F0FD
:10238000B1C187F0B2C188F0B3C189F00DECBCF0E7
:1023900082C09CF183C09DF184C09EF185C09FF1F5
:1023A00064C116F065C117F066C118F067C119F075
:1023B0009CC11AF09DC11BF09EC11CF09FC11DF075
:1023C00003ECA4F016C0B0F117C0B1F118C0B2F11F
:1023D00019C0B3F1B0C1B8F1B1C1B9F1B2C1BAF12C
:1023E000B3C1BBF1B8C194F1B9C195F1BAC196F1CD
:1023F000BBC197F1000E01019415B86F800E9515C1
:10240000B96FFF0E9615BA6FFF0E9715BB6FB8C167
:10241000B0F1B9C1B1F1BAC1B2F1BBC1B3F1B0C150
:102420006DF0B1C16EF0B2C16FF0B3C170F0000ECB
:102430000001716F720E726F310E736F3F0E746F09
:1024400011ECABF06DC074F16EC075F16FC076F138
:1024500070C077F19CC186F09DC187F09EC188F065
:102460009FC189F0B0C182F0B1C183F0B2C184F0E4
:10247000B3C185F00DECBCF082C098F183C099F136
:1024800084C09AF185C09BF1180E0001716F720E25
:10249000726F310E736F3F0E746F98C186F099C1E1
:1024A00087F09AC188F09BC189F064C182F065C150
:1024B00083F066C184F067C185F00DECBCF082C08A
:1024C0006DF083C06EF084C06FF085C070F011ECC9
:1024D000ABF06DC014F16EC015F16FC016F170C095
:1024E00017F114C116F015C117F016C118F017C175
:1024F00019F08C0E0001716FBE0E726FBF0E736FFC
:10250000350E746FB0C16DF0B1C16EF0B2C16FF035
:10251000B3C170F011ECABF06DC01AF06EC01BF0DF
:102520006FC01CF070C01DF003ECA4F016C078F171
:1025300017C079F118C07AF119C07BF174C116F097
:1025400075C117F076C118F077C119F078C11AF08B
:1025500079C11BF07AC11CF07BC11DF003ECA4F023
:1025600016C0B4F117C0B5F118C0B6F119C0B7F173
:1025700074C186F075C187F076C188F077C189F0A3
:10258000B4C182F0B5C183F0B6C184F0B7C185F0A3
:102590000DECBCF082C098F183C099F184C09AF12F
:1025A00085C09BF178C182F079C183F07AC184F053
:1025B0007BC185F098C186F099C187F09AC188F0F7
:1025C0009BC189F00DECBCF082C044F183C045F1A1
:1025D00084C046F185C047F1B4C16DF0B5C16EF05D
:1025E000B6C16FF0B7C170F0B4C171F0B5C172F08F
:1025F000B6C173F0B7C174F011ECABF06DC0B0F1BF
:102600006EC0B1F16FC0B2F170C0B3F10E0E1A6EB0
:10261000EA0E1B6EDD0E1C6EB50E1D6E4C0E00011B
:10262000716FBB0E726F310E736F330E746FB0C16A
:102630006DF0B1C16EF0B2C16FF0B3C170F011ECCA
:10264000ABF06DC016F06EC017F06FC018F070C020
:1026500019F003ECA4F016C0A4F117C0A5F118C03E
:10266000A6F119C0A7F1550E1A6EB30E1B6E8A0E95
:102670001C6E380E1D6EB0C171F0B1C172F0B2C1E6
:1026800073F0B3C174F0A4C16DF0A5C16EF0A6C122
:102690006FF0A7C170F011ECABF06DC016F06EC01A
:1026A00017F06FC018F070C019F003ECA4F016C05A
:1026B00054F117C055F118C056F119C057F1610E09
:1026C0001A6E0B0E1B6E360E1C6EBB0E1D6EB0C14D
:1026D00071F0B1C172F0B2C173F0B3C174F054C102
:1026E0006DF055C16EF056C16FF057C170F011EC2E
:1026F000ABF06DC016F06EC017F06FC018F070C070
:1027000019F003ECA4F016C048F117C049F118C045
:102710004AF119C04BF1AB0E1A6EAA0E1B6E2A0EAF
:102720001C6E3E0E1D6EB0C171F0B1C172F0B2C12F
:1027300073F0B3C174F048C16DF049C16EF04AC185
:102740006FF04BC170F011ECABF06DC016F06EC0C5
:1027500017F06FC018F070C019F003ECA4F016C0A9
:1027600038F117C039F118C03AF119C03BF1B4C1C2
:1027700082F0B5C183F0B6C184F0B7C185F0B0C1B5
:1027800071F0B1C172F0B2C173F0B3C174F038C16D
:102790006DF039C16EF03AC16FF03BC170F011ECD1
:1027A000ABF06DC086F06EC087F06FC088F070C06F
:1027B00089F00DECBCF082C084F183C085F184C047
:1027C00086F185C087F1000E1A6E000E1B6E000E9A
:1027D0001C6EC00E1D6E84C116F085C117F086C137
:1027E00018F087C119F003ECA4F016C02AF017C046
:1027F0002BF018C02CF019C02DF084C171F085C1E8
:1028000072F086C173F087C174F0B4C16DF0B5C1C8
:102810006EF0B6C16FF0B7C170F011ECABF06DC0E7
:1028200026F06EC027F06FC028F070C029F027ECAA
:10283000ADF026C03CF127C03DF128C03EF129C0D3
:102840003FF144C11AF045C11BF046C11CF047C11D
:102850001DF044C171F045C172F046C173F047C12B
:1028600074F0B4C16DF0B5C16EF0B6C16FF0B7C110
:1028700070F011ECABF06DC016F06EC017F06FC0C9
:1028800018F070C019F003ECA4F016C018F117C0CE
:1028900019F118C01AF119C01BF13CC182F03DC1F9
:1028A00083F03EC184F03FC185F018C186F019C1A4
:1028B00087F01AC188F01BC189F00DECBCF082C012
:1028C0004CF183C04DF184C04EF185C04FF1B4C1CD
:1028D00086F0B5C187F0B6C188F0B7C189F04CC1A8
:1028E00082F04DC183F04EC184F04FC185F00DECF4
:1028F000BCF082C098F183C099F184C09AF185C080
:102900009BF1000E0001826F000E836F800E846FBA
:102910003F0E856F98C186F099C187F09AC188F003
:102920009BC189F00DECBCF082C0B4F183C0B5F15D
:1029300084C0B6F185C0B7F1B4C1B8F1B5C1B9F181
:10294000B6C1BAF1B7C1BBF1B8C1ACF1B9C1ADF113
:10295000BAC1AEF1BBC1AFF180C1CFF081C1D0F03F
:1029600082C1D1F083C1D2F0170ED8900001CF37C9
:10297000D037D137D237E82EB5EF94F0CF510101DF
:10298000AC270001D0510101AD230001D15101015B
:10299000AE230001D2510101AF23170E0001CF6F0A
:1029A000ACC1D0F0ADC1D1F0AEC1D2F0AFC1D3F067
:1029B000CF67DDEF94F0E5EF94F0D335D333D23326
:1029C000D133D033CF2FD8EF94F00001D3BFF5EF40
:1029D00094F0D351D211D11106E1D005D8B0F3EF64
:1029E00094F0F5EF94F00DEF95F0B4C182F0B5C11D
:1029F00083F0B6C184F0B7C185F080C186F081C193
:102A000087F0F5ECAEF082C0B4F183C0B5F184C0BC
:102A1000B6F185C0B7F11DEF95F0ACC1B8F1ADC10D
:102A2000B9F1AEC1BAF1AFC1BBF1B8C1B4F1B9C12E
:102A3000B5F1BAC1B6F1BBC1B7F188C16DF089C1BA
:102A40006EF08AC16FF08BC170F0B4C171F0B5C186
:102A500072F0B6C173F0B7C174F011ECABF06DC099
:102A6000C7F06EC0C8F06FC0C9F070C0CAF01200E5
:102A7000000E0101DC6F000EDB6FF8C0EDF1F9C054
:102A8000EEF1FAC0EFF1FBC0F0F1F0BF4CEF95F0C2
:102A90004AEF95F062EF95F0000EDC6F010EDB6FF0
:102AA000EDC19EF0EEC19FF0EFC1A0F0F0C1A1F02A
:102AB00092ECBCF09EC0EDF19FC0EEF1A0C0EFF132
:102AC000A1C0F0F1000E0101F46F000EF36FFDC123
:102AD000DFF1FEC1E0F1DB51DC11D8A472EF95F01B
:102AE00074EF95F07BEF95F044A479EF95F07BEFD0
:102AF00095F095EF95F0DB51DC11D8A482EF95F0BD
:102B000084EF95F08AEF95F0000EC26F2B0EC16F27
:102B10008EEF95F0000EC26F2D0EC16FC1C187F20E
:102B2000F34BF42BDF07D8A0E007EDC116F0EEC1A0
:102B300017F0EFC118F0F0C119F089ECB7F01604E6
:102B40001710D8A4A6EF95F0A8EF95F001EF96F036
:102B5000BF0E0101BC6FFF0EBD6F0001FC510101F2
:102B6000BE6FBF6BBC51BE27BD51BF23BF510AE131
:102B70001A0EBE5DD8A0BFEF95F0C2EF95F0010E22
:102B8000C3EF95F0000EC36FC46BC351C411D8B42A
:102B9000CCEF95F0CEEF95F0DCEF95F0870EF325B6
:102BA000166E020EF421176EEC0E186EFF0E196EE3
:102BB0008CECBBF0E8EF95F0870EF325166E020E55
:102BC000F421176EF40E186EFF0E196E8CECBBF02C
:102BD0000101FD0EDF27FF0EE023F6C026F0F7C04F
:102BE00027F0870E286E020E296EDFC12AF0E0C1A1
:102BF0002BF0A3ECB9F026C0F6F027C0F7F076EF83
:102C00009BF0EDC116F0EEC117F0EFC118F0F0C166
:102C100019F089ECB7F016501710D8A412EF96F0FF
:102C200014EF96F056EF96F0BF0E0101BC6FFF0E49
:102C3000BD6F0001FC510101BE6FBF6BBC51BE27CF
:102C4000BD51BF23BF510AE11A0EBE5DD8A02BEFC4
:102C500096F02EEF96F0010E2FEF96F0000EC56F56
:102C6000C66BC551C611D8B438EF96F03AEF96F05E
:102C700048EF96F0870EF325166E020EF421176EBC
:102C8000F00E186EFF0E196E8CECBBF0E8EF95F0AD
:102C9000870EF325166E020EF421176EF80E186ECD
:102CA000FF0E196E8CECBBF0E8EF95F0000E010101
:102CB000F56F000EF66F800EF76F3F0EF86F000E87
:102CC000F26F000EF16FEDC116F0EEC117F0EFC11B
:102CD00018F0F0C119F0000E1A6E000E1B6E000EF7
:102CE0001C6E000E1D6E5CECBAF0D8B07AEF96F058
:102CF0007CEF96F002EF97F09BEF96F0F5C16DF048
:102D0000F6C16EF0F7C16FF0F8C170F0000E716F90
:102D1000000E726F200E736F410E746F11ECABF0EA
:102D20006DC0F5F16EC0F6F16FC0F7F170C0F8F14B
:102D30000101F14BF22BEDC18AF0EEC18BF0EFC136
:102D40008CF0F0C18DF0000E0001716F000E726FFB
:102D5000200E736F410E746FF5C16DF0F6C16EF009
:102D6000F7C16FF0F8C170F011ECABF06DC08EF0F0
:102D70006EC08FF06FC090F070C091F006ECB7F0AD
:102D80000001D8B0C6EF96F0C8EF96F07EEF96F04F
:102D9000E8EF96F0F5C126F0F6C127F0F7C128F06C
:102DA000F8C129F0000E2A6E000E2B6E200E2C6E3C
:102DB000410E2D6E27ECADF026C0F5F127C0F6F1DF
:102DC00028C0F7F129C0F8F10101F107D8A0F207F6
:102DD000EDC18AF0EEC18BF0EFC18CF0F0C18DF047
:102DE000F5C18EF0F6C18FF0F7C190F0F8C191F007
:102DF00006ECB7F00001D8A000EF97F002EF97F0D3
:102E0000CAEF96F0FCC01CF01D6A5CECBBF01C50D5
:102E10000101E26FE2C1E1F1670EE219D8A413EFFC
:102E200097F015EF97F03DEF97F00001FD51FE117F
:102E3000D8A41DEF97F01FEF97F023EF97F0000E47
:102E4000FE6F010EFD6FFEBF30EF97F0FE5106E101
:102E5000FD05D8B02EEF97F030EF97F037EF97F0F1
:102E6000000E0101DE6F060EDD6F47EF97F0FDC02B
:102E7000DDF1FEC0DEF147EF97F00001FEBF43EF4A
:102E800097F045EF97F030EF97F037EF97F0670E38
:102E90000101E219D8A44FEF97F051EF97F080EFBE
:102EA00097F0F2AF5FEF97F0FC0EF15DFF0EF25975
:102EB000D8A05DEF97F05FEF97F07EEF97F0FF0EF1
:102EC000BC6FFF0EBD6FDDC1BEF1DEC1BFF1BC51F5
:102ED000BE27BD51BF23F151BE5DBF51800AC06FF7
:102EE000F251800AC059D8A078EF97F07AEF97F0A6
:102EF0007EEF97F0660EE16F80EF97F0650EE16F61
:102F0000DDC1D3F1DEC1D4F1670EE219D8A48BEF95
:102F100097F08DEF97F09DEF97F0660EE119D8A42A
:102F200094EF97F096EF97F09FEF97F0F2BF9DEF39
:102F300097F09BEF97F09FEF97F0D34BD42B660E53
:102F4000E119D8A4A6EF97F0A8EF97F0C8EF97F093
:102F5000F2BFAFEF97F0ADEF97F0BBEF97F0000E39
:102F6000F56F000EF66F800EF76F3F0EF86F000ED4
:102F7000F26F000EF16F670EE219D8B4C2EF97F04E
:102F8000C4EF97F0C8EF97F0F151D327F251D42353
:102F9000000EEC6F000EEB6FEDC1E3F1EEC1E4F15A
:102FA000EFC1E5F1F0C1E6F1F5C1D5F1F6C1D6F119
:102FB000F7C1D7F1F8C1D8F159EF98F0E3C126F085
:102FC000E4C127F0E5C128F0E6C129F0F5C12AF0F7
:102FD000F6C12BF0F7C12CF0F8C12DF027ECADF0C5
:102FE00026C032F027C033F028C034F029C035F0B5
:102FF0002FECB1F032C0E7F133C0E8F134C0E9F1B1
:1030000035C0EAF1E7C1ECF0E8C1EDF0E9C1EEF05E
:10301000EAC1EFF082ECB6F0ECC0D9F1EDC0DAF124
:10302000E3C182F0E4C183F0E5C184F0E6C185F03C
:10303000F5C171F0F6C172F0F7C173F0F8C174F028
:10304000E7C16DF0E8C16EF0E9C16FF0EAC170F060
:1030500011ECABF06DC086F06EC087F06FC088F0E9
:1030600070C089F00DECBCF082C0E3F183C0E4F1E4
:1030700084C0E5F185C0E6F1F5C126F0F6C127F080
:10308000F7C128F0F8C129F0000E2A6E000E2B6E51
:10309000200E2C6E410E2D6E27ECADF026C0F5F102
:1030A00027C0F6F128C0F7F129C0F8F10101EB4B78
:1030B000EC2BD351EB5DEC51800ABC6FD451800AEC
:1030C000BC59D8A066EF98F068EF98F0DEEF97F063
:1030D000F5C16DF0F6C16EF0F7C16FF0F8C170F098
:1030E000000E0001716F000E726FA00E736F400E24
:1030F000746F11ECABF06DC0E7F16EC0E8F16FC01A
:10310000E9F170C0EAF1E3C18AF0E4C18BF0E5C1F6
:103110008CF0E6C18DF0E7C18EF0E8C18FF0E9C117
:1031200090F0EAC191F006ECB7F00001D8B09BEF47
:1031300098F09DEF98F0A8EF98F0000E0101E76F6E
:10314000000EE86F000EE96F000EEA6FD1EF98F005
:10315000E3C116F0E4C117F0E5C118F0E6C119F0BB
:10316000E7C11AF0E8C11BF0E9C11CF0EAC11DF08B
:103170005CECBAF0D8A0BFEF98F0C1EF98F0D1EFB7
:1031800098F00101D9B1C7EF98F0C9EF98F0D1EFED
:1031900098F0000EE76F000EE86F000EE96F000E6A
:1031A000EA6FEDC116F0EEC117F0EFC118F0F0C1F3
:1031B00019F0E7C11AF0E8C11BF0E9C11CF0EAC13F
:1031C0001DF003ECA4F016C0E3F117C0E4F118C041
:1031D000E5F119C0E6F1E3C18AF0E4C18BF0E5C185
:1031E0008CF0E6C18DF0000E0001716F000E726F61
:1031F000200E736F410E746FD5C16DF0D6C16EF0A5
:10320000D7C16FF0D8C170F011ECABF06DC08EF08B
:103210006EC08FF06FC090F070C091F006ECB7F008
:103220000001D8A016EF99F018EF99F042EF99F04D
:103230000101F14BF22BD5C16DF0D6C16EF0D7C1B3
:103240006FF0D8C170F0000E0001716F000E726F48
:10325000200E736F410E746F11ECABF06DC0D5F1A1
:103260006EC0D6F16FC0D7F170C0D8F1660E010103
:10327000E119D8A43EEF99F040EF99F042EF99F0B0
:10328000D34BD42BD5C1F5F1D6C1F6F1D7C1F7F1A7
:10329000D8C1F8F1650E0101E119D8B452EF99F0E7
:1032A00054EF99F05AEF99F0F1C1D1F1F2C1D2F196
:1032B0005EEF99F0000ED26F000ED16F000ED06F4E
:1032C000000ECF6F000ECE6F000ECD6F000EEC6FB4
:1032D000000EEB6F5AEF9AF0E3C126F0E4C127F03D
:1032E000E5C128F0E6C129F0F5C12AF0F6C12BF0BE
:1032F000F7C12CF0F8C12DF027ECADF026C032F06C
:1033000027C033F028C034F029C035F02FECB1F0DD
:1033100032C0E7F133C0E8F134C0E9F135C0EAF179
:10332000E7C1ECF0E8C1EDF0E9C1EEF0EAC1EFF081
:1033300082ECB6F0ECC0D9F1EDC0DAF144B8A3EFFD
:1033400099F0A5EF99F0C3EF99F00101D951DA1185
:10335000D8A4ADEF99F0AFEF99F0C3EF99F0670EF5
:10336000E219D8A4B6EF99F0B8EF99F0C3EF99F04D
:10337000D2BFBFEF99F0BDEF99F0C3EF99F0CD4BFD
:10338000CE2B0EEF9AF00101CF51D011D8A4CBEF84
:1033900099F0CDEF99F0F7EF99F0D2BFD4EF99F013
:1033A000D2EF99F0F7EF99F0870EF325D96E020E60
:1033B000F421DA6E2E0EDF6EF34BF42BDF07D8A06C
:1033C000E007000ED06F010ECF6FF7EF99F0870E78
:1033D000F325D96E020EF421DA6E300EDF6EF34B58
:1033E000F42BDF07D8A0E007CD07D8A0CE07CD513A
:1033F000CE11D8A4FEEF99F000EF9AF0E7EF99F024
:10340000870EF325D96E020EF421DA6ED951300FF2
:10341000DF6EF34BF42BDF07D8A0E007E3C182F0A7
:10342000E4C183F0E5C184F0E6C185F0F5C171F037
:10343000F6C172F0F7C173F0F8C174F0E7C16DF036
:10344000E8C16EF0E9C16FF0EAC170F011ECABF0C9
:103450006DC086F06EC087F06FC088F070C089F0D4
:103460000DECBCF082C0E3F183C0E4F184C0E5F16F
:1034700085C0E6F1F5C126F0F6C127F0F7C128F0C6
:10348000F8C129F0000E2A6E000E2B6E200E2C6E55
:10349000410E2D6E27ECADF026C0F5F127C0F6F1F8
:1034A00028C0F7F129C0F8F10101D107D8A0D2074F
:1034B000EB4BEC2BD351EB5DEC51800ABC6FD4513C
:1034C000800ABC59D8B067EF9AF069EF9AF077EFAD
:1034D0009AF0F4BF75EF9AF0F45109E14B0EF35DE9
:1034E000D8A075EF9AF077EF9AF06CEF99F0CF5182
:1034F000D011D8A47EEF9AF080EF9AF091EF9AF075
:1035000044A885EF9AF087EF9AF091EF9AF0870E32
:10351000F325D96E020EF421DA6E2E0EDF6EF34B18
:10352000F42B870EF325D96E020EF421DA6E000E0D
:10353000DF6E650EE119D8A4A0EF9AF0A2EF9AF021
:10354000EDEF95F0000EEC6F4F0EEB6F870EEB2555
:10355000D96E020EEC21DA6E000EDF6E000EDC6F0B
:10356000000EDB6FF2BFB9EF9AF0B7EF9AF0C1EF40
:103570009AF0000EDC6F010EDB6FF16DF21FD8B018
:10358000F22B000EDE6F020EDD6FF2EF9AF0EB070A
:10359000D8A0EC07870EEB25D96E020EEC21DA6E6F
:1035A000F1C116F0F2C117F0000E196E0A0E186E76
:1035B00004ECBAF01650300FDF6EF1C116F0F2C114
:1035C00017F0000E196E0A0E186E41ECB9F016C015
:1035D000F1F117C0F2F10101DD07D8A0DE07DF0726
:1035E000D8A0E007F151F211D8A4F9EF9AF0FBEF5F
:1035F0009AF0C7EF9AF0DEBF08EF9BF0DE5106E1CC
:10360000DD05D8B006EF9BF008EF9BF0C7EF9AF00E
:10361000EB07D8A0EC07DB51DC11D8A412EF9BF02C
:1036200014EF9BF01AEF9BF0000EC86F2B0EC76FC4
:103630001EEF9BF0000EC86F2D0EC76F870EEB2597
:10364000D96E020EEC21DA6EC7C1DFFFDF07D8A00A
:10365000E007EB07D8A0EC07BF0EBC6FFF0EBD6FF5
:103660000001FC510101BE6FBF6BBC51BE27BD51B3
:10367000BF23BF510AE11A0EBE5DD8A042EF9BF0F6
:1036800045EF9BF0010E46EF9BF0000ECB6FCC6B2D
:10369000CB51CC11D8A44FEF9BF051EF9BF057EFDB
:1036A0009BF0000ECA6F650EC96F5BEF9BF0000EBA
:1036B000CA6F450EC96F870EEB25D96E020EEC213D
:1036C000DA6EC9C1DFFFDF07D8A0E007870EF32558
:1036D000166E020EF421176E870EEB25186E020E81
:1036E000EC21196E8CECBBF0EDEF95F012000B0E97
:1036F000BA6E000EB16E010ECD6E090EBC6EC40E18
:10370000BB6E000ECF6E000ECE6E9890869098988D
:1037100086889368000E0201636F000E646F7A0E54
:10372000656F450E666F81500A0DF3CF30F2F4CF0E
:1037300031F230C216F031C217F0000E17BEFF0E84
:10374000186E196E010E47ECB4F016C067F217C080
:1037500068F218C069F219C06AF2000E496E0D0EC7
:10376000486E000E0001716F000E726F000E736FD5
:10377000400E746F63C22AF064C22BF065C22CF055
:1037800066C22DF067C226F068C227F069C228F031
:103790006AC229F027ECADF026C06DF027C06EF0AC
:1037A00028C06FF029C070F011ECABF06DC057F27B
:1037B0006EC058F26FC059F270C05AF257C26DF025
:1037C00058C26EF059C26FF05AC270F0DB0E0001A1
:1037D000716F0F0E726F490E736F400E746F11ECA4
:1037E000ABF06DC073F26EC074F26FC075F270C052
:1037F00076F273C2DEF174C2DFF175C2E0F176C217
:10380000E1F156EC9EF0DEC15BF2DFC15CF2E0C19B
:103810005DF2E1C15EF25BC26DF05CC26EF05DC252
:103820006FF05EC270F0000E0001716F000E726FDB
:10383000000E736F400E746F11ECABF06DC047F269
:103840006EC048F26FC049F270C04AF2000E020129
:103850004B6F000E4C6F000E4D6F000E4E6F73C21B
:103860006DF074C26EF075C26FF076C270F0000E2B
:103870000001716F000E726F800E736FBF0E746F58
:1038800011ECABF06DC06BF26EC06CF26FC06DF2FC
:1038900070C06EF26BC2DEF16CC2DFF16DC2E0F19E
:1038A0006EC2E1F156EC9EF0DEC14FF2DFC150F284
:1038B000E0C151F2E1C152F273C26DF074C26EF018
:1038C00075C26FF076C270F0000E0001716F000ECD
:1038D000726F000E736FC00E746F11ECABF06DC0A1
:1038E0006BF26EC06CF26FC06DF270C06EF26BC2A4
:1038F000DEF16CC2DFF16DC2E0F16EC2E1F156ECB7
:103900009EF0DEC153F2DFC154F2E0C155F2E1C1D5
:1039100056F248C016F049C017F0000E17BEFF0E51
:10392000186E196E010E47ECB4F016C06FF217C096
:1039300070F218C071F219C072F26FC2CBF070C28F
:10394000CCF071C2CDF072C2CEF0000E0001C76F94
:10395000000EC86F000EC96F400ECA6F00EC80F0F9
:10396000C7C05FF2C8C060F2C9C061F2CAC062F2EB
:1039700047C271F048C272F049C273F04AC274F093
:103980005FC26DF060C26EF061C26FF062C270F033
:1039900011ECABF06DC0D8F06EC0D9F06FC0DAF0AA
:1039A00070C0DBF03AECB2F0D8C0ECF0D9C0EDF06A
:1039B000DAC0EEF0DBC0EFF082ECB6F0ECC0E7F27C
:1039C000EDC0E8F2EEC0E9F2EFC0EAF2000E00014D
:1039D000CB6F000ECC6F200ECD6F410ECE6F000E60
:1039E000C76F000EC86F000EC96F400ECA6F00ECA3
:1039F00080F0C7C077F2C8C078F2C9C079F2CAC0F7
:103A00007AF24BC271F04CC272F04DC273F04EC2EA
:103A100074F077C26DF078C26EF079C26FF07AC23E
:103A200070F011ECABF06DC0D8F06EC0D9F06FC083
:103A3000DAF070C0DBF03AECB2F0D8C0ECF0D9C0EC
:103A4000EDF0DAC0EEF0DBC0EFF082ECB6F0ECC0E7
:103A5000E3F2EDC0E4F2EEC0E5F2EFC0E6F2000EF4
:103A60000001CB6F000ECC6F200ECD6F410ECE6FDC
:103A7000000EC76F000EC86F000EC96F400ECA6FF0
:103A800000EC80F0C7C077F2C8C078F2C9C079F204
:103A9000CAC07AF24FC271F050C272F051C273F0D4
:103AA00052C274F077C26DF078C26EF079C26FF0D6
:103AB0007AC270F011ECABF06DC0D8F06EC0D9F0E6
:103AC0006FC0DAF070C0DBF03AECB2F0D8C0ECF0C6
:103AD000D9C0EDF0DAC0EEF0DBC0EFF082ECB6F06A
:103AE000ECC0DFF2EDC0E0F2EEC0E1F2EFC0E2F2D6
:103AF000000E0001CB6F000ECC6F200ECD6F410E7B
:103B0000CE6F000EC76F000EC86F000EC96F400E5B
:103B1000CA6F00EC80F0C7C077F2C8C078F2C9C0A5
:103B200079F2CAC07AF253C271F054C272F055C22F
:103B300073F056C274F077C26DF078C26EF079C23D
:103B40006FF07AC270F011ECABF06DC0D8F06EC0BF
:103B5000D9F06FC0DAF070C0DBF03AECB2F0D8C048
:103B6000ECF0D9C0EDF0DAC0EEF0DBC0EFF082ECA3
:103B7000B6F0ECC0DBF2EDC0DCF2EEC0DDF2EFC07F
:103B8000DEF248C016F049C017F0000E17BEFF0E57
:103B9000186E196E010E47ECB4F016C06FF217C024
:103BA00070F218C071F219C072F26FC2CBF070C21D
:103BB000CCF071C2CDF072C2CEF0000E0001C76F22
:103BC000000EC86F000EC96F400ECA6F00EC80F087
:103BD000C7C0D8F0C8C0D9F0C9C0DAF0CAC0DBF09D
:103BE0003AECB2F0D8C0ECF0D9C0EDF0DAC0EEF0AB
:103BF000DBC0EFF082ECB6F0ECC0D7F2EDC0D8F24B
:103C0000EEC0D9F2EFC0DAF273ECBDF0B1ECBAF06D
:103C1000B70E1A6EFF0E1B6E000E1D6E010E1C6E8F
:103C2000DEECB8F0320E02011E6F020E1F6FCA0EDC
:103C3000206FFF0E216F63C222F264C223F265C2BD
:103C400024F266C225F2BBECBBF0320E1A6E020EF5
:103C50001B6E000E1D6E020E1C6EDEECB8F0320EF6
:103C600002011E6F020E1F6FDB0E206FFF0E216F11
:103C700067C222F268C223F269C224F26AC225F244
:103C8000BBECBBF0320E1A6E020E1B6E000E1D6EE8
:103C9000030E1C6EDEECB8F0D08EA280A190A08046
:103CA000F29CF28E52EF9EF007EF00F0DEC104F2BC
:103CB000DFC105F2E0C106F2E1C107F204C21AF267
:103CC00005C21BF206C21CF207C21DF21AC2E2F1C3
:103CD0001BC2E3F11CC2E4F11DC2E5F1200E77EF37
:103CE0009EF00101D890E533E433E333E233E82E6C
:103CF00071EF9EF0E2C114F2E3C115F202011D9FC3
:103D0000DB0E1A5D0F0E1B59490E1C593F0E1D5933
:103D1000D8B08DEF9EF08FEF9EF0B9EF9EF0800E41
:103D20001C5D390E1D59D8B098EF9EF09AEF9EF0A9
:103D3000A5EF9EF0000E0101DE6F000EDF6F800E1A
:103D4000E06F3F0EE16F2DEFA1F0DEC182F0DFC129
:103D500083F0E0C184F0E1C185F045ECB3F082C0AE
:103D6000DEF183C0DFF184C0E0F185C0E1F12DEF29
:103D7000A1F0D20E1A5D530E1B597B0E1C59400E3A
:103D80001D59D8B0C6EF9EF0C8EF9EF092EF9FF09D
:103D9000E40E1A5DCB0E1B59160E1C59400E1D5910
:103DA000D8A0D5EF9EF0D7EF9EF034EF9FF01451DE
:103DB0001511D8A4DEEF9EF0E0EF9EF0FCEF9EF030
:103DC000DEC116F0DFC117F0E0C118F0E1C119F053
:103DD000DB0E1A6E0F0E1B6E490E1C6EC00E1D6E92
:103DE00003ECA4F016C008F217C009F218C00AF2DA
:103DF00019C00BF216EF9FF0DEC116F0DFC117F00D
:103E0000E0C118F0E1C119F0DB0E1A6E0F0E1B6E47
:103E1000490E1C6E400E1D6E03ECA4F016C008F295
:103E200017C009F218C00AF219C00BF208C282F0DA
:103E300009C283F00AC284F00BC285F045ECB3F0EE
:103E400082C09EF083C09FF084C0A0F085C0A1F026
:103E500092ECBCF09EC0DEF19FC0DFF1A0C0E0F1AB
:103E6000A1C0E1F12DEFA1F014511511D8B43BEF31
:103E70009FF03DEF9FF06BEF9FF0DEC116F0DFC1CA
:103E800017F0E0C118F0E1C119F0DB0E1A6E0F0E49
:103E90001B6EC90E1C6E3F0E1D6E03ECA4F016C007
:103EA00010F217C011F218C012F219C013F210C2AA
:103EB000A2F011C2A3F012C2A4F013C2A5F014EC38
:103EC000B0F0A2C0DEF1A3C0DFF1A4C0E0F1A5C054
:103ED000E1F12DEFA1F0DB0E0001826F0F0E836F79
:103EE000C90E846F3F0E856FDEC186F0DFC187F09B
:103EF000E0C188F0E1C189F00DECBCF082C0A2F015
:103F000083C0A3F084C0A4F085C0A5F014ECB0F089
:103F1000A2C0DEF1A3C0DFF1A4C0E0F1A5C0E1F1D1
:103F20002DEFA1F0D60E1A5D310E1B59E20E1C5971
:103F3000400E1D59D8B09FEF9FF0A1EF9FF04FEFBB
:103F4000A0F0E00E1A5DED0E1B59AF0E1C59400E8D
:103F50001D59D8A0AEEF9FF0B0EF9FF003EFA0F097
:103F600014511511D8A4B7EF9FF0B9EF9FF0D5EF1A
:103F70009FF0DEC116F0DFC117F0E0C118F0E1C11B
:103F800019F0DB0E1A6E0F0E1B6EC90E1C6EC00EE2
:103F90001D6E03ECA4F016C00CF217C00DF218C091
:103FA0000EF219C00FF2EFEF9FF0DEC116F0DFC185
:103FB00017F0E0C118F0E1C119F0DB0E1A6E0F0E18
:103FC0001B6EC90E1C6E400E1D6E03ECA4F016C0D5
:103FD0000CF217C00DF218C00EF219C00FF20CC28D
:103FE00082F00DC283F00EC284F00FC285F045EC62
:103FF000B3F082C0DEF183C0DFF184C0E0F185C0A0
:10400000E1F12DEFA1F014511511D8B40AEFA0F091
:104010000CEFA0F033EFA0F0E40E0001826FCB0EA6
:10402000836F960E846FC00E856FDEC186F0DFC190
:1040300087F0E0C188F0E1C189F00DECBCF082C0EE
:10404000A2F083C0A3F084C0A4F085C0A5F014EC56
:10405000B0F0A2C0DEF1A3C0DFF1A4C0E0F1A5C0C2
:10406000E1F12DEFA1F0DEC116F0DFC117F0E0C1E4
:1040700018F0E1C119F0E40E1A6ECB0E1B6E960E0D
:104080001C6EC00E1D6E03ECA4F016C010F217C01B
:1040900011F218C012F219C013F257EF9FF0800E00
:1040A0001C5D7F0E1D59D8A058EFA0F05AEFA0F06C
:1040B00076EFA0F0DEC182F0DFC183F0E0C184F0D2
:1040C000E1C185F0DEC186F0DFC187F0E0C188F094
:1040D000E1C189F00DECBCF082C0DEF183C0DFF1FC
:1040E00084C0E0F185C0E1F12DEFA1F0DEC1F6F072
:1040F000DFC1F7F0E0C1F8F0E1C1F9F0160E000100
:10410000FA6F020EFB6FC1ECA8F00001F6C000F2DE
:10411000F7C001F20201000E01BFFF0E026F036F34
:10412000F6EFA0F016C282F017C283F018C284F036
:1041300019C285F045ECB3F082C0DEF183C0DFF137
:1041400084C0E0F185C0E1F12DEFA1F016C29EF030
:1041500017C29FF018C2A0F019C2A1F092ECBCF0F7
:104160009EC0A2F09FC0A3F0A0C0A4F0A1C0A5F083
:1041700014ECB0F0A2C0DEF1A3C0DFF1A4C0E0F106
:10418000A5C0E1F12DEFA1F016C282F017C283F0B5
:1041900018C284F019C285F045ECB3F082C09EF0DD
:1041A00083C09FF084C0A0F085C0A1F092ECBCF069
:1041B0009EC0DEF19FC0DFF1A0C0E0F1A1C0E1F13F
:1041C0002DEFA1F016C2A2F017C2A3F018C2A4F0FE
:1041D00019C2A5F014ECB0F0A2C0DEF1A3C0DFF16B
:1041E000A4C0E0F1A5C0E1F12DEFA1F0030E001590
:1041F0000101E26F000E020101150101E36F000EE3
:10420000020102150101E46F000E02010315010114
:10421000E56FE551000AD8B426EFA1F0E2EFA0F077
:10422000E351000AD8B417EFA1F0E2EFA0F0E25199
:10423000000AD8B492EFA0F0010AD8B4A6EFA0F01B
:10424000030AD8B4C4EFA0F0E2EFA0F0E451000AF2
:10425000D8B410EFA1F0E2EFA0F0120002C2D9FF33
:1042600003C2DAFFDECFF6FFDDCFF7FF000EF86EF8
:104270000800F550250AD8A440EFA1F042EFA1F0C4
:10428000E5EFA3F002C2D9FF03C2DAFFDE2A000E77
:10429000DD22000E0101FE6F000EFD6FFDC144F036
:1042A000FEC145F00001FD69FE6902C2D9FF03C2EB
:1042B000DAFFDECFF6FFDDCFF7FF000EF86E080065
:1042C000F5502A0AD8A467EFA1F069EFA1F093EFA7
:1042D000A1F002C2D9FF03C2DAFFDE2A000EDD22FE
:1042E00004C2D9FF05C2DAFFDFCF06F2020EDE26D6
:1042F000DFCF07F2000EDD2206C2D9FF07C2DAFFC8
:10430000DECFFDF1DDCFFEF10101FEBF8CEFA1F0AC
:104310008AEFA1F0D9EFA1F04480FD6DFE1FD8B067
:10432000FE2BD9EFA1F002C2D9FF03C2DAFFDECF24
:104330001DF0DDCF1EF021ECB5F01DC0FDF11EC05B
:10434000FEF1AAEFA1F002C2D9FF03C2DAFFDE2A12
:10435000000EDD22D00E0201066FFF0E076F02C2B3
:10436000D9FF03C2DAFFDECFF6FFDDCFF7FF000E85
:10437000F86E0800F550086F096B065108270751C1
:10438000092309510AE10A0E085DD8A0CAEFA1F07D
:10439000CDEFA1F0010ECEEFA1F0000E0A6F0B6B76
:1043A0000A510B11D8A4D7EFA1F0D9EFA1F0A3EFD8
:1043B000A1F002C2D9FF03C2DAFFDECFF6FFDDCFE4
:1043C000F7FF000EF86E0800F5502E0AD8A4EBEFA8
:1043D000A1F0EDEFA1F070EFA2F0000E0001FE6F72
:1043E000000EFD6F02C2D9FF03C2DAFFDE2A000E03
:1043F000DD2202C2D9FF03C2DAFFDECFF6FFDDCF36
:10440000F7FF000EF86E0800F5502A0AD8A40BEF4B
:10441000A2F00DEFA2F02AEFA2F002C2D9FF03C270
:10442000DAFFDE2A000EDD2204C2D9FF05C2DAFF60
:10443000DFCF06F2020EDE26DFCF07F2000EDD220E
:1044400006C2D9FF07C2DAFFDECFFDF0DDCFFEF0F6
:1044500070EFA2F002C2D9FF03C2DAFFDECF1DF077
:10446000DDCF1EF021ECB5F01DC0FDF01EC0FEF04A
:1044700041EFA2F002C2D9FF03C2DAFFDE2A000E2A
:10448000DD22D00E0201066FFF0E076F02C2D9FFB8
:1044900003C2DAFFDECFF6FFDDCFF7FF000EF86EC6
:1044A0000800F550086F096B0651082707510923CA
:1044B00009510AE10A0E085DD8A061EFA2F064EF8D
:1044C000A2F0010E65EFA2F0000E0C6F0D6B0C5107
:1044D0000D11D8A46EEFA2F070EFA2F03AEFA2F0A7
:1044E00002C2D9FF03C2DAFFDECFF6FFDDCFF7FF4E
:1044F000000EF86E0800F5501C6E1D6A5CECBBF0F7
:104500001C500201146F1451D8B489EFA2F08BEF44
:10451000A2F0C9EFA2F002C2D9FF03C2DAFFDECFD8
:1045200006F2DDCF07F2010E0627000E072306C2B2
:10453000F6FF07C2F7FF000EF86E0800F5501C6E7C
:104540001D6A5CECBBF01C500201156F1551D8B40C
:10455000ACEFA2F0AEEFA2F0C9EFA2F002C2D9FF19
:1045600003C2DAFFDECF06F2DDCF07F2020E062726
:10457000000E072306C2F6FF07C2F7FF000EF86E13
:104580000800F5501C6E1D6A5CECBBF01C5002016B
:10459000166F660E1419D8A4D0EFA2F0D2EFA2F0D5
:1045A00014EFA3F002C2D9FF03C2DAFFDECFF6FF99
:1045B000DDCFF7FF000EF86E0800F5CF17F202C24C
:1045C000D9FF03C2DAFFDE2A000EDD2204C2D9FFC2
:1045D00005C2DAFFDFCF06F2040EDE26DFCF07F2D8
:1045E000000EDD2206C2D9FF07C2DAFFDECF10F2CD
:1045F000DECF11F2DECF12F2DECF13F200C2F6F000
:1046000001C2F7F010C2F8F011C2F9F012C2FAF0CC
:1046100013C2FBF017C2FCF038EC95F0F6C000F2C4
:10462000F7C001F202EFA4F0140E166E020E176E20
:10463000FC0E186EFF0E196E000E1B6E020E1A6E27
:1046400008ECB8F016501710D8A429EFA3F02BEF00
:10465000A3F0ABEFA3F002C2D9FF03C2DAFFDECFB3
:1046600006F2DDCF07F2010E02010627000E072336
:1046700006C2F6FF07C2F7FF000EF86E0800F5CF7E
:1046800017F2BF0E066FFF0E076F02C2D9FF03C2FB
:10469000DAFFDECFF6FFDDCFF7FF000EF86E080081
:1046A000F550086F096B0651082707510923095176
:1046B0000AE11A0E085DD8A060EFA3F063EFA3F043
:1046C000010E64EFA3F0000E0E6F0F6B0E510F1171
:1046D000D8B46DEFA3F06FEFA3F089EFA3F004C29D
:1046E000D9FF05C2DAFFDFCF06F2040EDE26DFCFE8
:1046F00007F2000EDD2206C2D9FF07C2DAFFDECFC5
:1047000010F2DECF11F2DECF12F2DECF13F2A1EF04
:10471000A3F004C2D9FF05C2DAFFDFCF06F2040E10
:10472000DE26DFCF07F2000EDD2206C2D9FF07C268
:10473000DAFFDECF10F2DECF11F2DECF12F2DECFE3
:1047400013F2020E02C2D9FF03C2DAFFDE26000E08
:10475000DD22FEEFA2F002C2D9FF03C2DAFFDECFF4
:10476000F6FFDDCFF7FF000EF86E0800F550250AC2
:10477000D8A4BDEFA3F0BFEFA3F0D7EFA3F002C220
:10478000D9FF03C2DAFFDE2A000EDD22000E176E0B
:10479000250E166E00C218F001C219F079ECB8F0BF
:1047A000000E0201016F010E006F02EFA4F002C2C1
:1047B000D9FF03C2DAFFDE2A000EDD22000E02015D
:1047C000016F000E006F02EFA4F002C2D9FF03C216
:1047D000DAFFDECFF6FFDDCFF7FF000EF86E080040
:1047E000F550166E176A00C218F001C219F079EC84
:1047F000B8F002C2D9FF03C2DAFFDE2A000EDD22C2
:10480000D0EFA3F012001950800B226E195019241A
:10481000246E18AE0EEFA4F010EFA4F011EFA4F088
:1048200024802450D8B417EFA4F019EFA4F02EEF91
:10483000A4F02428D8A41FEFA4F021EFA4F029EFBE
:10484000A4F0000E166E000E176E000E186E000E0D
:10485000196E188E000E196E36EFA4F0000E166E4B
:10486000000E176E000E186E000E196E1D50800B94
:10487000236E22502318D8B440EFA4F042EFA4F0E6
:1048800043EFA4F0228C1D501D24236E1CAE4BEF71
:10489000A4F04DEFA4F04EEFA4F023802350D8B441
:1048A00054EFA4F056EFA4F06BEFA4F02328D8A4A3
:1048B0005CEFA4F05EEFA4F066EFA4F0000E1A6EB9
:1048C000000E1B6E000E1C6E000E1D6E1C8E000E68
:1048D0001D6E73EFA4F0000E1A6E000E1B6E000E1C
:1048E0001C6E000E1D6E2450235CD8B07AEFA4F02D
:1048F0007CEFA4F0A3EFA4F022AC81EFA4F083EF4F
:10490000A4F085EFA4F0800E221A24C025F023C065
:1049100024F025C023F016C025F01AC016F025C0DB
:104920001AF017C025F01BC017F025C01BF018C0E7
:1049300025F01CC018F025C01CF019C025F01DC0C2
:1049400019F025C01DF0000E256E245023C01EF066
:104950001F6A1E5E000E1F5A1FBEB8EFA4F01F5044
:1049600009E11A0E1E5CD8A0B8EFA4F0BAEFA4F0CB
:10497000F1EFA4F01650171018101910D8A4C3EFB7
:10498000A4F0C6EFA4F0010EC7EFA4F0000E256E50
:10499000000E166E000E176E000E186E000E196EC9
:1049A00023C024F0FAEFA4F025A0D9EFA4F0DBEFA8
:1049B000A4F0E1EFA4F0D89025300109256EE3EFD3
:1049C000A4F0D890253216A0E8EFA4F0EAEFA4F006
:1049D000EBEFA4F0258E1934193218321732163243
:1049E000242A2350245CD8A0F8EFA4F0FAEFA4F016
:1049F000D4EFA4F022BCFFEFA4F001EFA5F041EF4B
:104A0000A5F02450D8A407EFA5F009EFA5F013EF07
:104A1000A5F0000E166E000E176E000E186E000E3A
:104A2000196E62EFA6F01A5016261B5017221C5062
:104A300018221D50192219A020EFA5F022EFA5F091
:104A4000CEEFA5F025A027EFA5F029EFA5F02FEFD9
:104A5000A5F0D89025300109256E31EFA5F0D8904A
:104A6000253216A036EFA5F038EFA5F039EFA5F006
:104A7000258E19341932183217321632242ACEEF05
:104A8000A5F01A50165C1B5017581C501858195096
:104A9000800A1E6E1D50800A1E58D8B052EFA5F035
:104AA00054EFA5F07FEFA5F016501A5C1E6E17505C
:104AB0001B581F6E18501C58206E19501D58216E1F
:104AC000FF0E1E24166EFF0E1F20176EFF0E2020F5
:104AD000186EFF0E2120196E800E221A256C2550AB
:104AE000D8A475EFA5F077EFA5F087EFA5F0010E3C
:104AF0001626000E17221822192287EFA5F01A5049
:104B0000165E1B50175A1C50185A1D50195A165031
:104B1000171018101910D8A490EFA5F092EFA5F077
:104B2000C7EFA5F02550D8A498EFA5F09AEFA5F00F
:104B3000C7EFA5F0000E166E000E176E000E186E71
:104B4000000E196E62EFA6F0D8901636173618369A
:104B5000193625AEAEEFA5F0B0EFA5F0B1EFA5F098
:104B6000168025A0B6EFA5F0B8EFA5F0BCEFA5F034
:104B7000D8802536BEEFA5F0D89025362450D8B47D
:104B8000C4EFA5F0C6EFA5F0C7EFA5F0240618AE58
:104B9000CCEFA5F0CEEFA5F0A4EFA5F0000E236EAC
:104BA00025AED5EFA5F0D7EFA5F0EFEFA5F025C026
:104BB0001EF07F0E1E16D8B4E0EFA5F0E2EFA5F0D0
:104BC000E6EFA5F0010E236EEFEFA5F016A0EBEFD8
:104BD000A5F0EDEFA5F0EFEFA5F0E2EFA5F0235083
:104BE000D8B4F5EFA5F0F7EFA5F022EFA6F0010E8F
:104BF0001626000E17221822192219A002EFA6F07D
:104C000004EFA6F022EFA6F016C01EF017C01FF0AA
:104C100018C020F019C021F02134213220321F3277
:104C20001E321EC016F01FC017F020C018F021C0A1
:104C300019F02428D8B41FEFA6F021EFA6F022EF38
:104C4000A6F0242A2428D8B428EFA6F02AEFA6F04C
:104C500032EFA6F02450D8A430EFA6F032EFA6F041
:104C600044EFA6F0000E166E000E176E000E186EC2
:104C7000000E196E2450D8A440EFA6F042EFA6F023
:104C800044EFA6F0000E226E24A049EFA6F04BEFF1
:104C9000A6F04EEFA6F0188E4FEFA6F0189ED89013
:104CA0002430196E22AE57EFA6F059EFA6F05AEF56
:104CB000A6F0198E16C016F017C017F018C018F01D
:104CC00019C019F0120096C0ABF097C0ACF098C0B4
:104CD000ADF099C0AEF0ABC0C3F0ACC0C4F0ADC095
:104CE000C5F0AEC0C6F0000E0001C3159A6F000EED
:104CF000C4159B6F800EC5159C6F7F0EC6159D6FEA
:104D0000800E9C1909E17F0E9D199A119B11D8A460
:104D10008CEFA6F08EEFA6F0BCEFA6F096C071F077
:104D200097C072F098C073F099C074F096C06DF09F
:104D300097C06EF098C06FF099C070F011ECABF0B6
:104D40006DC016F06EC017F06FC018F070C019F08B
:104D500096C01AF097C01BF098C01CF099C01DF0C7
:104D600003ECA4F016C096F017C097F018C098F0A6
:104D700019C099F0C0EFA8F0C6BFCBEFA6F0C6519E
:104D8000C511C41106E1C305D8B0C9EFA6F0CBEF39
:104D9000A6F007EFA7F0FF0EC3159A6FFF0EC4151C
:104DA0009B6FFF0EC5159C6F7F0EC6159D6F9A51A8
:104DB0009B119C119D11D8A4E0EFA6F0E2EFA6F0A4
:104DC000ECEFA6F096C096F097C097F098C098F0D8
:104DD00099C099F0C0EFA8F0C6BFF3EFA6F0F1EFCD
:104DE000A6F007EFA7F0000E436E210E426EEF0E05
:104DF000166EFF0E176E62ECBDF016C096F017C06F
:104E000097F018C098F019C099F0C0EFA8F0170EED
:104E10009A6FC3C09BF0C4C09CF0C5C09DF0C6C0D3
:104E20009EF09A6716EFA7F01EEFA7F09E359E330F
:104E30009D339C339B339A2F11EFA7F09BC0BBF09F
:104E40009CC0BCF09DC0BDF09EC0BEF00001BB5137
:104E5000BC11BD11BE11D8A430EFA7F032EFA7F0FE
:104E600062EFA7F0000EA76F000EA86F000EA96FEB
:104E7000000EAA6F47EFA7F0D890C337C437C537E5
:104E8000C637010EA727000EA823A923AA23C5AF62
:104E90004CEFA7F04EEFA7F03CEFA7F0FF0EA725D1
:104EA0009A6FFF0EA8219B6FFF0EA9219C6FFF0E2A
:104EB000AA219D6F9A51BB5F9B51BC5B9C51BD5B0E
:104EC0009D51BE5B810EBB27FF0EBC23FF0EBD2391
:104ED000FF0EBE23FF0EC3159A6FFF0EC4159B6F06
:104EE0007F0EC5159C6F000EC6159D6F000E9A11A2
:104EF000C36F000E9B11C46F800E9C11C56F000E16
:104F00009D11C66FBBA187EFA7F089EFA7F091EFC6
:104F1000A7F0C351C327C451C423C551C523C651EB
:104F2000C623BE35BE33BD33BC33BB33C351C327E9
:104F3000C451C423C551C523C651C623000EA36F57
:104F4000000EA46F000EA56F000EA66FA3C0AFF0F9
:104F5000A4C0B0F0A5C0B1F0A6C0B2F0000EBF6F03
:104F6000000EC06F000EC16F010EC26F00EFA8F0FF
:104F7000A351BF25B36FA451C021B46FA551C12166
:104F8000B56FA651C221B66FB351C35DB451C459B8
:104F9000B551C559C651800A9A6FB651800A9A59BF
:104FA000D8A0D5EFA7F0D7EFA7F0F3EFA7F0B35154
:104FB000BF25A36FB451C021A46FB551C121A56F06
:104FC000B651C221A66FB351C35FB451C45BB55192
:104FD000C55BB651C65BBF51AF27C051B023C151AD
:104FE000B123C251B223C351C327C451C423C551F5
:104FF000C523C651C623D890C233C133C033BF3393
:10500000BF51C011C111C211D8A409EFA8F00BEF14
:10501000A8F0B8EFA7F0C351C411C511C611D8B498
:1050200014EFA8F016EFA8F076EFA8F0000EB76F17
:10503000000EB86F800EB96F3F0EBA6FB7C08AF01E
:10504000B8C08BF0B9C08CF0BAC08DF0000E8E6F76
:10505000000E8F6F800E906F3F0E916F06ECB7F0D1
:105060000001D8A036EFA8F038EFA8F076EFA8F04E
:10507000000EB76F000EB86F800EB96F3F0EBA6F9B
:10508000000E8A6F000E8B6F800E8C6F3F0E8D6F3F
:10509000B7C08EF0B8C08FF0B9C090F0BAC091F030
:1050A00006ECB7F00001D8B058EFA8F05AEFA8F01E
:1050B00062EFA8F0020EAF27000EB023B123B22397
:1050C00076EFA8F0010EAF159A6F000EB0159B6F2A
:1050D000000EB1159C6F000EB2159D6F9A51AF274F
:1050E0009B51B0239C51B1239D51B223AFC09AF084
:1050F000B0C09BF0B1C09CF0B2C09DF09D359D3317
:105100009C339B339A33000E9A25C36F000E9B216C
:10511000C46F000E9C21C56F3F0E9D21C66FBBC0A2
:105120009AF0BCC09BF0BDC09CF0BEC09DF0170EB5
:10513000D8909A379B379C379D37E82E98EFA8F088
:105140009A51C3279B51C4239C51C5239D51C6230B
:10515000C3C0ABF0C4C0ACF0C5C0ADF0C6C0AEF0CB
:10516000ABC0B7F0ACC0B8F0ADC0B9F0AEC0BAF0EB
:10517000B7C096F0B8C097F0B9C098F0BAC099F02F
:10518000120036C0CAF137C0CBF138C0CCF139C0FB
:10519000CDF1F6C0CAF1F7C0CBF1F8C0CCF1F9C03F
:1051A000CDF1CAC1BCF1CBC1BDF1CCC1BEF1CDC105
:1051B000BFF1200EE2EFA8F00101D890BF33BE335B
:1051C000BD33BC33E82EDCEFA8F0BCC1C8F1BDC1D3
:1051D000C9F1FF0ECA15C46FFF0ECB15C56FFF0EC8
:1051E000CC15C66F7F0ECD15C76F800EC65D7F0EC6
:1051F000C759D8A0FEEFA8F000EFA9F025EFA9F05D
:10520000F6C082F0F7C083F0F8C084F0F9C085F0F2
:10521000F6C086F0F7C087F0F8C088F0F9C089F0D2
:105220000DECBCF0FAC0D9FFFBC0DAFF000182C070
:10523000DEFF83C0DEFF84C0DEFF85C0DEFF000E20
:10524000F76F000EF66F10EFABF0DB0EC45D0F0EC4
:10525000C559C90EC6594D0EC759D8B032EFA9F07D
:1052600034EFA9F029EFAAF0F6C016F0F7C017F056
:10527000F8C018F0F9C019F01CECBDF016C0D6F15A
:1052800017C0D7F118C0D8F119C0D9F1000E1A6EA5
:10529000000E1B6E000E1C6E3F0E1D6E830E000175
:1052A000716FF90E726F220E736F3F0E746FD6C15D
:1052B0006DF0D7C16EF0D8C16FF0D9C170F011ECAC
:1052C000ABF06DC016F06EC017F06FC018F070C074
:1052D00019F003ECA4F016C0ECF017C0EDF018C004
:1052E000EEF019C0EFF082ECB6F0ECC0DAF1EDC0F0
:1052F000DBF1EEC0DCF1EFC0DDF1DAC116F0DBC1AD
:1053000017F0DCC118F0DDC119F0010E47ECB4F064
:1053100016C0D2F117C0D3F118C0D4F119C0D5F11D
:10532000DA0E0001716F0F0E726FC90E736F3F0EB0
:10533000746FD2C16DF0D3C16EF0D4C16FF0D5C11E
:1053400070F011ECABF06DC086F06EC087F06FC0EE
:1053500088F070C089F0D6C182F0D7C183F0D8C17F
:1053600084F0D9C185F00DECBCF082C0CEF183C0D1
:10537000CFF184C0D0F185C0D1F1CEC182F0CFC1D0
:1053800083F0D0C184F0D1C185F0A30E0001716F0C
:10539000850E726F880E736F320E746FD2C16DF00E
:1053A000D3C16EF0D4C16FF0D5C170F011ECABF089
:1053B0006DC086F06EC087F06FC088F070C089F055
:1053C0000DECBCF0FAC0D9FFFBC0DAFF000182C0CF
:1053D000DEFF83C0DEFF84C0DEFF85C0DEFF01018B
:1053E000C851C911D8B4F7EFA9F0F9EFA9F023EF2C
:1053F000AAF0FAC0D9FFFBC0DAFFDECF9EF0DECF05
:105400009FF0DECFA0F0DECFA1F092ECBCF0FAC0AE
:10541000D9FFFBC0DAFF00019EC0DEFF9FC0DEFFA8
:10542000A0C0DEFFA1C0DEFFDAC1BCF1DBC1BDF16F
:105430000101BC1FBD1FBC4BBD2BBCC1F6F0BDC1E3
:10544000F7F010EFABF0DAC1F6F0DBC1F7F010EFD8
:10545000ABF0F6C016F0F7C017F0F8C018F0F9C0BE
:1054600019F01CECBDF016C0D6F117C0D7F118C06A
:10547000D8F119C0D9F1000E1A6E000E1B6E000E85
:105480001C6E3F0E1D6E830E0001716FF90E726F60
:10549000220E736F3F0E746FD6C16DF0D7C16EF0E0
:1054A000D8C16FF0D9C170F011ECABF06DC016F03F
:1054B0006EC017F06FC018F070C019F003ECA4F0C4
:1054C00016C0ECF017C0EDF018C0EEF019C0EFF008
:1054D00082ECB6F0ECC0DAF1EDC0DBF1EEC0DCF14D
:1054E000EFC0DDF1DAC116F0DBC117F0DCC118F056
:1054F000DDC119F0010E47ECB4F016C0D2F117C0AF
:10550000D3F118C0D4F119C0D5F1DA0E0001716FD2
:105510000F0E726FC90E736F3F0E746FD2C16DF0B4
:10552000D3C16EF0D4C16FF0D5C170F011ECABF007
:105530006DC086F06EC087F06FC088F070C089F0D3
:10554000D6C182F0D7C183F0D8C184F0D9C185F02B
:105550000DECBCF082C0CEF183C0CFF184C0D0F19D
:1055600085C0D1F1CEC182F0CFC183F0D0C184F02B
:10557000D1C185F0A30E0001716F850E726F880E88
:10558000736F320E746FD2C16DF0D3C16EF0D4C19F
:105590006FF0D5C170F011ECABF06DC086F06EC04D
:1055A00087F06FC088F070C089F00DECBCF082C04D
:1055B000C0F183C0C1F184C0C2F185C0C3F1010153
:1055C000C851C911D8B4E7EFAAF0E9EFAAF002EF89
:1055D000ABF0C0C19EF0C1C19FF0C2C1A0F0C3C179
:1055E000A1F092ECBCF0FAC0D9FFFBC0DAFF0001D9
:1055F0009EC0DEFF9FC0DEFFA0C0DEFFA1C0DEFFB9
:1056000014EFAAF0FAC0D9FFFBC0DAFFC0C1DEFF79
:10561000C1C1DEFFC2C1DEFFC3C1DEFF23EFAAF0BE
:10562000120000017051800B756F705170257B6FF7
:105630006FAF1DEFABF01FEFABF020EFABF07B8156
:105640007B51D8B426EFABF028EFABF03BEFABF0DB
:105650007B29D8A42EEFABF030EFABF038EFABF0F6
:10566000000E6D6F000E6E6F000E6F6F000E706F8C
:105670006F8F43EFABF0000E6D6F000E6E6F000E7C
:105680006F6F000E706F7451800B751B7451742511
:10569000766F73AF4EEFABF050EFABF051EFABF076
:1056A00076817651D8B457EFABF059EFABF06CEF91
:1056B000ABF07629D8A45FEFABF061EFABF069EF08
:1056C000ABF0000E716F000E726F000E736F000E64
:1056D000746F738F74EFABF0000E716F000E726F0A
:1056E000000E736F000E746F7651D8B47AEFABF082
:1056F0007CEFABF084EFABF07B51D8A482EFABF042
:1057000084EFABF08EEFABF0000E6D6F000E6E6F9E
:10571000000E6F6F000E706F26EFADF073516D03CA
:10572000F3CF80F0F4CF81F08051776F786B796B95
:105730007A6B81517C6F7D6B7E6B7F6B72516E03D8
:10574000F3CF80F0F4CF81F080517727000E7823DB
:1057500079237A2381517C27000E7D237E237F23AA
:1057600071516F03F3CF80F0F4CF81F08051772730
:10577000000E782379237A2381517C27000E7D2324
:105780007E237F2379C07AF078C079F077C078F0F3
:10579000776B71516E03F3CF80F0F4CF81F08051BD
:1057A000772781517823000E7923000E7A237251D6
:1057B0006D03F3CF80F0F4CF81F0805177278151D2
:1057C0007823000E7923000E7A2379C07AF078C00E
:1057D00079F077C078F0776B71516D03F3CF80F07B
:1057E000F4CF81F08051772781517823000E7923FF
:1057F000000E7A2373516E03F3CF80F0F4CF81F063
:1058000080517C2781517D23000E7E23000E7F2353
:1058100072516F03F3CF80F0F4CF81F080517C2779
:1058200081517D23000E7E23000E7F2373516F0371
:10583000F3CF80F0F4CF81F08051326E8151336E1E
:10584000346A356A34C035F033C034F032C033F0D6
:10585000326A32507C2733507D2334507E233550BA
:105860007F2377C032F078C033F079C034F07AC04B
:1058700035F0190E41EFACF0D89035323432333276
:105880003232E82E3CEFACF032507C2733507D238F
:1058900034507E2335507F2379C07AF078C079F078
:1058A00077C078F0776B76517BC032F0336A32265E
:1058B000000E3322820E3224806FFF0E3320816F60
:1058C00077EFACF0D8907C377D377E377F377AAF73
:1058D0006CEFACF06EEFACF06FEFACF07C81D89079
:1058E0007737783779377A378007D8A081077EAF46
:1058F0007CEFACF07EEFACF062EFACF0000E766FB8
:105900007AAF85EFACF087EFACF0ABEFACF0FF0E09
:105910007715326EFF0E7815336EFF0E7915346EE3
:105920007F0E7A15356E3250331034103510D8B4DE
:105930009CEFACF09EEFACF0A2EFACF0010E766FF6
:10594000ABEFACF07CA1A7EFACF0A9EFACF0ABEF04
:10595000ACF09EEFACF07651D8B4B1EFACF0B3EF51
:10596000ACF0D7EFACF0010E7C27000E7D237E2338
:105970007F237FA1BEEFACF0C0EFACF0D7EFACF06F
:105980007CC032F07DC033F07EC034F07FC035F093
:105990003534353234323332323232C07CF033C0B7
:1059A0007DF034C07EF035C07FF0804B812B81BF0D
