:020000040000FA
:0400000093EF11F079
:101000000050574D205349474E414C2047454E45CF
:101010005241544F52004672657175656E63792076
:1010200025386C75487A0044757479206379636C4F
:1010300065253975252500506572696F6420253155
:0910400031757573006C75000038
:10104A003EC0D9FF3FC0DAFFDECFF6FFDDCFF7FFA4
:10105A00000EF86E0800F550250AD8A437EF08F0FC
:10106A0039EF08F0A3EF09F03EC0D9FF3FC0DAFF1D
:10107A00DE2A000EDD22000E0001946F000E936F2F
:10108A0093C05DF094C05EF05B685C683EC0D9FFB7
:10109A003FC0DAFFDECFF6FFDDCFF7FF000EF86EB6
:1010AA000800F5502A0AD8A45DEF08F05FEF08F0AF
:1010BA0088EF08F03EC0D9FF3FC0DAFFDE2A000EF3
:1010CA00DD2240C0D9FF41C0DAFFDFCF42F0020E75
:1010DA00DE26DFCF43F0000EDD2242C0D9FF43C037
:1010EA00DAFFDECF93F0DDCF94F094BF81EF08F002
:1010FA007FEF08F0CDEF08F05D80936D941FD8B0B4
:10110A00942BCDEF08F03EC0D9FF3FC0DAFFDECF07
:10111A0008F0DDCF09F0C1EC0AF008C093F009C06D
:10112A0094F09FEF08F03EC0D9FF3FC0DAFFDE2AF5
:10113A00000EDD22D00E426EFF0E436E3EC0D9FF76
:10114A003FC0DAFFDECFF6FFDDCFF7FF000EF86E05
:10115A000800F550446E456A4250442643504522E1
:10116A0045500AE10A0E445CD8A0BEEF08F0C1EF70
:10117A0008F0010EC2EF08F0000E486E496A4850A6
:10118A004910D8A4CBEF08F0CDEF08F098EF08F09B
:10119A003EC0D9FF3FC0DAFFDECFF6FFDDCFF7FF53
:1011AA00000EF86E0800F550750AD8A4DFEF08F0B3
:1011BA00E1EF08F022EF09F03EC0D9FF3FC0DAFFA5
:1011CA00DE2A000EDD2240C0D9FF41C0DAFFDFCFA0
:1011DA0042F0020EDE26DFCF43F0000EDD2242C0CF
:1011EA00D9FF43C0DAFFDECF44F0DDCF45F044C07B
:1011FA004AF045C04BF04C6A4D6A4E6A4F6A506AD3
:10120A00516A3CC01CF03DC01DF04AC01EF04BC0E4
:10121A001FF04CC020F04DC021F04EC022F04FC04C
:10122A0023F050C024F051C025F0C1EC09F01CC0D5
:10123A003CF01DC03DF0C0EF09F03EC0D9FF3FC0F1
:10124A00DAFFDECF01F0DDCF02F0450E036E100E9D
:10125A00046E000E066E020E056ECEEC0CF0015006
:10126A000210D8A43BEF09F03DEF09F06BEF09F04B
:10127A00020E3EC0D9FF3FC0DAFFDE26000EDD2295
:10128A0040C0D9FF41C0DAFFDFCF42F0040EDE26AC
:10129A00DFCF43F0000EDD2242C0D9FF43C0DAFFA0
:1012AA00DECF44F0DECF45F0DECF46F0DECF47F0AA
:1012BA0044504A6E45504B6E46504C6E47504D6EE8
:1012CA004E6A4F6A506A516A06EF09F03EC0D9FF6A
:1012DA003FC0DAFFDECFF6FFDDCFF7FF000EF86E74
:1012EA000800F550250AD8A47DEF09F07FEF09F030
:1012FA0096EF09F03EC0D9FF3FC0DAFFDE2A000EA2
:10130A00DD22000E026E250E016E3CC003F03DC0C8
:10131A0004F029EC0EF0000E3D6E010E3C6EC0EF9B
:10132A0009F03EC0D9FF3FC0DAFFDE2A000EDD22F7
:10133A00000E3D6E000E3C6EC0EF09F03EC0D9FFB4
:10134A003FC0DAFFDECFF6FFDDCFF7FF000EF86E03
:10135A000800F550016E026A3CC003F03DC004F07B
:10136A0029EC0EF03EC0D9FF3FC0DAFFDE2A000E9C
:10137A00DD2290EF09F012005CBEC6EF09F0C8EF5B
:10138A0009F0C9EF09F05D925CBED6EF09F05C5036
:10139A0006E15B04D8B0D4EF09F0D6EF09F0DCEF30
:1013AA0009F0000E2F6E010E2E6EE0EF09F05BC001
:1013BA002EF05CC02FF093C030F094C031F01EC004
:1013CA0032F01FC033F020C034F021C035F022C003
:1013DA0036F023C037F024C038F025C039F0000EAB
:1013EA003B6E1F0E3A6E000E0001B46F73EF0AF0E7
:1013FA003A06D8A03B06950E3A24D96E000E3B2039
:10140A00DA6E32C001F033C002F034C003F035C0E6
:10141A0004F036C005F037C006F038C007F039C00E
:10142A0008F00A0E096E000E0A6E000E0B6E000E10
:10143A000C6E000E0D6E000E0E6E000E0F6E000E7C
:10144A00106EC1EC0DF001C026F002C027F003C0F7
:10145A0028F004C029F005C02AF006C02BF007C006
:10146A002CF008C02DF02650300FDF6E2E06D8A0C3
:10147A002F063006D8A0310632C001F033C002F080
:10148A0034C003F035C004F036C005F037C006F0AA
:10149A0038C007F039C008F00A0E096E000E0A6E4D
:1014AA00000E0B6E000E0C6E000E0D6E000E0E6E10
:1014BA00000E0F6E000E106E49EC0DF001C032F0F6
:1014CA0002C033F003C034F004C035F005C036F072
:1014DA0006C037F007C038F008C039F03A503B1060
:1014EA00D8B47AEF0AF07CEF0AF0ACEF0AF0325087
:1014FA003310341035103610371038103910D8A47C
:10150A0089EF0AF08BEF0AF0FDEF09F02FBE98EF92
:10151A000AF02F5006E12E04D8B096EF0AF098EFA1
:10152A000AF0FDEF09F031BEA3EF0AF0315008E1ED
:10153A003004D8A0A3EF0AF0A5EF0AF0ACEF0AF046
:10154A005DB2AAEF0AF0ACEF0AF0FDEF09F01CC099
:10155A0011F01DC012F0950E3A24136E000E3B20B6
:10156A00146E30C015F031C016F053EC0FF011C0F4
:10157A001CF012C01DF01200000E166E000E156E41
:10158A00000E0F6E000E0E6ECDEF0AF0084A092A01
:10159A00010E146E08C0F6FF09C0F7FF000EF86EC0
:1015AA000800F550200AD8B4DDEF0AF0DFEF0AF0A0
:1015BA00FEEF0AF0F70E0A6EFF0E0B6E08C0F6FF7A
:1015CA0009C0F7FF000EF86E0800F5500C6E0D6AA0
:1015DA000A500C260B500D220D5009E1050E0C5C29
:1015EA00D8A0FAEF0AF0FCEF0AF0FEEF0AF0000EBC
:1015FA00146E14C010F0116A10501110D8A408EF1C
:10160A000BF00AEF0BF0CBEF0AF014EF0BF0000E21
:10161A000F6E010E0E6E084A092A4DEF0BF008C034
:10162A00F6FF09C0F7FF000EF86E0800F5500A6EC3
:10163A000B6A0B50000AD8B425EF0BF04DEF0BF0F4
:10164A000A502B0AD8B410EF0BF0060AD8B40CEFE4
:10165A000BF04DEF0BF015C001F016C002F0000EB2
:10166A00046E0A0E036E71EC11F008C0F6FF09C091
:10167A00F7FF000EF86E0800F550015E000E025AE0
:10168A00300E0124156E000E0220166E10EF0BF0BC
:10169A00D00E0A6EFF0E0B6E08C0F6FF09C0F7FFE8
:1016AA00000EF86E0800F5500C6E0D6A0A500C26F2
:1016BA000B500D220D500AE10A0E0C5CD8A068EFFF
:1016CA000BF06BEF0BF0010E6CEF0BF0000E126ECD
:1016DA00136A12501310D8A475EF0BF077EF0BF0C2
:1016EA0030EF0BF00E500F10D8A47EEF0BF080EF06
:1016FA000BF08EEF0BF015C00AF016C00BF00A1EA5
:10170A000B1E0A4A0B2A0AC008F00BC009F092EF16
:10171A000BF015C008F016C009F01200000E000107
:10172A00906F000E8F6F000E8C6F000E8B6F000E85
:10173A008E6F000E8D6F86A2A5EF0BF0A7EF0BF050
:10174A00ADEF0BF0000E8E6F100E8D6FBEEF0BF02B
:10175A0086A0B2EF0BF0B4EF0BF0BAEF0BF0000E6D
:10176A008E6F040E8D6FBEEF0BF0000E8E6F010EA2
:10177A008D6F010ECB24016E026A000E02228DC00B
:10178A0003F08EC004F071EC11F001C08FF002C0BA
:10179A0090F0BE50640DF3CF01F0F4CF02F0010EC9
:1017AA00CB24036E046A000E0422F1EC0EF001C091
:1017BA008BF002C08CF0400E016E420E026E0F0ECC
:1017CA00036E000E046E8FC005F090C006F0076A23
:1017DA00086A48EC0CF001C087F002C088F003C028
:1017EA0089F004C08AF0720E0001606F000E616F0A
:1017FA00160E626F100E636F87C064F088C065F0C2
:10180A0089C066F08AC067F070EC10F0720E056E3F
:10181A00000E066E000E086E020E076E8EEC0EF0BB
:10182A00720E0001606F000E616F370E626F100E4C
:10183A00636F8FC064F090C065F070EC10F0720EA8
:10184A00056E000E066E000E086E030E076E8EEC15
:10185A000EF0720E0001606F000E616F270E626F4C
:10186A00100E636F8BC064F08CC065F070EC10F0E2
:10187A00720E056E000E066E000E086E040E076EDE
:10188A008EEC0EF01200000E0A6E08BE51EF0CF03C
:10189A004FEF0CF05BEF0CF0081E071E061E056CDE
:1018AA00000E062207220822010E0A6E04BE62EF0B
:1018BA000CF060EF0CF06CEF0CF0041E031E021E1D
:1018CA00016C000E022203220422010E0A1A000EE3
:1018DA000B6E000E0C6E000E0D6E000E0E6E055095
:1018EA00061007100810D8B47DEF0CF07FEF0CF04B
:1018FA00B5EF0CF0010E096E89EF0CF0D8900536A1
:10190A00063607360836092A08AE8EEF0CF090EF35
:10191A000CF083EF0CF0D8900B360C360D360E36E1
:10192A000550015C065002580750035808500458E5
:10193A00D8A0A2EF0CF0A4EF0CF0ADEF0CF005501C
:10194A00015E0650025A0750035A0850045A0B8087
:10195A00D8900832073206320532092E90EF0CF081
:10196A000A50D8B4BBEF0CF0BDEF0CF0C5EF0CF089
:10197A000E1E0D1E0C1E0B6C000E0C220D220E22CA
:10198A000BC001F00CC002F00DC003F00EC004F051
:10199A00120001C008F002C009F003C00AF004C036
:1019AA000BF00506D8A00606052806E10628D8A4E5
:1019BA00E1EF0CF0E3EF0CF0F0EF0CF0000E026E2A
:1019CA00000E016E48EF0DF0084A092A0A4A0B2A4E
:1019DA000506D8A0060608C0F6FF09C0F7FF000EE4
:1019EA00F86E0800F5500009D8B4FEEF0CF000EFCD
:1019FA000DF032EF0DF00AC0F6FF0BC0F7FF000E34
:101A0A00F86E0800F5500009D8B40EEF0DF010EF8B
:101A1A000DF032EF0DF005500610D8B417EF0DF0A7
:101A2A0019EF0DF032EF0DF008C0F6FF09C0F7FF0D
:101A3A00000EF86E0800F5CF07F00AC0F6FF0BC0DB
:101A4A00F7FF000EF86E0800F5500718D8B430EF0B
:101A5A000DF032EF0DF0E9EF0CF008C0F6FF09C007
:101A6A00F7FF000EF86E0800F5CF07F00AC0F6FF80
:101A7A000BC0F7FF000EF86E0800F550075C016E08
:101A8A00026AD8A00206120020EE11F0070EDE6AE2
:101A9A00E806FDE209500A100B100C100D100E108A
:101AAA000F101010D8B45CEF0DF05EEF0DF0B0EF30
:101ABA000DF0010E196E6CEF0DF0D89009360A364A
:101ACA000B360C360D360E360F361036192A10AE76
:101ADA0071EF0DF073EF0DF062EF0DF0D890113643
:101AEA001236133614361536163617361836095086
:101AFA00015C0A5002580B5003580C5004580D5000
:101B0A0005580E5006580F50075810500858D8A0BC
:101B1A0091EF0DF093EF0DF0A4EF0DF00950015E77
:101B2A000A50025A0B50035A0C50045A0D50055AC7
:101B3A000E50065A0F50075A1050085A1180D89062
:101B4A0010320F320E320D320C320B320A32093297
:101B5A00192E73EF0DF011C001F012C002F013C07C
:101B6A0003F014C004F015C005F016C006F017C043
:101B7A0007F018C008F0120009500A100B100C10D8
:101B8A000D100E100F101010D8B4CEEF0DF0D0EFCC
:101B9A000DF018EF0EF0010E116EDEEF0DF0D89079
:101BAA0009360A360B360C360D360E360F36103617
:101BBA00112A10AEE3EF0DF0E5EF0DF0D4EF0DF0C2
:101BCA000950015C0A5002580B5003580C50045833
:101BDA000D5005580E5006580F5007581050085807
:101BEA00D8A0FAEF0DF0FCEF0DF00CEF0EF0095053
:101BFA00015E0A50025A0B50035A0C50045A0D50F7
:101C0A00055A0E50065A0F50075A1050085AD890C3
:101C1A0010320F320E320D320C320B320A320932C6
:101C2A00112EE5EF0DF001C001F002C002F003C071
:101C3A0003F004C004F005C005F006C006F007C0B2
:101C4A0007F008C008F0120003500410D8B430EFAF
:101C5A000EF032EF0EF03BEF0EF003500410D8A452
:101C6A0039EF0EF03BEF0EF040EF0EF00150A0EC12
:101C7A0011F08DEF0EF020EE04F00350D926045037
:101C8A00DA22DE50DE10D8B44DEF0EF04FEF0EF030
:101C9A006AEF0EF020EE04F00350D9260450DA223F
:101CAA0010EE02F00350E1260450E222DE50E65C18
:101CBA00E650800A096EDE50800A0958D8B068EFEB
:101CCA000EF06AEF0EF08DEF0EF020EE02F00350E8
:101CDA00D9260450DA22DECF05F0DDCF06F003C0A4
:101CEA00D9FF04C0DAFFDECF07F0DDCF08F00550D8
:101CFA000724D96E06500820DA6E01C0DFFF20EEF5
:101D0A0002F00350D9260450DA22DE2A000EDD2220
:101D1A001200A4EF0EF0800E06EC11F0D7EF0EF0D1
:101D2A00C00E06EC11F0D7EF0EF0940E06EC11F08F
:101D3A00D7EF0EF0D40E06EC11F0D7EF0EF007C075
:101D4A0009F008C00AF00A50000AD8B4AFEF0EF042
:101D5A00D7EF0EF00950010AD8B490EF0EF0030A3B
:101D6A00D8B495EF0EF0010AD8B49AEF0EF0070A2C
:101D7A00D8B49FEF0EF0D7EF0EF005C0F6FF06C0FD
:101D8A00F7FF000EF86E0F0EF76403D00800F55047
:101D9A0005D0F6CFE1FFF7CFE2FFE7505BEC11F099
:101DAA00054A062A05C0F6FF06C0F7FF000EF86EC0
:101DBA000F0EF76403D00800F55005D0F6CFE1FF07
:101DCA00F7CFE2FFE7500009D8A4EEEF0EF0F0EFEC
:101DDA000EF0C2EF0EF01200000E066E04BEFAEF0D
:101DEA000EF0F8EF0EF000EF0FF0036C041ED8B0FF
:101DFA00042A010E066E02BE07EF0FF005EF0FF080
:101E0A000DEF0FF0016C021ED8B0022A010E061A5D
:101E1A00000E086E000E076E03500410D8B418EFB7
:101E2A000FF01AEF0FF042EF0FF0010E056E22EFDE
:101E3A000FF0D89003360436052A04AE27EF0FF0C8
:101E4A0029EF0FF01EEF0FF0D8900736083603502F
:101E5A00015C04500258D8A035EF0FF037EF0FF0AD
:101E6A003CEF0FF00350015E0450025A0780D890ED
:101E7A0004320332052E29EF0FF00650D8B448EF8A
:101E8A000FF04AEF0FF04EEF0FF0076C081ED8B0B4
:101E9A00082A07C001F008C002F012005DA058EF3E
:101EAA000FF05AEF0FF064EF0FF013C00AF014C0EE
:101EBA000BF011C00CF012C00DF0C2EC10F016BEFF
:101ECA0069EF0FF06BEF0FF071EF0FF015C01AF01A
:101EDA0016C01BF075EF0FF0000E1B6E000E1A6E87
:101EEA00000E196E000E186E87EF0FF0000E026ECC
:101EFA00200E016E11C003F012C004F029EC0EF09E
:101F0A00184A192A1A50185C1950800A176E1B5061
:101F1A00800A1758D8A094EF0FF096EF0FF07BEFD6
:101F2A000FF05DB09BEF0FF09DEF0FF0A7EF0FF0F2
:101F3A0013C00AF014C00BF011C00CF012C00DF05F
:101F4A00C2EC10F013C001F014C002F040EC11F022
:101F5A001A500124116E1B500220126E1200949620
:101F6A009488949A949C000EC76EC78C000EC66E15
:101F7A00C68A828C000E016E000EE4EC10F0000E90
:101F8A00016E120EE4EC10F0000E016E010EE4EC8C
:101F9A0010F0000E016E130EE4EC10F0330E06EC96
:101FAA0011F00D0E056EFC0EE82EFED7052EFCD79D
:101FBA00330E06EC11F00D0E056EFC0EE82EFED760
:101FCA00052EFCD7380E06EC11F00D0E056EFC0E30
:101FDA00E82EFED7052EFCD70C0E06EC11F0060EE5
:101FEA0006EC11F0010E06EC11F0800E06EC11F071
:101FFA0012009480988098829368956899680F0E69
:10200A00C16E9494969C969A9898000ECA6ECA8449
:10201A009E949D94F28CF29E84EC11F0B4EC0FF035
:10202A00010E056E100E066E000E086E010E076E8A
:10203A008EEC0EF093EC0BF082A026EF10F028EF56
:10204A0010F02CEF10F087CFBDFF32EF10F0000E2A
:10205A00BD6E84EC11F093EC0BF0820E5A6EDE0E1C
:10206A00E82EFED75A2EFCD721EF10F000EF00F031
:10207A0054C058F055C059F0000E0001926F000E7E
:10208A00916F5BEF10F052C03CF053C03DF0580E18
:10209A003E6E000E3F6E56C040F057C041F025EC30
:1020AA0008F03C50000191273D50922358C0F6FF9A
:1020BA0059C0F7FF000EF86E0800F5500009D8A4C1
:1020CA0069EF10F06BEF10F048EF10F091C052F08A
:1020DA0092C053F01200640E00016A6F000E6B6F1B
:1020EA0060C06CF061C06DF0000E6F6F000E6E6F15
:1020FA00000E716F000E706F6C0E526E000E536EF2
:10210A0062C054F063C055F06A0E566E000E576EE8
:10211A003DEC10F000016E516025D96E6F516121BE
:10212A00DA6E000EDF6E1200010E076E200E011825
:10213A000210D8B4A3EF10F0A5EF10F0BEEF10F024
:10214A00F70E036EFF0E046E01C005F002C006F022
:10215A000350052604500622065009E1050E055CC7
:10216A00D8A0BAEF10F0BCEF10F0BEEF10F0000EDE
:10217A00076E07C001F0026A1200000E106E000E10
:10218A000F6ED3EF10F00EC001F0026A0CC003F01C
:10219A000DC004F029EC0EF00F4A102A0F500A2441
:1021AA00D96E10500B20DA6EDF500E6E0E50D8A486
:1021BA00E1EF10F0E3EF10F0C8EF10F01200026E3A
:1021CA00829C9E96400EC96E9EA6EEEF10F0F0EF2E
:1021DA0010F0E9EF10F09E9602C0C9FF9EA6F8EF34
:1021EA0010F0FAEF10F0F3EF10F09E9601C0C9FF5D
:1021FA009EA602EF11F004EF11F0FDEF10F0828CB1
:10220A001200046E000E016E120EE4EC10F004C00F
:10221A0001F0130EE4EC10F0020E016E120EE4EC63
:10222A0010F0000E016E120EE4EC10F0060E036EB2
:10223A00300EE82EFED7032EFCD700D01200D00EA7
:10224A00036EFF0E046E01C005F002C006F00350D3
:10225A0005260450062206500AE10A0E055CD8A09B
:10226A0039EF11F03CEF11F0010E3DEF11F0000EC5
:10227A00016E026A120001C003F002C004F048EFC6
:10228A0011F0014A022A01C0D9FF02C0DAFFDF5069
:10229A00D8A452EF11F054EF11F046EF11F00350A9
:1022AA00015C016E04500258026E1200036E010EA8
:1022BA00016E120EE4EC10F003C001F0130EE4EC10
:1022CA0010F0030E016E120EE4EC10F0010E016E16
:1022DA00120EE4EC10F0120001500302F3CF05F0E5
:1022EA00F4CF06F001500402F3500626025003020E
:1022FA00F350062605C001F006C002F0120086A0BF
:10230A0002D0CA8001D0CA9086A202D0CA8201D065
:10231A00CA9281CFCBFF83CFBEFF120000EE91F0AD
:10232A00240EEE6AE806FDE15E6A5D6A5C6A5B6A33
:08233A000001FEEF0FF012009C
:020000040020DA
:08000000FFFFFFFFFFFFFFFF00
:020000040030CA
:0E000000FF021F1EF38385FFFFC0FFE0FF40DD
:00000001FF
