:020000003E2898
:10000800AF00030EB0000A08B1008A010D181D28C0
:10001800AB24481F9421C81E9C21481EA321C81D3B
:10002800B021481DBB21C81CCB21481CDB218B10EB
:10003800362832303A02031828288313A030840067
:100048003A08840700082F288317103084003230BC
:100058003A02840700088800BA0A64303A02031991
:10006800BA010D10310831088A00300E8300AF0E36
:100078002F0E090003138316013087008801061428
:10008800031383128710880103178316890101134C
:10009800031383120B309D00013090008F018E01F5
:1000A8009C0132309B006430B2003230B300E8303B
:1000B800B4000330B500B6013615EC234A245924A0
:1000C800A224E5217622D022E522F42207187628F8
:1000D8008C28071C73287028371C76286D28371839
:1000E8008C286D28031383128B018B108714371407
:1000F80036199920B618D72036183021BA010313BB
:1001080083160D14031383120D100B178B176D280C
:10011800031383128B010D10871037108801031306
:1001280083128B140B168B176D28BA01B3080319A9
:10013800B7283308BB00832132303A020318AC28B1
:100148008313A03084003A08840739088000B42853
:1001580083171030840032303A028407390880004F
:10016800BA0ABB0BA0286430BB003308BB02BB082B
:1001780003190800B80132303A020318CB28831358
:10018800A03084003A08840738088000D3288317F1
:100198001030840032303A02840738088000BA0AE6
:1001A800BB0BBF280800BA01B30803193029643013
:1001B800BC003308BC02BC0803193029832133086A
:1001C800BB003908A0003A08A1007E232608A20037
:1001D8002708A300A5013308A4008B2332303A0274
:1001E8000318FE288313A03084003A0884072608E1
:1001F8008000062983171030840032303A028407C1
:1002080026088000BA0ABB0BE5283C08BB00390861
:10021800A0003B08A1007E232608A2002708A3000F
:10022800A5013C08A4008B2332303A020318242984
:100238008313A03084003A088407260880002C29FC
:1002480083171030840032303A0284072608800071
:10025800BA0ABB0B0B290800BA016430BB00832122
:10026800B30803195D293908A0003A08A1007E23C4
:100278002608A2002708A3006430A4000030A500C7
:100288008B2332303A02031851298313A03084009B
:100298003A088407260880005929831710308400FB
:1002A80032303A02840726088000BA0ABB0B372985
:1002B80008003908A0003B08A1007E232608A200F8
:1002C8002708A3006430A4000030A5008B23323037
:1002D8003A02031877298313A03084003A08840768
:1002E800260880007F2983171030840032303A02B4
:1002F800840726088000BA0ABB0B5D290800FF3076
:10030800A0003208A1007E232608A2002708A30027
:100318006430A4000030A5008B232608B90008002B
:10032800031064303202031808000A30B207F42AB6
:1003380003100A303202031C0800B200F42A3618EF
:10034800AD29031064303302031808000A30B307DC
:10035800E52A6430B300E52A3618B92903100A30B3
:100368003302031C0800B300E52AB301E52A901AFA
:10037800C129101E08001012C729101EC529101205
:10038800C729901210160310B40DB50DD02A901E6F
:10039800D129101A08001016D729101AD5291016B5
:1003A800D729901610120310B50CB40CD02A0310DC
:1003B800B60C031836157622361C08006430B300D4
:1003C800E52A8030C90086245730C9006B24613083
:1003D800C9006B247630C9006B246530C9006B24D2
:1003E8002030C9006B246630C9006B246F30C90007
:1003F8006B247230C9006B246D30C9006B24C03087
:10040800C90086244630C9006B247230C9006B24A9
:100418006530C9006B247130C9006B247530C90080
:100428006B246530C9006B246E30C9006B246330BF
:10043800C9006B247930C9006B24D230C9008624E6
:100448004830C9006B247A30C9006B249430C90045
:1004580086244430C9006B247530C9006B2474307D
:10046800C9006B247930C9006B242030C9006B2483
:100478006330C9006B247930C9006B246330C9002C
:100488006B246C30C9006B246530C9006B24A7301D
:10049800C90086242530C9006B24D430C9008624BD
:1004A8004130C9006B246D30C9006B247030C9001D
:1004B8006B246C30C9006B246930C9006B2474301C
:1004C800C9006B247530C9006B246430C9006B24E3
:1004D8006530C9006B24E730C90086242530C9007F
:1004E8006B2408003619B42AB618982A36187C2ABC
:1004F8008C30C90086247330C9006B246130C90070
:100508006B247730C9006B247430C9006B246F30BA
:10051800C9006B246F30C9006B247430C9006B2488
:100528006830C9006B2408008C30C90086247430F8
:10053800C9006B247230C9006B246930C9006B2470
:100548006130C9006B246E30C9006B246730C90064
:100558006B246C30C9006B246530C9006B2408001B
:100568008C30C90086242030C9006B242030C90093
:100578006B247330C9006B247130C9006B2475304B
:10058800C9006B246130C9006B247230C9006B2428
:100598006530C9006B2408003408C4003508C5005C
:1005A8003023CE30C90086244208C9006B24410894
:1005B800C9006B244008C9006B243F08C9006B249C
:1005C800080033081F23A430C90086244108C90045
:1005D8006B244008C9006B243F08C9006B2408003D
:1005E80032081F23E430C90086244108C9006B245F
:1005F8004008C9006B243F08C9006B240800BE00EE
:10060800BD00F030BE05BE0E0F30BD05BE1D102B5F
:100618003E19122BBE18122B3030132B3730BE0761
:10062800BD1D1A2B3D191C2BBD181C2B30301D2B42
:100638003730BD070800C101C001BF0064303F0268
:10064800031C292BBF00C10A222B0A303F02031CBE
:10065800742BBF00C00A292BC301C201C101C0010C
:10066800BF011030C4022730031C2830C502031C08
:100678003F2BC30A352B1030C40727300318283006
:10068800C507E830C4020330031C0430C502031C4C
:100698004F2BC20A452BE830C40703300318043037
:1006A800C5076430C4020030031C0130C502031CB6
:1006B8005F2BC10A552B6430C40700300318013082
:1006C800C5074408BF000A303F02031C6E2BBF0059
:1006D800C00A672B4308303AC3004208303AC200C8
:1006E8004108303AC1004008303AC0003F08303A6B
:1006F800BF000800AC01AC15A601A7012008A10C99
:100708000318A707A70CA60CAC0B832B0800A2089C
:10071800031D942BA308031D942BA601A701080011
:10072800A408031DAA2BA508031908002508AC0076
:100738002408A202031CAC0A2C08A30208002408FF
:10074800A2070318A30A2508A30708000130AD0073
:10075800AE01A601A7010310AD0DAE0D0310A40D47
:10076800A50DA51FAF2B9A230318BC2BA323C22BBF
:100778002D08A6070318A70A2E08A7070310A50C1B
:10078800A40C0310AE0CAD0C031CB72B0800AB0176
:10079800AA01A9018030A800A30CA20C031CDD2B20
:1007A8002408A90725080318250FAA070318AB0A68
:1007B8000310A21FE52B2408AA0725080318250FF4
:1007C800AB07AB0CAA0CA90CA80C031CD02B080077
:1007D800031383169401031383160A3093008715B5
:1007E80007160313831691010313831294019415BA
:1007F80094168C1108003B24031383128C110313E5
:1008080083161114031383128C1D082C08003B2433
:10081800031383128C110313831691140313831289
:100828008C1D142C08003B24031383128C11031312
:1008380083161115031383128C1D202C08003B24EA
:10084800031383128C110313831293008C1D2A2C1B
:1008580008003B240313831691159119312C0313B7
:100868008312130808003B24111B382C08000313BB
:10087800831614193D2C11183D2C91183D2C111973
:100888003D2C91193D2C111A3D2C0800FF234030B6
:100898002324063023240030232423240230232455
:1008A800003023242324172408003830C900862464
:1008B800B8240C30C90086240630C90086240130CB
:1008C800C90086248030C9008624B8240800FF2384
:1008D80040302324023023240130232449082324D0
:1008E8001724FF23403023240230232403302324F9
:1008F8001724FF23403023240230232401302324EB
:1009080017240800FF23403023240230232400301A
:1009180023244908232423241724FF234030232495
:1009280002302324023023241724FF2340302324B9
:10093800023023240030232417240800FF234230E8
:10094800232403302324FF30232417240800FF2303
:1009580042302324003023240B244330232437241B
:100968002D24C80017240800A430C6006430C7002E
:10097800C70BBC2CC60BBA2C08004030C600C60BEF
:04098800C32C080074
:04400E00F23FFF3F3F
:00000001FF
