:020000040000FA
:0400000007EF00F016
:0A0008005F82B3ED28F0A3EF30F0A3
:10100000003C6C3636CF0750B98488083CABAA2A1E
:10101000BEA3858832DA0FC93F83F9223F00000062
:101020003F0000404B179ACC373F04B6BA9FAA2A1C
:101030003D000000BFDB0FC940E4CB9640DB0F4909
:1010400040DB0FC93F4449474954414C204F53436B
:10105000494C4C41544F520053616D706C696E673E
:101060002531302E3066487A004672657175656E9E
:10107000637925392E3066487A00494E46004E4144
:101080004E00696E66006E616E006C660000000EB8
:1010900001011B6F000E1A6FC4C02CF1C5C02DF1E9
:1010A000C6C02EF1C7C02FF12FBF5BEF08F059EF7C
:1010B00008F071EF08F0000E1B6F010E1A6F2CC1C3
:1010C000BEF02DC1BFF02EC1C0F02FC1C1F06BEC3E
:1010D00030F0BEC02CF1BFC02DF1C0C02EF1C1C098
:1010E0002FF1000E0101336F000E326FF8C01EF1B8
:1010F000F9C01FF11A511B11D8A481EF08F083EF3A
:1011000008F08BEF08F00001FCA589EF08F08BEFE9
:1011100008F0A6EF08F001011A511B11D8A493EFB3
:1011200008F095EF08F09BEF08F0000E016F2B0E12
:10113000006F9FEF08F0000E016F2D0E006F00C1D1
:1011400075F1324B332B1E07D8A01F072CC160F05E
:101150002DC161F02EC162F02FC163F0D9EC2AF0ED
:10116000000160056111D8A4B8EF08F0BAEF08F0EB
:1011700018EF09F0BF0EC96FFF0ECA6FC851CB6FD1
:10118000CC6BC951CB27CA51CC23CC510AE11A0EE2
:10119000CB5DD8A0CEEF08F0D1EF08F0010ED2EF72
:1011A00008F0000E0101026F036B02510311D8B465
:1011B000DCEF08F0DEEF08F0EFEF08F0750E3225F7
:1011C0000001606F010E010133210001616F7A0E91
:1011D000626F100E636FBEEC2EF0FEEF08F0750E1E
:1011E00032250001606F010E010133210001616FA2
:1011F000820E626F100E636FBEEC2EF00101FD0EC9
:101200001E27FF0E1F23C2C070F0C3C071F0750E01
:101210000001726F010E736F1EC174F01FC175F073
:1012200031EC2CF070C0C2F071C0C3F0B3EF0EF01F
:101230002CC160F02DC161F02EC162F02FC163F0AE
:10124000D9EC2AF0000160516111D8A42AEF09F00D
:101250002CEF09F072EF09F0BF0EC96FFF0ECA6FD5
:10126000C851CB6FCC6BC951CB27CA51CC23CC51C1
:101270000AE11A0ECB5DD8A040EF09F043EF09F068
:10128000010E44EF09F0000E0101046F056B0451DB
:101290000511D8B44EEF09F050EF09F061EF09F0F5
:1012A000750E32250001606F010E0101332100012E
:1012B000616F7E0E626F100E636FBEEC2EF0FEEF5C
:1012C00008F0750E32250001606F010E0101332117
:1012D0000001616F860E626F100E636FBEEC2EF020
:1012E000FEEF08F0000E0101346F000E356F800E26
:1012F000366F3F0E376F000E316F000E306F2CC10E
:1013000060F02DC161F02EC162F02FC163F0000EBC
:101310000001646F000E656F000E666F000E676F50
:10132000B7EC2DF00001D8B098EF09F09AEF09F072
:1013300020EF0AF0B9EF09F034C179F035C17AF045
:1013400036C17BF037C17CF0000E7D6F000E7E6FE2
:10135000200E7F6F410E806F73EC1BF079C034F16B
:101360007AC035F17BC036F17CC037F10101304BDA
:10137000312B2CC192F02DC193F02EC194F02FC1CE
:1013800095F0000E00017D6F000E7E6F200E7F6FC6
:10139000410E806F34C179F035C17AF036C17BF0EF
:1013A00037C17CF073EC1BF079C096F07AC097F0EF
:1013B0007BC098F07CC099F0D3EC29F00001D8B044
:1013C000E4EF09F0E6EF09F09CEF09F006EF0AF010
:1013D00034C160F035C161F036C162F037C163F0ED
:1013E000000E646F000E656F200E666F410E676F12
:1013F0009EEC1FF060C034F161C035F162C036F17F
:1014000063C037F101013007D8A031072CC192F039
:101410002DC193F02EC194F02FC195F034C196F0F8
:1014200035C197F036C198F037C199F0D3EC29F067
:101430000001D8A01EEF0AF020EF0AF0E8EF09F053
:10144000C8C066F0676B8DEC2EF00001665101019B
:10145000216F21C120F1670E2119D8A432EF0AF0C3
:1014600034EF0AF05CEF0AF00001FA51FB11D8A446
:101470003CEF0AF03EEF0AF042EF0AF0000EFB6F7D
:10148000010EFA6FFBBF4FEF0AF0FB5106E1FA05C0
:10149000D8B04DEF0AF04FEF0AF056EF0AF0000E09
:1014A00001011D6F060E1C6F66EF0AF0FAC01CF1F9
:1014B000FBC01DF166EF0AF00001FBBF62EF0AF00E
:1014C00064EF0AF04FEF0AF056EF0AF0670E0101E1
:1014D0002119D8A46EEF0AF070EF0AF0A6EF0AF017
:1014E00031AF7EEF0AF0FC0E305DFF0E3159D8A00F
:1014F0007CEF0AF07EEF0AF0A3EF0AF0FF0E000186
:10150000C96FFF0ECA6F1CC1CBF01DC1CCF0C95111
:10151000CB27CA51CC23010130510001CB5DCC5106
:10152000800ACD6F01013151800A0001CD59D8A048
:101530009CEF0AF09EEF0AF0A3EF0AF0660E01019D
:10154000206FA6EF0AF0650E0101206F1CC112F199
:101550001DC113F1670E2119D8A4B1EF0AF0B3EF42
:101560000AF0C3EF0AF0660E2019D8A4BAEF0AF009
:10157000BCEF0AF0C5EF0AF031BFC3EF0AF0C1EFCC
:101580000AF0C5EF0AF0124B132B660E2019D8A4EF
:10159000CCEF0AF0CEEF0AF0EEEF0AF031BFD5EF54
:1015A0000AF0D3EF0AF0E1EF0AF0000E346F000EFC
:1015B000356F800E366F3F0E376F000E316F000EA5
:1015C000306F670E2119D8B4E8EF0AF0EAEF0AF09D
:1015D000EEEF0AF03051122731511323000E2B6F1A
:1015E000000E2A6F2CC122F12DC123F12EC124F14E
:1015F0002FC125F134C114F135C115F136C116F1F1
:1016000037C117F180EF0BF022C160F023C161F008
:1016100024C162F025C163F034C164F035C165F0C6
:1016200036C166F037C167F09EEC1FF060C079F0FC
:1016300061C07AF062C07BF063C07CF0ECEC23F018
:1016400079C026F17AC027F17BC028F17CC029F14E
:1016500026C1A2F027C1A3F028C1A4F029C1A5F09A
:101660004FEC29F0A2C018F1A3C019F122C1A2F0D9
:1016700023C1A3F024C1A4F025C1A5F034C17DF09D
:1016800035C17EF036C17FF037C180F026C179F0D8
:1016900027C17AF028C17BF029C17CF073EC1BF0E4
:1016A00079C0A6F07AC0A7F07BC0A8F07CC0A9F0F2
:1016B00069EC2FF0A2C022F1A3C023F1A4C024F151
:1016C000A5C025F134C160F035C161F036C162F0CA
:1016D00037C163F0000E0001646F000E656F200ECD
:1016E000666F410E676F9EEC1FF060C034F161C001
:1016F00035F162C036F163C037F101012A4B2B2B63
:1017000012512A5D2B51800A0001C96F010113514A
:10171000800A0001C959D8A090EF0BF092EF0BF0AE
:1017200004EF0BF034C179F035C17AF036C17BF0AB
:1017300037C17CF0000E7D6F000E7E6FA00E7F6FB4
:10174000400E806F73EC1BF079C026F17AC027F150
:101750007BC028F17CC029F122C192F023C193F013
:1017600024C194F025C195F026C196F027C197F0C9
:1017700028C198F029C199F0D3EC29F00001D8B024
:10178000C4EF0BF0C6EF0BF0D1EF0BF0000E010130
:10179000266F000E276F000E286F000E296FFBEFDB
:1017A0000BF022C160F023C161F024C162F025C1B9
:1017B00063F026C164F027C165F028C166F029C135
:1017C00067F0B7EC2DF00001D8A0E9EF0BF0EBEFDC
:1017D0000BF0FBEF0BF0010118B1F1EF0BF0F3EFA1
:1017E0000BF0FBEF0BF0000E266F000E276F000EC4
:1017F000286F000E296F2CC192F02DC193F02EC1DD
:1018000094F02FC195F026C196F027C197F028C11A
:1018100098F029C199F064EC14F092C022F193C0C1
:1018200023F194C024F195C025F122C192F023C187
:1018300093F024C194F025C195F0000E00017D6F56
:10184000000E7E6F200E7F6F410E806F14C179F005
:1018500015C17AF016C17BF017C17CF073EC1BF058
:1018600079C096F07AC097F07BC098F07CC099F070
:10187000D3EC29F00001D8A040EF0CF042EF0CF0BF
:101880006CEF0CF00101304B312B14C179F015C114
:101890007AF016C17BF017C17CF0000E00017D6F5D
:1018A000000E7E6F200E7F6F410E806F73EC1BF079
:1018B00079C014F17AC015F17BC016F17CC017F124
:1018C000660E01012019D8A468EF0CF06AEF0CF045
:1018D0006CEF0CF0124B132B14C134F115C135F120
:1018E00016C136F117C137F1650E01012019D8B4C0
:1018F0007CEF0CF07EEF0CF084EF0CF030C110F1B7
:1019000031C111F188EF0CF0000E116F000E106F55
:10191000000E0F6F000E0E6F000E0D6F000E0C6F9D
:10192000000E2B6F000E2A6F86EF0DF022C160F0C3
:1019300023C161F024C162F025C163F034C164F0B9
:1019400035C165F036C166F037C167F09EEC1FF017
:1019500060C079F061C07AF062C07BF063C07CF057
:10196000ECEC23F079C026F17AC027F17BC028F196
:101970007CC029F126C1A2F027C1A3F028C1A4F0A0
:1019800029C1A5F04FEC29F0A2C018F1A3C019F1AC
:101990000001FCB9CEEF0CF0D0EF0CF0EEEF0CF044
:1019A000010118511911D8A4D8EF0CF0DAEF0CF09E
:1019B000EEEF0CF0670E2119D8A4E1EF0CF0E3EF85
:1019C0000CF0EEEF0CF011BFEAEF0CF0E8EF0CF0CA
:1019D000EEEF0CF00C4B0D2B39EF0DF001010E5119
:1019E0000F11D8A4F6EF0CF0F8EF0CF022EF0DF089
:1019F00011BFFFEF0CF0FDEF0CF022EF0DF0750EB4
:101A00003225D96E010E3321DA6E2E0EDF6E324B87
:101A1000332B1E07D8A01F07000E0F6F010E0E6F8D
:101A200022EF0DF0750E3225D96E010E3321DA6EDC
:101A3000300EDF6E324B332B1E07D8A01F070C076A
:101A4000D8A00D070C510D11D8A429EF0DF02BEFE4
:101A50000DF012EF0DF0750E3225D96E010E332107
:101A6000DA6E1851300FDF6E324B332B1E07D8A0C1
:101A70001F0722C1A2F023C1A3F024C1A4F025C1F5
:101A8000A5F034C17DF035C17EF036C17FF037C19D
:101A900080F026C179F027C17AF028C17BF029C1F6
:101AA0007CF073EC1BF079C0A6F07AC0A7F07BC085
:101AB000A8F07CC0A9F069EC2FF0A2C022F1A3C06D
:101AC00023F1A4C024F1A5C025F134C160F035C1D3
:101AD00061F036C162F037C163F0000E0001646F3F
:101AE000000E656F200E666F410E676F9EEC1FF053
:101AF00060C034F161C035F162C036F163C037F1C6
:101B000001011007D8A011072A4B2B2B12512A5D77
:101B10002B51800A0001C96F01011351800A000195
:101B2000C959D8B096EF0DF098EF0DF0A7EF0DF072
:101B3000010133BFA5EF0DF0335109E14B0E325DCA
:101B4000D8A0A5EF0DF0A7EF0DF096EF0CF0010176
:101B50000E510F11D8A4AFEF0DF0B1EF0DF0C4EF9F
:101B60000DF00001FCA9B7EF0DF0B9EF0DF0C4EFD7
:101B70000DF0750E01013225D96E010E3321DA6E9A
:101B80002E0EDF6E324B332B750E01013225D96ECE
:101B9000010E3321DA6E000EDF6E650E2019D8A417
:101BA000D4EF0DF0D6EF0DF003EF09F0000E2B6F20
:101BB0004F0E2A6F750E2A25D96E010E2B21DA6E73
:101BC000000EDF6E000E1B6F000E1A6F31BFEDEFBF
:101BD0000DF0EBEF0DF0F5EF0DF0000E1B6F010EA9
:101BE0001A6F306D311FD8B0312B000E1D6F020EF1
:101BF0001C6F28EF0EF02A07D8A02B07750E2A2598
:101C0000D96E010E2B21DA6E30C160F031C161F066
:101C1000000E0001636F0A0E626F5EEC2DF0000192
:101C20006051300FDF6E30C160F031C161F0000EE5
:101C3000636F0A0E626FFBEC2CF060C030F161C084
:101C400031F101011C07D8A01D071E07D8A01F07EE
:101C500030513111D8A42FEF0EF031EF0EF0FBEF21
:101C60000DF01DBF3EEF0EF01D5106E11C05D8B072
:101C70003CEF0EF03EEF0EF0FBEF0DF02A07D8A080
:101C80002B071A511B11D8A448EF0EF04AEF0EF0A3
:101C900050EF0EF0000E076F2B0E066F54EF0EF094
:101CA000000E076F2D0E066F750E2A25D96E010ED8
:101CB0002B21DA6E06C1DFFF1E07D8A01F072A07F7
:101CC000D8A02B07BF0E0001C96FFF0ECA6FC85105
:101CD000CB6FCC6BC951CB27CA51CC23CC510AE175
:101CE0001A0ECB5DD8A077EF0EF07AEF0EF0010E52
:101CF0007BEF0EF0000E01010A6F0B6B0A510B1106
:101D0000D8A485EF0EF087EF0EF08DEF0EF0000EE9
:101D1000096F650E086F91EF0EF0000E096F450E0A
:101D2000086F750E2A25D96E010E2B21DA6E08C1B7
:101D3000DFFF1E07D8A01F07750E32250001606F58
:101D4000010E010133210001616F750E01012A2589
:101D50000001626F010E01012B210001636FBEECD7
:101D60002EF003EF09F01200EAC004F1EBC005F118
:101D7000ECC006F1EDC007F104C11AF105C11BF179
:101D800006C11CF107C11DF11AC1EEF01BC1EFF035
:101D90001CC1F0F01DC1F1F0200ED5EF0EF00001D6
:101DA000D890F133F033EF33EE33E82ECFEF0EF06F
:101DB000EEC014F1EFC015F101011D9FDB0E1A5D9D
:101DC0000F0E1B59490E1C593F0E1D59D8B0EBEF91
:101DD0000EF0EDEF0EF017EF0FF0800E1C5D390ED8
:101DE0001D59D8B0F6EF0EF0F8EF0EF003EF0FF03C
:101DF000000E0001EA6F000EEB6F800EEC6F3F0EDD
:101E0000ED6F91EF11F0EAC0A2F0EBC0A3F0ECC0CF
:101E1000A4F0EDC0A5F000EC26F0A2C0EAF0A3C04B
:101E2000EBF0A4C0ECF0A5C0EDF091EF11F0D20EF4
:101E30001A5D530E1B597B0E1C59400E1D59D8B00C
:101E400024EF0FF026EF0FF0F3EF0FF0E40E1A5D22
:101E5000CB0E1B59160E1C59400E1D59D8A033EF3E
:101E60000FF035EF0FF094EF0FF014511511D8A4C7
:101E70003CEF0FF03EEF0FF05BEF0FF0EAC092F097
:101E8000EBC093F0ECC094F0EDC095F0DB0E0001D8
:101E9000966F0F0E976F490E986FC00E996F64EC96
:101EA00014F092C008F193C009F194C00AF195C0F2
:101EB0000BF176EF0FF0EAC092F0EBC093F0ECC0BC
:101EC00094F0EDC095F0DB0E0001966F0F0E976F4A
:101ED000490E986F400E996F64EC14F092C008F1AF
:101EE00093C009F194C00AF195C00BF108C1A2F0AA
:101EF00009C1A3F00AC1A4F00BC1A5F000EC26F0C3
:101F0000A2C0BEF0A3C0BFF0A4C0C0F0A5C0C1F085
:101F10006BEC30F0BEC0EAF0BFC0EBF0C0C0ECF03C
:101F2000C1C0EDF091EF11F014511511D8B49BEF31
:101F30000FF09DEF0FF0CCEF0FF0EAC092F0EBC086
:101F400093F0ECC094F0EDC095F0DB0E0001966FBD
:101F50000F0E976FC90E986F3F0E996F64EC14F0D7
:101F600092C010F193C011F194C012F195C013F119
:101F700010C1C2F011C1C3F012C1C4F013C1C5F049
:101F8000D0EC22F0C2C0EAF0C3C0EBF0C4C0ECF069
:101F9000C5C0EDF091EF11F0DB0E0001A26F0F0E46
:101FA000A36FC90EA46F3F0EA56FEAC0A6F0EBC0E9
:101FB000A7F0ECC0A8F0EDC0A9F069EC2FF0A2C02A
:101FC000C2F0A3C0C3F0A4C0C4F0A5C0C5F0D0EC5B
:101FD00022F0C2C0EAF0C3C0EBF0C4C0ECF0C5C050
:101FE000EDF091EF11F0D60E1A5D310E1B59E20E95
:101FF0001C59400E1D59D8B000EF10F002EF10F040
:10200000B3EF10F0E00E1A5DED0E1B59AF0E1C5928
:10201000400E1D59D8A00FEF10F011EF10F066EF31
:1020200010F014511511D8A418EF10F01AEF10F099
:1020300037EF10F0EAC092F0EBC093F0ECC094F0F0
:10204000EDC095F0DB0E0001966F0F0E976FC90E75
:10205000986FC00E996F64EC14F092C00CF193C0AD
:102060000DF194C00EF195C00FF152EF10F0EAC0DF
:1020700092F0EBC093F0ECC094F0EDC095F0DB0E65
:102080000001966F0F0E976FC90E986F400E996FF3
:1020900064EC14F092C00CF193C00DF194C00EF1F9
:1020A00095C00FF10CC1A2F00DC1A3F00EC1A4F0B8
:1020B0000FC1A5F000EC26F0A2C0EAF0A3C0EBF03F
:1020C000A4C0ECF0A5C0EDF091EF11F01451151182
:1020D000D8B46DEF10F06FEF10F096EF10F0E40E43
:1020E0000001A26FCB0EA36F960EA46FC00EA56F5A
:1020F000EAC0A6F0EBC0A7F0ECC0A8F0EDC0A9F0D4
:1021000069EC2FF0A2C0C2F0A3C0C3F0A4C0C4F019
:10211000A5C0C5F0D0EC22F0C2C0EAF0C3C0EBF01D
:10212000C4C0ECF0C5C0EDF091EF11F0EAC092F040
:10213000EBC093F0ECC094F0EDC095F0E40E00011C
:10214000966FCB0E976F960E986FC00E996F64ECDA
:1021500014F092C010F193C011F194C012F195C027
:1021600013F1B8EF0FF0800E1C5D7F0E1D59D8A043
:10217000BCEF10F0BEEF10F0DAEF10F0EAC0A2F002
:10218000EBC0A3F0ECC0A4F0EDC0A5F0EAC0A6F04F
:10219000EBC0A7F0ECC0A8F0EDC0A9F069EC2FF0FF
:1021A000A2C0EAF0A3C0EBF0A4C0ECF0A5C0EDF033
:1021B00091EF11F0EAC0C2F0EBC0C3F0ECC0C4F084
:1021C000EDC0C5F0160E0001C66F010EC76F25ECFD
:1021D00019F00001C2C000F1C3C001F10101000EFD
:1021E00001BFFF0E026F036F5AEF11F016C1A2F08C
:1021F00017C1A3F018C1A4F019C1A5F000EC26F096
:10220000A2C0EAF0A3C0EBF0A4C0ECF0A5C0EDF0D2
:1022100091EF11F016C1BEF017C1BFF018C1C0F0A8
:1022200019C1C1F06BEC30F0BEC0C2F0BFC0C3F04A
:10223000C0C0C4F0C1C0C5F0D0EC22F0C2C0EAF00A
:10224000C3C0EBF0C4C0ECF0C5C0EDF091EF11F0ED
:1022500016C1A2F017C1A3F018C1A4F019C1A5F0CE
:1022600000EC26F0A2C0BEF0A3C0BFF0A4C0C0F036
:10227000A5C0C1F06BEC30F0BEC0EAF0BFC0EBF01F
:10228000C0C0ECF0C1C0EDF091EF11F016C1C2F08A
:1022900017C1C3F018C1C4F019C1C5F0D0EC22F0C9
:1022A000C2C0EAF0C3C0EBF0C4C0ECF0C5C0EDF0B2
:1022B00091EF11F0030E00150001EE6F000E010109
:1022C00001150001EF6F000E010102150001F06F12
:1022D000000E010103150001F16FF151000AD8B49D
:1022E0008AEF11F046EF11F0EF51000AD8B47BEFFE
:1022F00011F046EF11F0EE51000AD8B4F6EF10F0ED
:10230000010AD8B40AEF11F0030AD8B428EF11F08B
:1023100046EF11F0F051000AD8B474EF11F046EF17
:1023200011F01200D0C0D9FFD1C0DAFFDECFF6FF26
:10233000DDCFF7FF000EF86E0800F550250AD8A48F
:10234000A4EF11F0A6EF11F045EF14F0D0C0D9FFC3
:10235000D1C0DAFFDE2A000EDD22000E0001F96F87
:10236000000EF86FF8C0FCF0F9C0FDF0FA69FB69E7
:10237000D0C0D9FFD1C0DAFFDECFF6FFDDCFF7FF47
:10238000000EF86E0800F5502A0AD8A4CAEF11F022
:10239000CCEF11F0F5EF11F0D0C0D9FFD1C0DAFFCA
:1023A000DE2A000EDD22D2C0D9FFD3C0DAFFDFCF94
:1023B000D4F0020EDE26DFCFD5F0000EDD22D4C031
:1023C000D9FFD5C0DAFFDECFF8F0DDCFF9F0F9BFE5
:1023D000EEEF11F0ECEF11F03BEF12F0FC81F86D35
:1023E000F91FD8B0F92B3BEF12F0D0C0D9FFD1C004
:1023F000DAFFDECF67F0DDCF68F0DFEC27F067C0F3
:10240000F8F068C0F9F00CEF12F0D0C0D9FFD1C0DD
:10241000DAFFDE2A000EDD22D00E0001D46FFF0E9F
:10242000D56FD0C0D9FFD1C0DAFFDECFF6FFDDCF48
:10243000F7FF000EF86E0800F550D66FD76BD45139
:10244000D627D551D723D7510AE10A0ED65DD8A099
:102450002CEF12F02FEF12F0010E30EF12F0000E01
:10246000D86FD96BD851D911D8A439EF12F03BEFFE
:1024700012F005EF12F0D0C0D9FFD1C0DAFFDECFE5
:10248000F6FFDDCFF7FF000EF86E0800F5502E0ABC
:10249000D8A44DEF12F04FEF12F0D1EF12F0000E72
:1024A000FB6F000EFA6FD0C0D9FFD1C0DAFFDE2A71
:1024B000000EDD22D0C0D9FFD1C0DAFFDECFF6FF9B
:1024C000DDCFF7FF000EF86E0800F5502A0AD8A4F9
:1024D0006CEF12F06EEF12F08BEF12F0D0C0D9FF5C
:1024E000D1C0DAFFDE2A000EDD22D2C0D9FFD3C070
:1024F000DAFFDFCFD4F0020EDE26DFCFD5F0000EFC
:10250000DD22D4C0D9FFD5C0DAFFDECFFAF0DDCFAF
:10251000FBF0D1EF12F0D0C0D9FFD1C0DAFFDECF8F
:1025200067F0DDCF68F0DFEC27F067C0FAF068C035
:10253000FBF0A2EF12F0D0C0D9FFD1C0DAFFDE2A43
:10254000000EDD22D00E0001D46FFF0ED56FD0C07B
:10255000D9FFD1C0DAFFDECFF6FFDDCFF7FF000EE7
:10256000F86E0800F550D66FD76BD451D627D551E9
:10257000D723D7510AE10A0ED65DD8A0C2EF12F0D8
:10258000C5EF12F0010EC6EF12F0000EDA6FDB6B32
:10259000DA51DB11D8A4CFEF12F0D1EF12F09BEF9C
:1025A00012F0D0C0D9FFD1C0DAFFDECFF6FFDDCF09
:1025B000F7FF000EF86E0800F550666F676B8DEC44
:1025C0002EF000016651E26FE251D8B4EAEF12F04A
:1025D000ECEF12F02AEF13F0D0C0D9FFD1C0DAFF30
:1025E000DECFD4F0DDCFD5F0010ED427000ED523F9
:1025F000D4C0F6FFD5C0F7FF000EF86E0800F55006
:10260000666F676B8DEC2EF000016651E36FE3514E
:10261000D8B40DEF13F00FEF13F02AEF13F0D0C082
:10262000D9FFD1C0DAFFDECFD4F0DDCFD5F0020E76
:10263000D427000ED523D4C0F6FFD5C0F7FF000E77
:10264000F86E0800F550666F676B8DEC2EF0000198
:102650006651E46F660EE219D8A431EF13F033EF40
:1026600013F075EF13F0D0C0D9FFD1C0DAFFDECF81
:10267000F6FFDDCFF7FF000EF86E0800F5CFE5F0AE
:10268000D0C0D9FFD1C0DAFFDE2A000EDD22D2C0D1
:10269000D9FFD3C0DAFFDFCFD4F0040EDE26DFCFC0
:1026A000D5F0000EDD22D4C0D9FFD5C0DAFFDECFD1
:1026B000DEF0DECFDFF0DECFE0F0DECFE1F0CEC047
:1026C000C2F0CFC0C3F0DEC0C4F0DFC0C5F0E0C0D0
:1026D000C6F0E1C0C7F0E5C0C8F047EC08F0C2C0E2
:1026E000CEF0C3C0CFF063EF14F0E20E606F000EC7
:1026F000616F8A0E626F100E636F000E656F020EBF
:10270000646F59EC2BF0000160516111D8A48BEF7C
:1027100013F08DEF13F00CEF14F0D0C0D9FFD1C03F
:10272000DAFFDECFD4F0DDCFD5F0010ED427000ED6
:10273000D523D4C0F6FFD5C0F7FF000EF86E080011
:10274000F5CFE5F0BF0ED46FFF0ED56FD0C0D9FF27
:10275000D1C0DAFFDECFF6FFDDCFF7FF000EF86E57
:102760000800F550D66FD76BD451D627D551D72353
:10277000D7510AE11A0ED65DD8A0C1EF13F0C4EF0D
:1027800013F0010EC5EF13F0000EDC6FDD6BDC51B2
:10279000DD11D8B4CEEF13F0D0EF13F0EAEF13F061
:1027A000D2C0D9FFD3C0DAFFDFCFD4F0040EDE26CB
:1027B000DFCFD5F0000EDD22D4C0D9FFD5C0DAFFBF
:1027C000DECFDEF0DECFDFF0DECFE0F0DECFE1F017
:1027D00002EF14F0D2C0D9FFD3C0DAFFDFCFD4F0BC
:1027E000040EDE26DFCFD5F0000EDD22D4C0D9FFE7
:1027F000D5C0DAFFDECFDEF0DECFDFF0DECFE0F0F7
:10280000DECFE1F0020ED0C0D9FFD1C0DAFFDE2664
:10281000000EDD225FEF13F0D0C0D9FFD1C0DAFF88
:10282000DECFF6FFDDCFF7FF000EF86E0800F550A3
:10283000250AD8A41EEF14F020EF14F038EF14F09E
:10284000D0C0D9FFD1C0DAFFDE2A000EDD22000E93
:10285000616F250E606FCEC062F0CFC063F0CBEC2D
:102860002BF0000E0001CF6F010ECE6F63EF14F05E
:10287000D0C0D9FFD1C0DAFFDE2A000EDD22000E63
:10288000CF6F000ECE6F63EF14F0D0C0D9FFD1C070
:10289000DAFFDECFF6FFDDCFF7FF000EF86E08009F
:1028A000F5500001606F616BCEC062F0CFC063F085
:1028B000CBEC2BF0D0C0D9FFD1C0DAFFDE2A000E5E
:1028C000DD2231EF14F0120000019551800B9E6F54
:1028D00095519525A06F94AF70EF14F072EF14F03E
:1028E00073EF14F0A081A051D8B479EF14F07BEF0E
:1028F00014F090EF14F0A029D8A481EF14F083EF26
:1029000014F08BEF14F0000E926F000E936F000E18
:10291000946F000E956F948F000E956F98EF14F0E2
:10292000000E926F000E936F000E946F000E956F65
:102930009951800B9F6F9E519F19D8B4A2EF14F04C
:10294000A4EF14F0A5EF14F09E8D995199259F6F77
:1029500098AFADEF14F0AFEF14F0B0EF14F09F812B
:102960009F51D8B4B6EF14F0B8EF14F0CDEF14F0D7
:102970009F29D8A4BEEF14F0C0EF14F0C8EF14F0F4
:10298000000E966F000E976F000E986F000E996FF5
:10299000988F000E996FD5EF14F0000E966F000E11
:1029A000976F000E986F000E996FA0519F5DD8B081
:1029B000DCEF14F0DEEF14F005EF15F09EADE3EF61
:1029C00014F0E5EF14F0E7EF14F0800E9E1BA0C0AA
:1029D000A1F09FC0A0F0A1C09FF092C0A1F096C04E
:1029E00092F0A1C096F093C0A1F097C093F0A1C05F
:1029F00097F094C0A1F098C094F0A1C098F095C051
:102A0000A1F099C095F0A1C099F0000EA16FA0515E
:102A10009FC09AF09B6B9A5F000E9B5B9BBF1AEF67
:102A200015F09B5109E11A0E9A5DD8A01AEF15F026
:102A30001CEF15F053EF15F092519311941195116D
:102A4000D8A425EF15F028EF15F0010E29EF15F0A9
:102A5000000EA16F000E926F000E936F000E946F28
:102A6000000E956F9FC0A0F05CEF15F0A1A13BEFA9
:102A700015F03DEF15F043EF15F0D890A1310109A5
:102A8000A16F45EF15F0D890A13392A14AEF15F050
:102A90004CEF15F04DEF15F0A18F9535953394332C
:102AA00093339233A02B9F51A05DD8A05AEF15F01D
:102AB0005CEF15F036EF15F09EBD61EF15F063EF9A
:102AC00015F0A3EF15F0A051D8A469EF15F06BEF46
:102AD00015F075EF15F0000E926F000E936F000E5B
:102AE000946F000E956FC4EF16F096519227975190
:102AF0009323985194239951952395A182EF15F032
:102B000084EF15F030EF16F0A1A189EF15F08BEFEF
:102B100015F091EF15F0D890A1310109A16F93EF55
:102B200015F0D890A13392A198EF15F09AEF15F017
:102B30009BEF15F0A18F95359533943393339233F2
:102B4000A02B30EF16F09651925D97519359985102
:102B500094599551800A9A6F9951800A9A59D8B020
:102B6000B4EF15F0B6EF15F0E1EF15F09251965D68
:102B70009A6F935197599B6F945198599C6F9551A7
:102B800099599D6FFF0E9A25926FFF0E9B21936FAF
:102B9000FF0E9C21946FFF0E9D21956F800E9E1B52
:102BA000A16DA151D8A4D7EF15F0D9EF15F0E9EF39
:102BB00015F0010E9227000E932394239523E9EF3D
:102BC00015F09651925F9751935B9851945B995190
:102BD000955B9251931194119511D8A4F2EF15F0D1
:102BE000F4EF15F029EF16F0A151D8A4FAEF15F083
:102BF000FCEF15F029EF16F0000E926F000E936FA8
:102C0000000E946F000E956FC4EF16F0D8909237B7
:102C1000933794379537A1AF10EF16F012EF16F0F7
:102C200013EF16F09281A1A118EF16F01AEF16F02B
:102C30001EEF16F0D880A13720EF16F0D890A137FC
:102C4000A051D8B426EF16F028EF16F029EF16F0B1
:102C5000A00794AF2EEF16F030EF16F006EF16F047
:102C6000000E9F6FA1AF37EF16F039EF16F051EF5E
:102C700016F0A1C09AF07F0E9A17D8B442EF16F062
:102C800044EF16F048EF16F0010E9F6F51EF16F06B
:102C900092A14DEF16F04FEF16F051EF16F044EF02
:102CA00016F09F51D8B457EF16F059EF16F084EF95
:102CB00016F0010E9227000E93239423952395A1DD
:102CC00064EF16F066EF16F084EF16F092C09AF0FB
:102CD00093C09BF094C09CF095C09DF09D359D33B2
:102CE0009C339B339A339AC092F09BC093F09CC064
:102CF00094F09DC095F0A029D8B481EF16F083EF31
:102D000016F084EF16F0A02BA029D8B48AEF16F0A5
:102D10008CEF16F094EF16F0A051D8A492EF16F0B5
:102D200094EF16F0A6EF16F0000E926F000E936F60
:102D3000000E946F000E956FA051D8A4A2EF16F06C
:102D4000A4EF16F0A6EF16F0000E9E6FA0A1ABEF59
:102D500016F0ADEF16F0B0EF16F0948FB1EF16F05D
:102D6000949FD890A031956F9EAFB9EF16F0BBEF4E
:102D700016F0BCEF16F0958F92C092F093C093F0CE
:102D800094C094F095C095F012001D50800B266EF3
:102D90001D501D24286E1CAED0EF16F0D2EF16F099
:102DA000D3EF16F028802850D8B4D9EF16F0DBEF17
:102DB00016F0F0EF16F02828D8A4E1EF16F0E3EFB4
:102DC00016F0EBEF16F0000E1A6E000E1B6E000EE2
:102DD0001C6E000E1D6E1C8E000E1D6EF8EF16F0A0
:102DE000000E1A6E000E1B6E000E1C6E000E1D6E85
:102DF0002150800B276E26502718D8B402EF17F009
:102E000004EF17F005EF17F0268C21502124276ED0
:102E100020AE0DEF17F00FEF17F010EF17F027802F
:102E20002750D8B416EF17F018EF17F02DEF17F062
:102E30002728D8A41EEF17F020EF17F028EF17F07F
:102E4000000E1E6E000E1F6E000E206E000E216E14
:102E5000208E000E216E35EF17F0000E1E6E000E54
:102E60001F6E000E206E000E216E2850275CD8B019
:102E70003CEF17F03EEF17F065EF17F026AC43EF8D
:102E800017F045EF17F047EF17F0800E261A28C00D
:102E900029F027C028F029C027F01AC029F01EC049
:102EA0001AF029C01EF01BC029F01FC01BF029C05A
:102EB0001FF01CC029F020C01CF029C020F01DC04C
:102EC00029F021C01DF029C021F0000E296E2850E4
:102ED00027C022F0236A225E000E235A23BE7AEF17
:102EE00017F0235009E11A0E225CD8A07AEF17F0F0
:102EF0007CEF17F0B3EF17F01A501B101C101D10C9
:102F0000D8A485EF17F088EF17F0010E89EF17F0BE
:102F1000000E296E000E1A6E000E1B6E000E1C6E47
:102F2000000E1D6E27C028F0BCEF17F029A09BEF04
:102F300017F09DEF17F0A3EF17F0D8902930010993
:102F4000296EA5EF17F0D89029321AA0AAEF17F032
:102F5000ACEF17F0ADEF17F0298E1D341D321C3287
:102F60001B321A32282A2750285CD8A0BAEF17F053
:102F7000BCEF17F096EF17F026BCC1EF17F0C3EFC8
:102F800017F003EF18F02850D8A4C9EF17F0CBEFD3
:102F900017F0D5EF17F0000E1A6E000E1B6E000E24
:102FA0001C6E000E1D6E24EF19F01E501A261F50C5
:102FB0001B2220501C2221501D221DA0E2EF17F0E1
:102FC000E4EF17F090EF18F029A0E9EF17F0EBEF1E
:102FD00017F0F1EF17F0D89029300109296EF3EFBF
:102FE00017F0D89029321AA0F8EF17F0FAEF17F07F
:102FF000FBEF17F0298E1D341D321C321B321A32A2
:10300000282A90EF18F01E501A5C1F501B582050B1
:103010001C581D50800A226E2150800A2258D8B0B8
:1030200014EF18F016EF18F041EF18F01A501E5C6C
:10303000226E1B501F58236E1C502058246E1D50AA
:103040002158256EFF0E22241A6EFF0E23201B6EC0
:10305000FF0E24201C6EFF0E25201D6E800E261AEA
:10306000296C2950D8A437EF18F039EF18F049EF40
:1030700018F0010E1A26000E1B221C221D2249EFF9
:1030800018F01E501A5E1F501B5A20501C5A215017
:103090001D5A1A501B101C101D10D8A452EF18F006
:1030A00054EF18F089EF18F02950D8A45AEF18F00F
:1030B0005CEF18F089EF18F0000E1A6E000E1B6E10
:1030C000000E1C6E000E1D6E24EF19F0D8901A36FB
:1030D0001B361C361D3629AE70EF18F072EF18F053
:1030E00073EF18F01A8029A078EF18F07AEF18F033
:1030F0007EEF18F0D880293680EF18F0D890293666
:103100002850D8B486EF18F088EF18F089EF18F03F
:1031100028061CAE8EEF18F090EF18F066EF18F04E
:10312000000E276E29AE97EF18F099EF18F0B1EF67
:1031300018F029C022F07F0E2216D8B4A2EF18F0A2
:10314000A4EF18F0A8EF18F0010E276EB1EF18F0F9
:103150001AA0ADEF18F0AFEF18F0B1EF18F0A4EF30
:1031600018F02750D8B4B7EF18F0B9EF18F0E4EF23
:1031700018F0010E1A26000E1B221C221D221DA073
:10318000C4EF18F0C6EF18F0E4EF18F01AC022F000
:103190001BC023F01CC024F01DC025F025342532AF
:1031A00024322332223222C01AF023C01BF024C062
:1031B0001CF025C01DF02828D8B4E1EF18F0E3EF8B
:1031C00018F0E4EF18F0282A2828D8B4EAEF18F00D
:1031D000ECEF18F0F4EF18F02850D8A4F2EF18F044
:1031E000F4EF18F006EF19F0000E1A6E000E1B6EC9
:1031F000000E1C6E000E1D6E2850D8A402EF19F0B0
:1032000004EF19F006EF19F0000E266E28A00BEF60
:1032100019F00DEF19F010EF19F01C8E11EF19F0E5
:103220001C9ED89028301D6E26AE19EF19F01BEFAA
:1032300019F01CEF19F01D8E1AC01AF01BC01BF0FC
:103240001CC01CF01DC01DF01200F4C0D6F0F5C06B
:10325000D7F0F6C0D8F0F7C0D9F0C2C0D6F0C3C0DE
:10326000D7F0C4C0D8F0C5C0D9F0D6C0C8F0D7C018
:10327000C9F0D8C0CAF0D9C0CBF0200E46EF19F083
:103280000001D890CB33CA33C933C833E82E40EF9E
:1032900019F0C8C0D4F0C9C0D5F0FF0ED615D06F54
:1032A000FF0ED715D16FFF0ED815D26F7F0ED9152F
:1032B000D36F800ED25D7F0ED359D8A062EF19F084
:1032C00064EF19F089EF19F0C2C0A2F0C3C0A3F0F7
:1032D000C4C0A4F0C5C0A5F0C2C0A6F0C3C0A7F08A
:1032E000C4C0A8F0C5C0A9F069EC2FF0C6C0D9FFD2
:1032F000C7C0DAFF0001A2C0DEFFA3C0DEFFA4C08A
:10330000DEFFA5C0DEFF000EC36F000EC26F72EFBE
:103310001BF0DB0ED05D0F0ED159C90ED2594D0EE8
:10332000D359D8B096EF19F098EF19F08BEF1AF047
:10333000C2C060F0C3C061F0C4C062F0C5C063F039
:1033400088EC30F060C0E2F061C0E3F062C0E4F00D
:1033500063C0E5F0000E0001966F000E976F000E3F
:10336000986F3F0E996F830E7D6FF90E7E6F220E60
:103370007F6F3F0E806FE2C079F0E3C07AF0E4C067
:103380007BF0E5C07CF073EC1BF079C092F07AC062
:1033900093F07BC094F07CC095F064EC14F092C084
:1033A000A2F093C0A3F094C0A4F095C0A5F04FEC98
:1033B00029F0A2C0E6F0A3C0E7F0A4C0E8F0A5C0E1
:1033C000E9F0E6C060F0E7C061F0E8C062F0E9C093
:1033D00063F0010E03EC27F060C0DEF061C0DFF0A7
:1033E00062C0E0F063C0E1F0DA0E00017D6F0F0E05
:1033F0007E6FC90E7F6F3F0E806FDEC079F0DFC039
:103400007AF0E0C07BF0E1C07CF073EC1BF079C097
:10341000A6F07AC0A7F07BC0A8F07CC0A9F0E2C0FB
:10342000A2F0E3C0A3F0E4C0A4F0E5C0A5F069EC0D
:103430002FF0A2C0DAF0A3C0DBF0A4C0DCF0A5C07E
:10344000DDF0DAC0A2F0DBC0A3F0DCC0A4F0DDC088
:10345000A5F0A30E00017D6F850E7E6F880E7F6F35
:10346000320E806FDEC079F0DFC07AF0E0C07BF012
:10347000E1C07CF073EC1BF079C0A6F07AC0A7F035
:103480007BC0A8F07CC0A9F069EC2FF0C6C0D9FFC2
:10349000C7C0DAFF0001A2C0DEFFA3C0DEFFA4C0E8
:1034A000DEFFA5C0DEFFD451D511D8B45AEF1AF013
:1034B0005CEF1AF085EF1AF0C6C0D9FFC7C0DAFF7B
:1034C000DECFBEF0DECFBFF0DECFC0F0DECFC1F08A
:1034D0006BEC30F0C6C0D9FFC7C0DAFF0001BEC038
:1034E000DEFFBFC0DEFFC0C0DEFFC1C0DEFFE6C042
:1034F000C8F0E7C0C9F0C81FC91FC84BC92BC8C056
:10350000C2F0C9C0C3F072EF1BF0E6C0C2F0E7C062
:10351000C3F072EF1BF0C2C060F0C3C061F0C4C062
:1035200062F0C5C063F088EC30F060C0E2F061C0CA
:10353000E3F062C0E4F063C0E5F0000E0001966FB6
:10354000000E976F000E986F3F0E996F830E7D6F80
:10355000F90E7E6F220E7F6F3F0E806FE2C079F012
:10356000E3C07AF0E4C07BF0E5C07CF073EC1BF0C4
:1035700079C092F07AC093F07BC094F07CC095F053
:1035800064EC14F092C0A2F093C0A3F094C0A4F035
:1035900095C0A5F04FEC29F0A2C0E6F0A3C0E7F07B
:1035A000A4C0E8F0A5C0E9F0E6C060F0E7C061F0B3
:1035B000E8C062F0E9C063F0010E03EC27F060C0E0
:1035C000DEF061C0DFF062C0E0F063C0E1F0DA0E6F
:1035D00000017D6F0F0E7E6FC90E7F6F3F0E806FF3
:1035E000DEC079F0DFC07AF0E0C07BF0E1C07CF0B3
:1035F00073EC1BF079C0A6F07AC0A7F07BC0A8F0EE
:103600007CC0A9F0E2C0A2F0E3C0A3F0E4C0A4F043
:10361000E5C0A5F069EC2FF0A2C0DAF0A3C0DBF0A2
:10362000A4C0DCF0A5C0DDF0DAC0A2F0DBC0A3F0DE
:10363000DCC0A4F0DDC0A5F0A30E00017D6F850EF7
:103640007E6F880E7F6F320E806FDEC079F0DFC034
:103650007AF0E0C07BF0E1C07CF073EC1BF079C045
:10366000A6F07AC0A7F07BC0A8F07CC0A9F069ECF6
:103670002FF0A2C0CCF0A3C0CDF0A4C0CEF0A5C066
:10368000CFF00001D451D511D8B449EF1BF04BEF66
:103690001BF064EF1BF0CCC0BEF0CDC0BFF0CEC0BD
:1036A000C0F0CFC0C1F06BEC30F0C6C0D9FFC7C0CE
:1036B000DAFF0001BEC0DEFFBFC0DEFFC0C0DEFF1C
:1036C000C1C0DEFF77EF1AF0C6C0D9FFC7C0DAFF6E
:1036D000CCC0DEFFCDC0DEFFCEC0DEFFCFC0DEFF40
:1036E00085EF1AF0120000017C51800B856F7C5130
:1036F0007C258B6F7BAF7FEF1BF081EF1BF082EFA0
:103700001BF08B818B51D8B488EF1BF08AEF1BF034
:103710009DEF1BF08B29D8A490EF1BF092EF1BF0CC
:103720009AEF1BF0000E796F000E7A6F000E7B6F20
:10373000000E7C6F7B8FA5EF1BF0000E796F000EE3
:103740007A6F000E7B6F000E7C6F8051800B851BA3
:10375000805180258A6F7FAFB0EF1BF0B2EF1BF076
:10376000B3EF1BF08A818A51D8B4B9EF1BF0BBEFDD
:103770001BF0CEEF1BF08A29D8A4C1EF1BF0C3EFDA
:103780001BF0CBEF1BF0000E7D6F000E7E6F000E66
:103790007F6F000E806F7F8FD6EF1BF0000E7D6F66
:1037A000000E7E6F000E7F6F000E806F8A51D8B4BE
:1037B000DCEF1BF0DEEF1BF0E6EF1BF08B51D8A423
:1037C000E4EF1BF0E6EF1BF0F0EF1BF0000E796F5B
:1037D000000E7A6F000E7B6F000E7C6F88EF1DF07D
:1037E0007F517903F3CF90F0F4CF91F09051866F31
:1037F000876B886B896B91518C6F8D6B8E6B8F6B28
:103800007E517A03F3CF90F0F4CF91F09051862758
:10381000000E87238823892391518C27000E8D2346
:103820008E238F237D517B03F3CF90F0F4CF91F063
:1038300090518627000E87238823892391518C2756
:10384000000E8D238E238F2388C089F087C088F0D7
:1038500086C087F0866B7D517A03F3CF90F0F4CF6A
:1038600091F09051862791518723000E8823000EF6
:1038700089237E517903F3CF90F0F4CF91F09051EA
:10388000862791518723000E8823000E892388C044
:1038900089F087C088F086C087F0866B7D517903F8
:1038A000F3CF90F0F4CF91F0905186279151872378
:1038B000000E8823000E89237F517A03F3CF90F006
:1038C000F4CF91F090518C2791518D23000E8E23CF
:1038D000000E8F237E517B03F3CF90F0F4CF91F055
:1038E00090518C2791518D23000E8E23000E8F2333
:1038F0007F517B03F3CF90F0F4CF91F09051816F23
:103900009151826F836B846B83C084F082C083F09B
:1039100081C082F0816B81518C2782518D2383512C
:103920008E2384518F2386C081F087C082F088C0A7
:1039300083F089C084F0190EA3EF1CF0D890843373
:10394000833382338133E82E9EEF1CF081518C2724
:1039500082518D2383518E2384518F2388C089F017
:1039600087C088F086C087F0866B8A518BC081F053
:10397000826B8127000E8223820E8125906FFF0EBD
:103980008221916FD9EF1CF0D8908C378D378E370C
:103990008F3789AFCEEF1CF0D0EF1CF0D1EF1CF0C9
:1039A0008C81D89086378737883789379007D8A099
:1039B00091078EAFDEEF1CF0E0EF1CF0C4EF1CF0BF
:1039C000000E8A6F89AFE7EF1CF0E9EF1CF00DEFF6
:1039D0001DF0FF0E8615816FFF0E8715826FFF0E9B
:1039E0008815836F7F0E8915846F81518211831131
:1039F0008411D8B4FEEF1CF000EF1DF004EF1DF0B1
:103A0000010E8A6F0DEF1DF08CA109EF1DF00BEF79
:103A10001DF00DEF1DF000EF1DF08A51D8B413EF2B
:103A20001DF015EF1DF039EF1DF0010E8C27000E73
:103A30008D238E238F238FA120EF1DF022EF1DF009
:103A400039EF1DF08CC081F08DC082F08EC083F004
:103A50008FC084F08435843383338233813381C0D3
:103A60008CF082C08DF083C08EF084C08FF0904BBC
:103A7000912B91BF44EF1DF0915108E19029D8A0FE
:103A800044EF1DF046EF1DF050EF1DF0000E8C6F5F
:103A9000000E8D6F800E8E6F7F0E8F6F7EEF1DF08C
:103AA00091BF5DEF1DF0915106E19005D8B05BEF3D
:103AB0001DF05DEF1DF069EF1DF0000E8C6F000E24
:103AC0008D6F000E8E6F000E8F6F000E856F7EEF74
:103AD0001DF090C08BF0FF0E8C17FF0E8D177F0E20
:103AE0008E17000E8F178BA178EF1DF07AEF1DF067
:103AF0007BEF1DF08E8FD8908B318F6F85518F1398
:103B00008CC079F08DC07AF08EC07BF08FC07CF0D5
:103B100012000450800B0D6E04500424136E03AE8B
:103B200094EF1DF096EF1DF097EF1DF013801350EA
:103B3000D8B49DEF1DF09FEF1DF0B2EF1DF01328DC
:103B4000D8A4A5EF1DF0A7EF1DF0AFEF1DF0000EFC
:103B5000016E000E026E000E036E000E046E038EE8
:103B6000BAEF1DF0000E016E000E026E000E036E25
:103B7000000E046E0850800B0D1A08500824126EB7
:103B800007AEC5EF1DF0C7EF1DF0C8EF1DF01280A6
:103B90001250D8B4CEEF1DF0D0EF1DF0E3EF1DF0C2
:103BA0001228D8A4D6EF1DF0D8EF1DF0E0EF1DF0DD
:103BB000000E056E000E066E000E076E000E086EFB
:103BC000078EEBEF1DF0000E056E000E066E000E68
:103BD000076E000E086E1250D8B4F1EF1DF0F3EF2F
:103BE0001DF0FBEF1DF01350D8A4F9EF1DF0FBEF13
:103BF0001DF005EF1EF0000E016E000E026E000EAD
:103C0000036E000E046E9DEF1FF007500102F3CF0C
:103C100018F0F4CF19F018500E6E0F6A106A116A7E
:103C20001950146E156A166A176A06500202F3CF0D
:103C300018F0F4CF19F018500E26000E0F221022A3
:103C4000112219501426000E152216221722055093
:103C50000302F3CF18F0F4CF19F018500E26000E1F
:103C60000F221022112219501426000E152216229E
:103C7000172210C011F00FC010F00EC00FF00E6A26
:103C800005500202F3CF18F0F4CF19F018500E26A9
:103C900019500F22000E1022000E112206500102B0
:103CA000F3CF18F0F4CF19F018500E2619500F2248
:103CB000000E1022000E112210C011F00FC010F0E3
:103CC0000EC00FF00E6A05500102F3CF18F0F4CFCA
:103CD00019F018500E2619500F22000E1022000E57
:103CE000112207500202F3CF18F0F4CF19F0185048
:103CF000142619501522000E1622000E1722065007
:103D00000302F3CF18F0F4CF19F01850142619500D
:103D10001522000E1622000E172207500302F3CFC1
:103D200018F0F4CF19F01850096E19500A6E0B6A8A
:103D30000C6A0BC00CF00AC00BF009C00AF0096A4B
:103D4000095014260A5015220B5016220C50172227
:103D50000EC009F00FC00AF010C00BF011C00CF03B
:103D6000190EB8EF1EF0D8900C320B320A3209321D
:103D7000E82EB3EF1EF0095014260A5015220B50FE
:103D800016220C50172210C011F00FC010F00EC0F8
:103D90000FF00E6A125013C009F00A6A0926000ECD
:103DA0000A22820E0924186EFF0E0A20196EEEEF09
:103DB0001EF0D890143615361636173611AEE3EFCE
:103DC0001EF0E5EF1EF0E6EF1EF01480D8900E36E0
:103DD0000F36103611361806D8A0190616AEF3EFB6
:103DE0001EF0F5EF1EF0D9EF1EF0000E126E11AEB0
:103DF000FCEF1EF0FEEF1EF022EF1FF0FF0E0E1480
:103E0000096EFF0E0F140A6EFF0E10140B6E7F0E5C
:103E100011140C6E09500A100B100C10D8B413EFCB
:103E20001FF015EF1FF019EF1FF0010E126E22EFB9
:103E30001FF014A01EEF1FF020EF1FF022EF1FF065
:103E400015EF1FF01250D8B428EF1FF02AEF1FF023
:103E50004EEF1FF0010E1426000E15221622172217
:103E600017A035EF1FF037EF1FF04EEF1FF014C013
:103E700009F015C00AF016C00BF017C00CF00C3496
:103E80000C320B320A32093209C014F00AC015F0A4
:103E90000BC016F00CC017F0184A192A19BE59EFBA
:103EA0001FF0195008E11828D8A059EF1FF05BEF58
:103EB0001FF065EF1FF0000E146E000E156E800EE1
:103EC000166E7F0E176E93EF1FF019BE72EF1FF084
:103ED000195006E11804D8B070EF1FF072EF1FF010
:103EE0007EEF1FF0000E146E000E156E000E166EA3
:103EF000000E176E000E0D6E93EF1FF018C013F03A
:103F0000FF0E1416FF0E15167F0E1616000E17164E
:103F100013A08DEF1FF08FEF1FF090EF1FF0168EA4
:103F2000D8901330176E0D50171214C001F015C041
:103F300002F016C003F017C004F012000001635134
:103F4000800B706F63516325776F62AFAAEF1FF02C
:103F5000ACEF1FF0ADEF1FF077817751D8B4B3EF1E
:103F60001FF0B5EF1FF0CAEF1FF07729D8A4BBEF01
:103F70001FF0BDEF1FF0C5EF1FF0000E606F000EC9
:103F8000616F000E626F000E636F628F000E636FD1
:103F9000D2EF1FF0000E606F000E616F000E626FB7
:103FA000000E636F6751800B701B67516725786F38
:103FB00066AFDDEF1FF0DFEF1FF0E0EF1FF078815D
:103FC0007851D8B4E6EF1FF0E8EF1FF0FDEF1FF0D7
:103FD0007829D8A4EEEF1FF0F0EF1FF0F8EF1FF0F4
:103FE000000E646F000E656F000E666F000E676F47
:103FF000668F000E676F05EF20F0000E646F000EF5
:10400000656F000E666F000E676F64516511661173
:104010006711D8A40EEF20F010EF20F028EF20F069
:10402000000E606F000E616F000E626F000E636F16
:10403000800E62137F0E63137051631360C060F0D3
:1040400061C061F062C062F063C063F06BEF21F0A9
:104050007751D8A42EEF20F030EF20F03AEF20F087
:10406000000E606F000E616F000E626F000E636FD6
:104070006BEF21F0785177C068F0696B685F000ED4
:10408000695B7F0E6825716F000E6921726F60C0D9
:104090006CF061C06DF062C06EF063C06FF0000E36
:1040A000606F000E616F000E626F000E636F000E96
:1040B000736F000E746F000E756F000E766F000E3A
:1040C000786F9BEF20F07851D8B469EF20F06BEF58
:1040D00020F082EF20F0D8906C376D376E376F3755
:1040E000D890603761376237633776AF7AEF20F068
:1040F0007CEF20F07DEF20F06081D890733774372B
:104100007537763764516C5D65516D5966516E59DE
:1041100067516F59D8A08FEF20F091EF20F09AEF00
:1041200020F0768D64516C5F65516D5B66516E5BFE
:1041300067516F5B782B190E7865A1EF20F0A3EF24
:1041400020F063EF20F06C516D116E116F11D8B437
:10415000ACEF20F0AEEF20F0C6EF20F07381C6EF99
:1041600020F0D890603761376237633776AFBBEFA6
:1041700020F0BDEF20F0BEEF20F06081D8907337C3
:104180007437753776377107D8A0720762AFCBEFF7
:1041900020F0CDEF20F0B1EF20F0000E786F76AF79
:1041A000D4EF20F0D6EF20F0FAEF20F0FF0E7315D9
:1041B000686FFF0E7415696FFF0E75156A6F7F0EBD
:1041C00076156B6F685169116A116B11D8B4EBEFFA
:1041D00020F0EDEF20F0F1EF20F0010E786FFAEF14
:1041E00020F060A1F6EF20F0F8EF20F0FAEF20F0D9
:1041F000EDEF20F07851D8B400EF21F002EF21F07C
:1042000026EF21F0010E6027000E61236223632355
:1042100063A10DEF21F00FEF21F026EF21F060C038
:1042200068F061C069F062C06AF063C06BF06B3522
:104230006B336A336933683368C060F069C061F01A
:104240006AC062F06BC063F0714B722B72BF31EFCA
:1042500021F0725108E17129D8A031EF21F033EF3C
:1042600021F03EEF21F0000E726F7169000E606F59
:10427000000E616F000E626F000E636F72BF4BEF36
:1042800021F0725106E17105D8B049EF21F04BEFF2
:1042900021F059EF21F0000E726F000E716F000EC9
:1042A000606F000E616F000E626F000E636F000E94
:1042B000706F71C077F077A160EF21F062EF21F0AD
:1042C00065EF21F0628F66EF21F0629FD890773121
:1042D000636F1CEF20F012000B0EBA6E000EB16E71
:1042E000010ECD6E130EBC6E880EBB6E000ECF6E2F
:1042F000000ECE6E98908690989886889368000EEF
:104300000101636F000E646FFA0E656F440E666FF5
:1043100081500001F26FF36B640EF227000EF3235D
:10432000F2C060F0F3C061F0000E61BFFF0E626F7B
:10433000636F010E03EC27F060C067F161C068F1A4
:1043400062C069F163C06AF1000E00017D6F000E6A
:104350007E6F000E7F6F400E806F63C164F064C19A
:1043600065F065C166F066C167F067C160F068C15D
:1043700061F069C162F06AC163F09EEC1FF060C039
:1043800079F061C07AF062C07BF063C07CF073ECBE
:104390001BF079C05BF17AC05CF17BC05DF17CC041
:1043A0005EF15BC179F05CC17AF05DC17BF05EC10A
:1043B0007CF0DB0E00017D6F0F0E7E6F490E7F6F6C
:1043C000400E806F73EC1BF079C06FF17AC070F112
:1043D0007BC071F17CC072F16FC1EAF070C1EBF08B
:1043E00071C1ECF072C1EDF0B4EC0EF0EAC05FF117
:1043F000EBC060F1ECC061F1EDC062F15FC179F03A
:1044000060C17AF061C17BF062C17CF0000E0001F6
:104410007D6F000E7E6F000E7F6F400E806F73EC1D
:104420001BF079C0CDF17AC0CEF17BC0CFF17CC05A
:10443000D0F1000E5B6E000E5C6E000E5D6E000E25
:104440005E6E6FC179F070C17AF071C17BF072C19C
:104450007CF0000E00017D6F000E7E6F800E7F6F7E
:10446000BF0E806F73EC1BF079C06BF17AC06CF1FA
:104470007BC06DF17CC06EF16BC1EAF06CC1EBF0FA
:104480006DC1ECF06EC1EDF0B4EC0EF0EAC0C9F114
:10449000EBC0CAF1ECC0CBF1EDC0CCF16FC179F04B
:1044A00070C17AF071C17BF072C17CF0000E000126
:1044B0007D6F000E7E6F000E7F6FC00E806F73ECFD
:1044C0001BF079C06BF17AC06CF17BC06DF17CC0E0
:1044D0006EF16BC1EAF06CC1EBF06DC1ECF06EC136
:1044E000EDF0B4EC0EF0EAC0C5F1EBC0C6F1ECC0E3
:1044F000C7F1EDC0C8F1CEEC30F00DEC2EF0450E5A
:104500000001646F100E656F000E676F010E666F1D
:1045100096EC2CF0460E01013E6F010E3F6F580ED7
:10452000406F100E416F63C142F164C143F165C138
:1045300044F166C145F1EEEC2EF0460E0001646FC9
:10454000010E656F000E676F020E666F96EC2CF021
:10455000460E01013E6F010E3F6F690E406F100E57
:10456000416F67C142F168C143F169C144F16AC159
:1045700045F1EEEC2EF0460E0001646F010E656F02
:10458000000E676F030E666F96EC2CF0D08EA28043
:10459000A190A080F29CF28ECCEF22F007EF00F009
:1045A000C2C079F0C3C07AF0C4C07BF0C5C07CF053
:1045B000C2C07DF0C3C07EF0C4C07FF0C5C080F033
:1045C00073EC1BF079C0DEF07AC0DFF07BC0E0F066
:1045D0007CC0E1F0DEC079F0DFC07AF0E0C07BF0B3
:1045E000E1C07CF0DEC07DF0DFC07EF0E0C07FF097
:1045F000E1C080F073EC1BF079C0CAF07AC0CBF058
:104600007BC0CCF07CC0CDF03C0E00017D6F6C0E09
:104610007E6F360E7F6F360E806FDEC079F0DFC0A2
:104620007AF0E0C07BF0E1C07CF073EC1BF079C065
:1046300092F07AC093F07BC094F07CC095F0CF0EDE
:104640000001966F070E976F500E986FB90E996F15
:1046500064EC14F092C0C6F093C0C7F094C0C8F0E8
:1046600095C0C9F0DEC079F0DFC07AF0E0C07BF021
:10467000E1C07CF0C2C07DF0C3C07EF0C4C07FF05A
:10468000C5C080F073EC1BF079C0DAF07AC0DBF0C3
:104690007BC0DCF07CC0DDF0AB0E0001966FAA0E93
:1046A000976F2A0E986FBE0E996F840E7D6F880EDD
:1046B0007E6F080E7F6F3C0E806FDEC079F0DFC02A
:1046C0007AF0E0C07BF0E1C07CF073EC1BF079C0C5
:1046D00092F07AC093F07BC094F07CC095F064ECCB
:1046E00014F092C0CEF093C0CFF094C0D0F095C03B
:1046F000D1F0CAC07DF0CBC07EF0CCC07FF0CDC081
:1047000080F0DAC079F0DBC07AF0DCC07BF0DDC08D
:104710007CF073EC1BF079C0D2F07AC0D3F07BC090
:10472000D4F07CC0D5F0C2C096F0C3C097F0C4C02E
:1047300098F0C5C099F0DAC07DF0DBC07EF0DCC037
:104740007FF0DDC080F0CEC079F0CFC07AF0D0C06D
:104750007BF0D1C07CF073EC1BF079C092F07AC092
:1047600093F07BC094F07CC095F064EC14F092C0A0
:10477000D6F093C0D7F094C0D8F095C0D9F0D6C089
:1047800092F0D7C093F0D8C094F0D9C095F0C6C0CD
:104790007DF0C7C07EF0C8C07FF0C9C080F0D2C035
:1047A00079F0D3C07AF0D4C07BF0D5C07CF073EC44
:1047B0001BF079C096F07AC097F07BC098F07CC06F
:1047C00099F064EC14F092C0C2F093C0C3F094C0AE
:1047D000C4F095C0C5F012004AC089F04BC08AF001
:1047E0004CC08BF04DC08CF079C089F07AC08AF053
:1047F0007BC08BF07CC08CF0810E00017D6FFF0EC2
:104800007E6F89C07FF08AC080F08BC081F08CC041
:1048100082F0180E11EF24F0D89082338133803368
:104820007F33E82E0CEF24F07F517D25876F000E3B
:104830007E21886F88BF26EF24F0885109E1170E8A
:10484000875DD8A026EF24F028EF24F032EF24F083
:1048500079C079F07AC07AF07BC07BF07CC07CF0C4
:10486000F6EF24F088BF37EF24F039EF24F0AAEFF9
:1048700024F087C07DF0FF0E7E6FFF0E7F6F7F0EEE
:10488000806F000E816F7D6748EF24F050EF24F0B9
:104890008135813380337F337E337D2F43EF24F0A6
:1048A0007EC083F07FC084F080C085F081C086F038
:1048B0000001835189157D6F84518A157E6F855162
:1048C0008B157F6F86518C15806F7D517E117F1106
:1048D0008011D8A46EEF24F070EF24F072EF24F072
:1048E00028EF24F089C07DF08AC07EF08BC07FF075
:1048F0008CC080F0200E82EF24F0D89080337F337C
:104900007E337D33E82E7DEF24F07D517E117F11C3
:104910008011D8B48EEF24F090EF24F098EF24F0BB
:104920008351892784518A2385518B2386518C2377
:10493000831D7D6F841D7E6F851D7F6F861D806F3B
:104940007D5189177E518A177F518B1780518C17A3
:10495000EEEF24F089C07DF08AC07EF08BC07FF03E
:104960008CC080F0200EBAEF24F0D89080337F33D3
:104970007E337D33E82EB5EF24F07D517E117F111B
:104980008011D8A4C6EF24F0C8EF24F0D2EF24F0B1
:10499000000E896F000E8A6F000E8B6F000E8C6FF9
:1049A000EEEF24F0D89089357D6F8A357E6F8B3598
:1049B0007F6F8C35806F7D517E117F118011D8B44F
:1049C000E4EF24F0E6EF24F0EEEF24F0000E896F20
:1049D000000E8A6F800E8B6FBF0E8C6F89C079F0CE
:1049E0008AC07AF08BC07BF08CC07CF0120056C07D
:1049F0003AF057C03BF058C03CF059C03DF02AC0D7
:104A00003AF02BC03BF02CC03CF02DC03DF0810EA5
:104A10002E6EFF0E2F6E3AC030F03BC031F03CC01E
:104A200032F03DC033F0180E1BEF25F0D890333232
:104A3000323231323032E82E16EF25F030502E244B
:104A4000386E000E2F20396E39BE30EF25F0395008
:104A500009E1170E385CD8A030EF25F032EF25F0D1
:104A60003CEF25F02AC02AF02BC02BF02CC02CF0F4
:104A70002DC02DF0FFEF25F039BE41EF25F043EFBB
:104A800025F0B3EF25F038C02EF0FF0E2F6EFF0E8D
:104A9000306E7F0E316E000E326E2E6652EF25F0B4
:104AA0005AEF25F032343232313230322F322E2E5C
:104AB0004DEF25F02FC034F030C035F031C036F066
:104AC00032C037F034503A142E6E35503B142F6EEE
:104AD00036503C14306E37503D14316E2E502F102E
:104AE00030103110D8A477EF25F079EF25F07BEF67
:104AF00025F032EF25F03AC02EF03BC02FF03CC03D
:104B000030F03DC031F0200E8BEF25F0D8903132DF
:104B100030322F322E32E82E86EF25F02E502F1015
:104B200030103110D8A497EF25F099EF25F0A1EFC0
:104B300025F034503A2635503B2236503C2237502F
:104B40003D22341C2E6E351C2F6E361C306E371CE9
:104B5000316E2E503A162F503B1630503C163150C5
:104B60003D16F7EF25F03AC02EF03BC02FF03CC0C9
:104B700030F03DC031F0200EC3EF25F0D890313237
:104B800030322F322E32E82EBEEF25F02E502F106D
:104B900030103110D8B4CFEF25F0D1EF25F0DBEF96
:104BA00025F0000E3A6E000E3B6E000E3C6E800E3D
:104BB0003D6EF7EF25F0D8903A342E6E3B342F6ED1
:104BC0003C34306E3D34316E2E502F103010311089
:104BD000D8B4EDEF25F0EFEF25F0F7EF25F0000E5C
:104BE0003A6E000E3B6E800E3C6E3F0E3D6E3AC03C
:104BF0002AF03BC02BF03CC02CF03DC02DF0120041
:104C0000A2C079F0A3C07AF0A4C07BF0A5C07CF06C
:104C1000A2C07DF0A3C07EF0A4C07FF0A5C080F04C
:104C200073EC1BF079C0BAF07AC0BBF07BC0BCF06B
:104C30007CC0BDF0BAC079F0BBC07AF0BCC07BF0DC
:104C4000BDC07CF0BAC07DF0BBC07EF0BCC07FF0C0
:104C5000BDC080F073EC1BF079C0B6F07AC0B7F03D
:104C60007BC0B8F07CC0B9F0170E00017D6F9A0EC2
:104C70007E6FCC0E7F6F370E806FBAC079F0BBC0ED
:104C80007AF0BCC07BF0BDC07CF073EC1BF079C047
:104C900092F07AC093F07BC094F07CC095F03F0E08
:104CA0000001966F040E976FB60E986FBA0E996F4B
:104CB00064EC14F092C0A6F093C0A7F094C0A8F0E2
:104CC00095C0A9F0000E0001966F000E976F800E40
:104CD000986F3F0E996F000E7D6F000E7E6F000E75
:104CE0007F6FBF0E806FBAC079F0BBC07AF0BCC0D6
:104CF0007BF0BDC07CF073EC1BF079C092F07AC001
:104D000093F07BC094F07CC095F064EC14F092C0FA
:104D1000AAF093C0ABF094C0ACF095C0ADF0BAC0AF
:104D20007DF0BBC07EF0BCC07FF0BDC080F0B6C0DF
:104D300079F0B7C07AF0B8C07BF0B9C07CF073EC02
:104D40001BF079C0AEF07AC0AFF07BC0B0F07CC091
:104D5000B1F09F0E00017D6FAA0E7E6F2A0E7F6F4D
:104D60003D0E806FB6C079F0B7C07AF0B8C07BF066
:104D7000B9C07CF073EC1BF079C096F07AC097F064
:104D80007BC098F07CC099F0AAC092F0ABC093F0C1
:104D9000ACC094F0ADC095F064EC14F092C0B2F0E9
:104DA00093C0B3F094C0B4F095C0B5F0B2C092F027
:104DB000B3C093F0B4C094F0B5C095F0A6C07DF038
:104DC000A7C07EF0A8C07FF0A9C080F0AEC079F087
:104DD000AFC07AF0B0C07BF0B1C07CF073EC1BF0D8
:104DE00079C096F07AC097F07BC098F07CC099F0BB
:104DF00064EC14F092C0A2F093C0A3F094C0A4F0AD
:104E000095C0A5F012000001686F00016851D8B488
:104E10000CEF27F00EEF27F030EF27F063BF15EF10
:104E200027F013EF27F030EF27F060C064F061C087
:104E300065F062C066F063C067F0641F651F661F9F
:104E4000671F642B000E65236623672364C06AF026
:104E500065C06BF066C06CF067C06DF038EF27F08E
:104E600060C06AF061C06BF062C06CF063C06DF04E
:104E70006051611162116311D8A441EF27F043EF33
:104E800027F04DEF27F0000E606F000E616F000EEF
:104E9000626F000E636FDEEF27F0960E696F57EFBB
:104EA00027F0692BD8906D336C336B336A33000E67
:104EB0006A15646F000E6B15656F000E6C15666FDA
:104EC000FE0E6D15676F6451651166116711D8A4E8
:104ED0006CEF27F06EEF27F051EF27F07CEF27F013
:104EE000692B010E6A27000E6B236C236D23D8906B
:104EF0006D336C336B336A33000E6A15646F000ECA
:104F00006B15656F000E6C15666FFF0E6D15676F84
:104F10006451651166116711D8A491EF27F093EFE2
:104F200027F070EF27F09BEF27F06907D8906A37DA
:104F30006B376C376D376CBFA0EF27F0A2EF27F00F
:104F4000AAEF27F0020E6961A8EF27F0AAEF27F079
:104F500095EF27F069B1AFEF27F0B1EF27F0B2EF8F
:104F600027F06C9FD890693369C064F0656B666BFD
:104F7000676B64C067F0666B656B646B64516A1342
:104F800065516B1366516C1367516D136851D8B43A
:104F9000CCEF27F0CEEF27F0D6EF27F063BFD5EFA9
:104FA00027F0D3EF27F0D6EF27F06D8F6AC060F0BF
:104FB0006BC061F06CC062F06DC063F01200000E57
:104FC0000001756F000E746F000E6E6F000E6D6F36
:104FD000ECEF27F0674B682B010E736F67C0F6FF8D
:104FE00068C0F7FF000EF86E0800F550200AD8B42C
:104FF000FCEF27F0FEEF27F01DEF28F0F70E696FAA
:10500000FF0E6A6F67C0F6FF68C0F7FF000EF86E0C
:105010000800F5506B6F6C6B69516B276A516C23FC
:105020006C5109E1050E6B5DD8A019EF28F01BEF5C
:1050300028F01DEF28F0000E736F73C06FF0706BD7
:105040006F517011D8A427EF28F029EF28F0EAEF6C
:1050500027F033EF28F0000E6E6F010E6D6F674B77
:10506000682B6DEF28F067C0F6FF68C0F7FF000EF1
:10507000F86E0800F550696F6A6B6A51000AD8B47F
:1050800044EF28F06DEF28F069512B0AD8B42FEFC8
:1050900028F0060AD8B42BEF28F06DEF28F074C082
:1050A00060F075C061F0000E636F0A0E626FBAECBB
:1050B00030F067C0F6FF68C0F7FF000EF86E08001A
:1050C000F5500001605F000E615B300E6025746F6B
:1050D000000E6121756F2FEF28F0D00E696FFF0E63
:1050E0006A6F67C0F6FF68C0F7FF000EF86E080031
:1050F000F5506B6F6C6B69516B276A516C236C5167
:105100000AE10A0E6B5DD8A088EF28F08BEF28F03B
:10511000010E8CEF28F0000E716F726B71517211DD
:10512000D8A495EF28F097EF28F04FEF28F06D51B5
:105130006E11D8A49EEF28F0A0EF28F0AEEF28F073
:1051400074C069F075C06AF0691F6A1F694B6A2BE9
:1051500069C067F06AC068F0B2EF28F074C067F009
:1051600075C068F012000600F3CF48F0F4CF49F0A4
:105170008680000E1E6E000E1F6E000E206E430E07
:10518000216E000E056E000E066EFA0E076E420EC0
:10519000086E5BC001F05CC002F05DC003F05EC051
:1051A00004F089EC1DF001C01AF002C01BF003C02E
:1051B0001CF004C01DF0C5EC16F01AC02AF01BC08C
:1051C0002BF01CC02CF01DC02DF0F7EC24F02AC0F1
:1051D0003EF02BC03FF02CC040F02DC041F056EC0B
:1051E0002AF03E505A6E829E9E96100EC96E9EA662
:1051F000FCEF28F0FEEF28F0F7EF28F09E965AC05B
:10520000C9FF9EA606EF29F008EF29F001EF29F06B
:10521000828EC9C105F0CAC106F0CBC107F0CCC16E
:1052200008F0CDC101F0CEC102F0CFC103F0D0C172
:1052300004F089EC1DF001C02AF002C02BF003C07D
:105240002CF004C02DF0C5C12EF0C6C12FF0C7C18F
:1052500030F0C8C131F0D3EC2FF02AC05BF02BC086
:105260005CF02CC05DF02DC05EF0C9C1C5F1CAC1B3
:10527000C6F1CBC1C7F1CCC1C8F15BC0C9F15CC0FC
:10528000CAF15DC0CBF15EC0CCF18698868886906D
:10529000A19049C0F4FF48C0F3FF5F9211000001E4
:1052A000A435A535AB6FAB51D8A459EF29F05BEF0E
:1052B00029F065EF29F0000EA26F000EA36F000E1B
:1052C000A46F000EA56FD2EF29F0A2C0A6F0A3C074
:1052D000A7F0A4C0A8F0A5C0A9F0200E75EF29F092
:1052E000D890A933A833A733A633E82E70EF29F05E
:1052F000A651AA6FA48FFF0EA217FF0EA317FF0ED1
:10530000A417000EA517960EAB5FABBF8CEF29F06C
:105310008AEF29F0A2EF29F0AB51800A970FD8B09D
:1053200094EF29F096EF29F098EF29F05BEF29F040
:10533000D890A533A433A333A233AB3F98EF29F021
:10534000BAEF29F01F0EAB65A8EF29F0AAEF29F0FC
:10535000B2EF29F05BEF29F0D890A237A337A4373A
:10536000A537AB07AB51D8A4B8EF29F0BAEF29F0B5
:10537000ACEF29F0AA51D8B4C0EF29F0C2EF29F060
:10538000CAEF29F0A51FA41FA31FA26D000EA3231F
:10539000A423A523A2C0A2F0A3C0A3F0A4C0A4F09C
:1053A000A5C0A5F01200000E000192159A6F000E24
:1053B00093159B6F800E94159C6F7F0E95159D6FB6
:1053C0009A519B119C119D11D8A4E9EF29F0EBEFA4
:1053D00029F0F3EF29F0000E926F000E936F000E8C
:1053E000946F000E956F000E96159A6F000E97152C
:1053F0009B6F800E98159C6F7F0E99159D6F9A512B
:105400009B119C119D11D8A408EF2AF00AEF2AF0F5
:1054100012EF2AF0000E966F000E976F000E986F35
:10542000000E996F95AF17EF2AF019EF2AF022EFCF
:105430002AF0926D931FD8B0932B941FD8B0942B61
:10544000800E955799AF27EF2AF029EF2AF032EF17
:105450002AF0966D971FD8B0972B981FD8B0982B2D
:10546000800E9957000E921B000E931B000E941B8A
:10547000800E951B000E961B000E971B000E981BAE
:10548000800E991B9651925D97519359985194595A
:1054900099519559D8B04FEF2AF051EF2AF054EFB7
:1054A0002AF0D89055EF2AF0D880120040344134C9
:1054B000476E4750D8A45FEF2AF061EF2AF06BEFF8
:1054C0002AF0000E3E6E000E3F6E000E406E000E83
:1054D000416ED8EF2AF03EC042F03FC043F040C0DA
:1054E00044F041C045F0200E7BEF2AF0D8904532C1
:1054F000443243324232E82E76EF2AF04250466E72
:10550000408EFF0E3E16FF0E3F16FF0E4016000E99
:105510004116960E475E47BE92EF2AF090EF2AF0B2
:10552000A8EF2AF04750800A970FD8B09AEF2AF0D8
:105530009CEF2AF09EEF2AF061EF2AF0D8904132DA
:1055400040323F323E32473E9EEF2AF0C0EF2AF013
:105550001F0E4764AEEF2AF0B0EF2AF0B8EF2AF042
:1055600061EF2AF0D8903E363F3640364136470646
:105570004750D8A4BEEF2AF0C0EF2AF0B2EF2AF0CD
:105580004650D8B4C6EF2AF0C8EF2AF0D0EF2AF080
:10559000411E401E3F1E3E6C000E3F224022412213
:1055A0003EC03EF03FC03FF040C040F041C041F03F
:1055B00012004EC06AF04FC06BF050C06CF051C08A
:1055C0006DF060C06AF061C06BF062C06CF063C0E7
:1055D0006DF06AC064F06BC065F06CC066F06DC0C1
:1055E00067F0180EFAEF2AF00001D890673366339F
:1055F00065336433E82EF4EF2AF06451686F696B09
:1056000068516911D8A407EF2BF009EF2BF029EFAF
:105610002BF0D8906A35646F6B35656F6C35666FAB
:105620006D35676F6451651166116711D8A41BEF62
:105630002BF01DEF2BF023EF2BF0000E616F020E0D
:10564000606F58EF2BF0000E616F030E606F58EF24
:105650002BF068296911D8A430EF2BF032EF2BF032
:1056600054EF2BF06AC064F06BC065F06CC066F05C
:105670006DC067F0090ED8906437653766376737B5
:10568000E82E3BEF2BF06451651166116711D8B419
:105690004CEF2BF04FEF2BF0010E50EF2BF0000EE4
:1056A000606F616B58EF2BF0000E616F040E606F3E
:1056B000120060C067F061C068F062C069F063C04A
:1056C0006AF000016407D8A06507642906E165292E
:1056D000D8A46DEF2BF06FEF2BF07CEF2BF0000ECA
:1056E000616F000E606FCAEF2BF0674B682B694B40
:1056F0006A2B6407D8A0650767C0D9FF68C0DAFFC6
:10570000DF50D8B486EF2BF088EF2BF0B7EF2BF0FB
:1057100069C0F6FF6AC0F7FF000EF86E0800F5508A
:105720000009D8B496EF2BF098EF2BF0B7EF2BF0E1
:1057300064516511D8B49FEF2BF0A1EF2BF0B7EFB8
:105740002BF067C0D9FF68C0DAFFDF50666F69C011
:10575000F6FF6AC0F7FF000EF86E0800F5506619F4
:10576000D8B4B5EF2BF0B7EF2BF075EF2BF067C087
:10577000D9FF68C0DAFFDF50666F69C0F6FF6AC004
:10578000F7FF000EF86E0800F550665D606F616B04
:10579000D8A061071200000162516311D8B4D3EFA1
:1057A0002BF0D5EF2BF0DEEF2BF062516311D8A474
:1057B000DCEF2BF0DEEF2BF0E3EF2BF06051DCECB5
:1057C00030F030EF2CF020EE04F06251D926635116
:1057D000DA22DE50DE10D8B4F0EF2BF0F2EF2BF02F
:1057E0000DEF2CF020EE04F06251D9266351DA223D
:1057F00010EE02F06251E1266351E222DE50E65CD7
:10580000E650800A686FDE50800A6859D8B00BEF06
:105810002CF00DEF2CF030EF2CF020EE02F0625166
:10582000D9266351DA22DECF64F0DDCF65F062C0A5
:10583000D9FF63C0DAFFDECF66F0DDCF67F06451D9
:105840006625D96E65516721DA6E60C0DFFF20EEF4
:1058500002F06251D9266351DA22DE2A000EDD22DF
:1058600012000001FCA137EF2CF039EF2CF043EFD0
:105870002CF072C069F073C06AF070C06BF071C038
:105880006CF045EC2FF0000175BF49EF2CF04BEFA9
:105890002CF051EF2CF074C079F075C07AF055EF10
:1058A0002CF0000E7A6F000E796F000E786F000EEC
:1058B000776F68EF2CF0000E616F200E606F70C084
:1058C00062F071C063F0CBEC2BF00001774B782BCA
:1058D0007951775D7851800A766F7A51800A7659CE
:1058E000D8A075EF2CF077EF2CF05BEF2CF0FCB12B
:1058F0007CEF2CF07EEF2CF088EF2CF072C069F07A
:1059000073C06AF070C06BF071C06CF045EC2FF0A2
:1059100072C060F073C061F031EC30F00001795179
:105920006025706F7A516121716F1200ACEF2CF01D
:10593000800E8DEC2FF0E1EF2CF0C00E8DEC2FF0EF
:10594000E1EF2CF0940E8DEC2FF0E1EF2CF0D40E63
:105950008DEC2FF0E1EF2CF066C068F067C069F0C5
:1059600000016951000AD8B4B8EF2CF0E1EF2CF037
:105970006851010AD8B498EF2CF0030AD8B49DEF0F
:105980002CF0010AD8B4A2EF2CF0070AD8B4A7EF84
:105990002CF0E1EF2CF064C0F6FF65C0F7FF000EBD
:1059A000F86E0F0EF76403D00800F55005D0F6CF5F
:1059B000E1FFF7CFE2FFE750F6EC2FF00001644B78
:1059C000652B64C0F6FF65C0F7FF000EF86E0F0E82
:1059D000F76403D00800F55005D0F6CFE1FFF7CF0C
:1059E000E2FFE7500009D8A4F8EF2CF0FAEF2CF012
:1059F000CBEF2CF01200000E0001656F63BF05EFC6
:105A00002DF003EF2DF00BEF2DF0626D631FD8B07A
:105A1000632B010E656F61BF12EF2DF010EF2DF0BB
:105A200018EF2DF0606D611FD8B0612B010E651B62
:105A3000000E676F000E666F62516311D8B423EFDA
:105A40002DF025EF2DF04DEF2DF0010E646F2DEFB1
:105A50002DF0D89062376337642B63AF32EF2DF0AF
:105A600034EF2DF029EF2DF0D8906637673762516B
:105A7000605D63516159D8A040EF2DF042EF2DF0E9
:105A800047EF2DF06251605F6351615B6681D89092
:105A900063336233642F34EF2DF06551D8B453EF84
:105AA0002DF055EF2DF059EF2DF0666D671FD8B032
:105AB000672B66C060F067C061F01200000E000145
:105AC000656F61BF68EF2DF066EF2DF06EEF2DF082
:105AD000606D611FD8B0612B010E656F63BF75EFFC
:105AE0002DF073EF2DF079EF2DF0626D631FD8B0BC
:105AF000632B62516311D8B480EF2DF082EF2DF04B
:105B0000A6EF2DF0010E646F8AEF2DF0D89062376A
:105B10006337642B63AF8FEF2DF091EF2DF086EF9D
:105B20002DF06251605D63516159D8A09AEF2DF05C
:105B30009CEF2DF0A0EF2DF06251605F6351615B2F
:105B4000D89063336233642F91EF2DF06551D8B450
:105B5000ACEF2DF0AEEF2DF0B2EF2DF0606D611FC8
:105B6000D8B0612B60C060F061C061F01200000E1F
:105B700000016015686F000E6115696F800E621577
:105B80006A6F7F0E63156B6F685169116A116B1133
:105B9000D8A4CDEF2DF0CFEF2DF0D7EF2DF0000EE4
:105BA000606F000E616F000E626F000E636F000E7B
:105BB0006415686F000E6515696F800E66156A6F53
:105BC0007F0E67156B6F685169116A116B11D8A44C
:105BD000ECEF2DF0EEEF2DF0F6EF2DF0000E646FF0
:105BE000000E656F000E666F000E676F64516019DE
:105BF0000FE1655161190CE16651621909E16751C4
:105C00006319D8B406EF2EF008EF2EF00BEF2EF04C
:105C1000D8900CEF2EF0D8801200000E0001606FBB
:105C2000000EB0EC2FF0000E0001606F120EB0EC11
:105C30002FF0000E0001606F010EB0EC2FF0000E8F
:105C40000001606F130EB0EC2FF0330E8DEC2FF0CF
:105C5000820E0001646FDD0EE82EFED7642FFCD7A4
:105C600000D0330E8DEC2FF0820E0001646FDD0E3C
:105C7000E82EFED7642FFCD700D0380E8DEC2FF025
:105C8000820E0001646FDD0EE82EFED7642FFCD774
:105C900000D00C0E8DEC2FF0060E8DEC2FF0010EC7
:105CA0008DEC2FF0800E8DEC2FF012003AC1E6F053
:105CB0003BC1E7F0000E0101746F000E736F78EFC7
:105CC0002EF038C1CEF039C1CFF0E60E0001D06F12
:105CD000000ED16F3CC1D2F03DC1D3F092EC11F077
:105CE0000001CE51010173270001CF51010174233E
:105CF000E6C0F6FFE7C0F7FF000EF86E0800F550AB
:105D00000009D8A486EF2EF088EF2EF061EF2EF078
:105D100073C138F174C139F11200BF0E0001686F10
:105D2000FF0E696F66C06AF067C06BF068516A2742
:105D300069516B236B510AE11A0E6A5DD8A0A3EF7B
:105D40002EF0A6EF2EF0010EA7EF2EF0000E6C6FD6
:105D50006D6B6C516D11D8B4B0EF2EF0B2EF2EF028
:105D6000B9EF2EF0200E6611666F6751676FBDEFB9
:105D70002EF066C066F067C067F0120062C066F081
:105D800063C067F060C068F061C069F000016651EF
:105D9000646F6751656F664B672B64C0F6FF65C023
:105DA000F7FF000EF86E68C0D9FF69C0DAFF684BD4
:105DB000692B0F0EF76403D00800F55005D0F6CF1D
:105DC000E1FFF7CFE2FFE750DF6EDF50D8A4EBEF43
:105DD0002EF0EDEF2EF0C6EF2EF01200420E000175
:105DE000EA6F010EEB6F3EC1ECF03FC1EDF0000E2B
:105DF000EF6F000EEE6F000EF16F000EF06FEC0E05
:105E00000101386F000E396F40C13AF141C13BF1D9
:105E1000EA0E3C6F000E3D6F56EC2EF00001EE5185
:105E200001013E25D96E0001EF5101013F21DA6EDB
:105E3000000EDF6E1200010E0001666F200E601969
:105E40006111D8B426EF2FF028EF2FF041EF2FF09B
:105E5000F70E626FFF0E636F60C064F061C065F0A3
:105E60006251642763516523655109E1050E645D44
:105E7000D8A03DEF2FF03FEF2FF041EF2FF0000EB5
:105E8000666F66C060F0616B1200000E00016F6FFC
:105E9000000E6E6F58EF2FF06DC060F0616B6BC03D
:105EA00062F06CC063F0CBEC2BF000016E4B6F2BFB
:105EB0006E516925D96E6F516A21DA6EDF506D6FB0
:105EC0006D51D8A466EF2FF068EF2FF04CEF2FF054
:105ED0001200000E0001A61B000EA71B000EA81B3F
:105EE000800EA91BA2C092F0A3C093F0A4C094F0AE
:105EF000A5C095F0A6C096F0A7C097F0A8C098F0EE
:105F0000A9C099F064EC14F092C0A2F093C0A3F081
:105F100094C0A4F095C0A5F012000001636F000EBC
:105F20000001606F120EB0EC2FF063C060F0130E32
:105F3000B0EC2FF0020E0001606F120EB0EC2FF0EB
:105F4000000E0001606F120EB0EC2FF0340E000155
:105F5000626FF10EE82EFED7622FFCD700D0120040
:105F60000001616F829C9E96400EC96E9EA6BBEF9B
:105F70002FF0BDEF2FF0B6EF2FF09E9661C0C9FF56
:105F80009EA6C5EF2FF0C7EF2FF0C0EF2FF09E9623
:105F900060C0C9FF9EA6CFEF2FF0D1EF2FF0CAEF60
:105FA0002FF0828C1200000E2E1A000E2F1A000EF7
:105FB000301A800E311A2AC01AF02BC01BF02CC0E8
:105FC0001CF02DC01DF02EC01EF02FC01FF030C0E1
:105FD00020F031C021F0C5EC16F01AC02AF01BC029
:105FE0002BF01CC02CF01DC02DF012000001626FC0
:105FF000010E0001606F120EB0EC2FF062C060F075
:10600000130EB0EC2FF0030E0001606F120EB0EC17
:106010002FF0010E0001606F120EB0EC2FF00D0E8C
:10602000E82EFED700F01200BF0E0001626FFF0ED7
:10603000636F60C064F061C065F0625164276351B2
:10604000652365510AE11A0E645DD8A02AEF30F08D
:106050002DEF30F0010E2EEF30F0000E606F616B0F
:10606000120060C062F061C063F03AEF30F00001EE
:10607000604B612B60C0D9FF61C0DAFFDF50D8A44C
:1060800044EF30F046EF30F037EF30F0000162516E
:10609000605D606F63516159616F1200D00E000145
:1060A000626FFF0E636F60C064F061C065F06251A3
:1060B00064276351652365510AE10A0E645DD8A027
:1060C00064EF30F067EF30F0010E68EF30F0000E53
:1060D000606F616B12000001BE51BF11C011C11190
:1060E000D8B475EF30F077EF30F07FEF30F0000E7E
:1060F000BE1B000EBF1B000EC01B800EC11BBEC00E
:10610000BEF0BFC0BFF0C0C0C0F0C1C0C1F012003F
:1061100052C064F053C065F054C066F055C067F0DB
:1061200060C064F061C065F062C066F063C067F093
:106130000001679F64C060F065C061F066C062F0F6
:1061400067C063F0120001EE73F0520EEE6AE806CB
:10615000FDE100EEF4F00A0EEE6AE806FDE100EE65
:106160004AF0110EEE6AE806FDE15F905F920001D1
:106170006CEF21F0000160516203F3CF64F0F4CFC3
:1061800065F060516303F350652761516203F3507A
:10619000652764C060F065C061F012009496948831
:1061A000949A949C949E000EC76EC78C000EC66E87
:0A61B000C68A828C828E1200120053
:020000040020DA
:08000000FFFFFFFFFFFFFFFF00
:020000040030CA
:0E000000FF061F1EF38385FFFFC0FFE0FF40D9
:00000001FF
